{"contracts/AMM.sol":{"AMM":{"abi":[{"inputs":[{"internalType":"address","name":"_tokenA","type":"address"},{"internalType":"address","name":"_tokenB","type":"address"}],"stateMutability":"nonpayable","type":"constructor"},{"inputs":[{"internalType":"address","name":"spender","type":"address"},{"internalType":"uint256","name":"allowance","type":"uint256"},{"internalType":"uint256","name":"needed","type":"uint256"}],"name":"ERC20InsufficientAllowance","type":"error"},{"inputs":[{"internalType":"address","name":"sender","type":"address"},{"internalType":"uint256","name":"balance","type":"uint256"},{"internalType":"uint256","name":"needed","type":"uint256"}],"name":"ERC20InsufficientBalance","type":"error"},{"inputs":[{"internalType":"address","name":"approver","type":"address"}],"name":"ERC20InvalidApprover","type":"error"},{"inputs":[{"internalType":"address","name":"receiver","type":"address"}],"name":"ERC20InvalidReceiver","type":"error"},{"inputs":[{"internalType":"address","name":"sender","type":"address"}],"name":"ERC20InvalidSender","type":"error"},{"inputs":[{"internalType":"address","name":"spender","type":"address"}],"name":"ERC20InvalidSpender","type":"error"},{"inputs":[{"internalType":"address","name":"owner","type":"address"}],"name":"OwnableInvalidOwner","type":"error"},{"inputs":[{"internalType":"address","name":"account","type":"address"}],"name":"OwnableUnauthorizedAccount","type":"error"},{"anonymous":false,"inputs":[{"indexed":true,"internalType":"address","name":"provider","type":"address"},{"indexed":false,"internalType":"uint256","name":"amountA","type":"uint256"},{"indexed":false,"internalType":"uint256","name":"amountB","type":"uint256"},{"indexed":false,"internalType":"uint256","name":"liquidity","type":"uint256"}],"name":"AddLiquidity","type":"event"},{"anonymous":false,"inputs":[{"indexed":true,"internalType":"address","name":"owner","type":"address"},{"indexed":true,"internalType":"address","name":"spender","type":"address"},{"indexed":false,"internalType":"uint256","name":"value","type":"uint256"}],"name":"Approval","type":"event"},{"anonymous":false,"inputs":[{"indexed":true,"internalType":"address","name":"buyer","type":"address"},{"indexed":false,"internalType":"address","name":"tokenOut","type":"address"},{"indexed":false,"internalType":"uint256","name":"ethIn","type":"uint256"},{"indexed":false,"internalType":"uint256","name":"tokenAmount","type":"uint256"}],"name":"BuyWithETH","type":"event"},{"anonymous":false,"inputs":[{"indexed":true,"internalType":"address","name":"previousOwner","type":"address"},{"indexed":true,"internalType":"address","name":"newOwner","type":"address"}],"name":"OwnershipTransferred","type":"event"},{"anonymous":false,"inputs":[{"indexed":true,"internalType":"address","name":"provider","type":"address"},{"indexed":false,"internalType":"uint256","name":"amountA","type":"uint256"},{"indexed":false,"internalType":"uint256","name":"amountB","type":"uint256"},{"indexed":false,"internalType":"uint256","name":"liquidity","type":"uint256"}],"name":"RemoveLiquidity","type":"event"},{"anonymous":false,"inputs":[{"indexed":false,"internalType":"uint256","name":"newFeeRate","type":"uint256"}],"name":"SetFeeRate","type":"event"},{"anonymous":false,"inputs":[{"indexed":true,"internalType":"address","name":"sender","type":"address"},{"indexed":false,"internalType":"address","name":"tokenIn","type":"address"},{"indexed":false,"internalType":"address","name":"tokenOut","type":"address"},{"indexed":false,"internalType":"uint256","name":"amountIn","type":"uint256"},{"indexed":false,"internalType":"uint256","name":"amountOut","type":"uint256"}],"name":"Swap","type":"event"},{"anonymous":false,"inputs":[{"indexed":true,"internalType":"address","name":"from","type":"address"},{"indexed":true,"internalType":"address","name":"to","type":"address"},{"indexed":false,"internalType":"uint256","name":"value","type":"uint256"}],"name":"Transfer","type":"event"},{"inputs":[{"internalType":"uint256","name":"amountA","type":"uint256"},{"internalType":"uint256","name":"amountB","type":"uint256"}],"name":"addLiquidity","outputs":[],"stateMutability":"nonpayable","type":"function"},{"inputs":[{"internalType":"address","name":"owner","type":"address"},{"internalType":"address","name":"spender","type":"address"}],"name":"allowance","outputs":[{"internalType":"uint256","name":"","type":"uint256"}],"stateMutability":"view","type":"function"},{"inputs":[{"internalType":"address","name":"spender","type":"address"},{"internalType":"uint256","name":"value","type":"uint256"}],"name":"approve","outputs":[{"internalType":"bool","name":"","type":"bool"}],"stateMutability":"nonpayable","type":"function"},{"inputs":[{"internalType":"address","name":"account","type":"address"}],"name":"balanceOf","outputs":[{"internalType":"uint256","name":"","type":"uint256"}],"stateMutability":"view","type":"function"},{"inputs":[{"internalType":"address","name":"tokenOut","type":"address"}],"name":"buyWithETH","outputs":[],"stateMutability":"payable","type":"function"},{"inputs":[],"name":"decimals","outputs":[{"internalType":"uint8","name":"","type":"uint8"}],"stateMutability":"view","type":"function"},{"inputs":[],"name":"feeRate","outputs":[{"internalType":"uint256","name":"","type":"uint256"}],"stateMutability":"view","type":"function"},{"inputs":[{"internalType":"address","name":"","type":"address"}],"name":"isLP","outputs":[{"internalType":"bool","name":"","type":"bool"}],"stateMutability":"view","type":"function"},{"inputs":[],"name":"name","outputs":[{"internalType":"string","name":"","type":"string"}],"stateMutability":"view","type":"function"},{"inputs":[],"name":"owner","outputs":[{"internalType":"address","name":"","type":"address"}],"stateMutability":"view","type":"function"},{"inputs":[{"internalType":"uint256","name":"amount","type":"uint256"}],"name":"removeLiquidity","outputs":[],"stateMutability":"nonpayable","type":"function"},{"inputs":[],"name":"renounceOwnership","outputs":[],"stateMutability":"nonpayable","type":"function"},{"inputs":[],"name":"reserveA","outputs":[{"internalType":"uint256","name":"","type":"uint256"}],"stateMutability":"view","type":"function"},{"inputs":[],"name":"reserveB","outputs":[{"internalType":"uint256","name":"","type":"uint256"}],"stateMutability":"view","type":"function"},{"inputs":[{"internalType":"uint256","name":"_feeRate","type":"uint256"}],"name":"setFeeRate","outputs":[],"stateMutability":"nonpayable","type":"function"},{"inputs":[{"internalType":"address","name":"user","type":"address"},{"internalType":"bool","name":"status","type":"bool"}],"name":"setLP","outputs":[],"stateMutability":"nonpayable","type":"function"},{"inputs":[{"internalType":"address","name":"tokenIn","type":"address"},{"internalType":"uint256","name":"amountIn","type":"uint256"},{"internalType":"uint256","name":"minAmountOut","type":"uint256"}],"name":"swap","outputs":[],"stateMutability":"nonpayable","type":"function"},{"inputs":[],"name":"symbol","outputs":[{"internalType":"string","name":"","type":"string"}],"stateMutability":"view","type":"function"},{"inputs":[],"name":"tokenA","outputs":[{"internalType":"address","name":"","type":"address"}],"stateMutability":"view","type":"function"},{"inputs":[],"name":"tokenB","outputs":[{"internalType":"address","name":"","type":"address"}],"stateMutability":"view","type":"function"},{"inputs":[],"name":"totalSupply","outputs":[{"internalType":"uint256","name":"","type":"uint256"}],"stateMutability":"view","type":"function"},{"inputs":[{"internalType":"address","name":"to","type":"address"},{"internalType":"uint256","name":"value","type":"uint256"}],"name":"transfer","outputs":[{"internalType":"bool","name":"","type":"bool"}],"stateMutability":"nonpayable","type":"function"},{"inputs":[{"internalType":"address","name":"from","type":"address"},{"internalType":"address","name":"to","type":"address"},{"internalType":"uint256","name":"value","type":"uint256"}],"name":"transferFrom","outputs":[{"internalType":"bool","name":"","type":"bool"}],"stateMutability":"nonpayable","type":"function"},{"inputs":[{"internalType":"address","name":"newOwner","type":"address"}],"name":"transferOwnership","outputs":[],"stateMutability":"nonpayable","type":"function"},{"stateMutability":"payable","type":"receive"}],"evm":{"bytecode":{"linkReferences":{},"object":"60806040526003600a5534801561001557600080fd5b506040516130d63803806130d6833981810160405281019061003791906102fa565b336040518060400160405280600881526020017f4c5020546f6b656e0000000000000000000000000000000000000000000000008152506040518060400160405280600381526020017f4c5054000000000000000000000000000000000000000000000000000000000081525081600390816100b3919061058a565b5080600490816100c3919061058a565b505050600073ffffffffffffffffffffffffffffffffffffffff168173ffffffffffffffffffffffffffffffffffffffff16036101385760006040517f1e4fbdf700000000000000000000000000000000000000000000000000000000815260040161012f919061066b565b60405180910390fd5b610147816101d160201b60201c565b5081600660006101000a81548173ffffffffffffffffffffffffffffffffffffffff021916908373ffffffffffffffffffffffffffffffffffffffff16021790555080600760006101000a81548173ffffffffffffffffffffffffffffffffffffffff021916908373ffffffffffffffffffffffffffffffffffffffff1602179055505050610686565b6000600560009054906101000a900473ffffffffffffffffffffffffffffffffffffffff16905081600560006101000a81548173ffffffffffffffffffffffffffffffffffffffff021916908373ffffffffffffffffffffffffffffffffffffffff1602179055508173ffffffffffffffffffffffffffffffffffffffff168173ffffffffffffffffffffffffffffffffffffffff167f8be0079c531659141344cd1fd0a4f28419497f9722a3daafe3b4186f6b6457e060405160405180910390a35050565b600080fd5b600073ffffffffffffffffffffffffffffffffffffffff82169050919050565b60006102c78261029c565b9050919050565b6102d7816102bc565b81146102e257600080fd5b50565b6000815190506102f4816102ce565b92915050565b6000806040838503121561031157610310610297565b5b600061031f858286016102e5565b9250506020610330858286016102e5565b9150509250929050565b600081519050919050565b7f4e487b7100000000000000000000000000000000000000000000000000000000600052604160045260246000fd5b7f4e487b7100000000000000000000000000000000000000000000000000000000600052602260045260246000fd5b600060028204905060018216806103bb57607f821691505b6020821081036103ce576103cd610374565b5b50919050565b60008190508160005260206000209050919050565b60006020601f8301049050919050565b600082821b905092915050565b6000600883026104367fffffffffffffffffffffffffffffffffffffffffffffffffffffffffffffffff826103f9565b61044086836103f9565b95508019841693508086168417925050509392505050565b6000819050919050565b6000819050919050565b600061048761048261047d84610458565b610462565b610458565b9050919050565b6000819050919050565b6104a18361046c565b6104b56104ad8261048e565b848454610406565b825550505050565b600090565b6104ca6104bd565b6104d5818484610498565b505050565b5b818110156104f9576104ee6000826104c2565b6001810190506104db565b5050565b601f82111561053e5761050f816103d4565b610518846103e9565b81016020851015610527578190505b61053b610533856103e9565b8301826104da565b50505b505050565b600082821c905092915050565b600061056160001984600802610543565b1980831691505092915050565b600061057a8383610550565b9150826002028217905092915050565b6105938261033a565b67ffffffffffffffff8111156105ac576105ab610345565b5b6105b682546103a3565b6105c18282856104fd565b600060209050601f8311600181146105f457600084156105e2578287015190505b6105ec858261056e565b865550610654565b601f198416610602866103d4565b60005b8281101561062a57848901518255600182019150602085019450602081019050610605565b868310156106475784890151610643601f891682610550565b8355505b6001600288020188555050505b505050505050565b610665816102bc565b82525050565b6000602082019050610680600083018461065c565b92915050565b612a41806106956000396000f3fe60806040526004361061014f5760003560e01c8063715018a6116100b65780639cd441da1161006f5780639cd441da146104805780639f1d0f59146104a9578063a9059cbb146104d2578063dc5fa6c51461050f578063dd62ed3e1461053a578063f2fde38b1461057757610156565b8063715018a6146103825780637df0f767146103995780638da5cb5b146103d657806395d89b4114610401578063978bbdb91461042c5780639c8f9f231461045757610156565b806328d679381161010857806328d6793814610281578063313ce567146102aa578063444aa92f146102d557806345596e2e146102f15780635f64b55b1461031a57806370a082311461034557610156565b806306fdde031461015b578063095ea7b3146101865780630fc63d10146101c357806318160ddd146101ee57806319e36f3b1461021957806323b872dd1461024457610156565b3661015657005b600080fd5b34801561016757600080fd5b506101706105a0565b60405161017d91906120ed565b60405180910390f35b34801561019257600080fd5b506101ad60048036038101906101a891906121a8565b610632565b6040516101ba9190612203565b60405180910390f35b3480156101cf57600080fd5b506101d8610655565b6040516101e5919061222d565b60405180910390f35b3480156101fa57600080fd5b5061020361067b565b6040516102109190612257565b60405180910390f35b34801561022557600080fd5b5061022e610685565b60405161023b9190612257565b60405180910390f35b34801561025057600080fd5b5061026b60048036038101906102669190612272565b61068b565b6040516102789190612203565b60405180910390f35b34801561028d57600080fd5b506102a860048036038101906102a391906122f1565b6106ba565b005b3480156102b657600080fd5b506102bf61071d565b6040516102cc919061234d565b60405180910390f35b6102ef60048036038101906102ea9190612368565b610726565b005b3480156102fd57600080fd5b5061031860048036038101906103139190612395565b610b0f565b005b34801561032657600080fd5b5061032f610b9c565b60405161033c919061222d565b60405180910390f35b34801561035157600080fd5b5061036c60048036038101906103679190612368565b610bc2565b6040516103799190612257565b60405180910390f35b34801561038e57600080fd5b50610397610c0a565b005b3480156103a557600080fd5b506103c060048036038101906103bb9190612368565b610c1e565b6040516103cd9190612203565b60405180910390f35b3480156103e257600080fd5b506103eb610c3e565b6040516103f8919061222d565b60405180910390f35b34801561040d57600080fd5b50610416610c68565b60405161042391906120ed565b60405180910390f35b34801561043857600080fd5b50610441610cfa565b60405161044e9190612257565b60405180910390f35b34801561046357600080fd5b5061047e60048036038101906104799190612395565b610d00565b005b34801561048c57600080fd5b506104a760048036038101906104a291906123c2565b610fa9565b005b3480156104b557600080fd5b506104d060048036038101906104cb9190612402565b611284565b005b3480156104de57600080fd5b506104f960048036038101906104f491906121a8565b6116a4565b6040516105069190612203565b60405180910390f35b34801561051b57600080fd5b506105246116c7565b6040516105319190612257565b60405180910390f35b34801561054657600080fd5b50610561600480360381019061055c9190612455565b6116cd565b60405161056e9190612257565b60405180910390f35b34801561058357600080fd5b5061059e60048036038101906105999190612368565b611754565b005b6060600380546105af906124c4565b80601f01602080910402602001604051908101604052809291908181526020018280546105db906124c4565b80156106285780601f106105fd57610100808354040283529160200191610628565b820191906000526020600020905b81548152906001019060200180831161060b57829003601f168201915b5050505050905090565b60008061063d6117da565b905061064a8185856117e2565b600191505092915050565b600660009054906101000a900473ffffffffffffffffffffffffffffffffffffffff1681565b6000600254905090565b60095481565b6000806106966117da565b90506106a38582856117f4565b6106ae858585611889565b60019150509392505050565b6106c261197d565b80600b60008473ffffffffffffffffffffffffffffffffffffffff1673ffffffffffffffffffffffffffffffffffffffff16815260200190815260200160002060006101000a81548160ff0219169083151502179055505050565b60006012905090565b600660009054906101000a900473ffffffffffffffffffffffffffffffffffffffff1673ffffffffffffffffffffffffffffffffffffffff168173ffffffffffffffffffffffffffffffffffffffff1614806107cf5750600760009054906101000a900473ffffffffffffffffffffffffffffffffffffffff1673ffffffffffffffffffffffffffffffffffffffff168173ffffffffffffffffffffffffffffffffffffffff16145b61080e576040517f08c379a000000000000000000000000000000000000000000000000000000000815260040161080590612541565b60405180910390fd5b6000600660009054906101000a900473ffffffffffffffffffffffffffffffffffffffff1673ffffffffffffffffffffffffffffffffffffffff168273ffffffffffffffffffffffffffffffffffffffff1614905060008161087257600854610876565b6009545b90506000826108875760095461088b565b6008545b905060008111801561089d5750600082115b6108dc576040517f08c379a00000000000000000000000000000000000000000000000000000000081526004016108d3906125ad565b60405180910390fd5b60006103e8600a546103e86108f191906125fc565b346108fc9190612630565b61090691906126a1565b90506000818461091691906126d2565b83836109229190612630565b61092c91906126a1565b905060008111610971576040517f08c379a000000000000000000000000000000000000000000000000000000000815260040161096890612752565b60405180910390fd5b84156109ae57346009600082825461098991906126d2565b9250508190555080600860008282546109a291906125fc565b925050819055506109e1565b34600860008282546109c091906126d2565b9250508190555080600960008282546109d991906125fc565b925050819055505b8573ffffffffffffffffffffffffffffffffffffffff1663a9059cbb33836040518363ffffffff1660e01b8152600401610a1c929190612772565b6020604051808303816000875af1158015610a3b573d6000803e3d6000fd5b505050506040513d601f19601f82011682018060405250810190610a5f91906127b0565b503373ffffffffffffffffffffffffffffffffffffffff167f1dbd300218e937f543e095e51a5a28974ad528e975d291bee73c9e7bb69589c2873484604051610aaa939291906127dd565b60405180910390a23373ffffffffffffffffffffffffffffffffffffffff167fcd3829a3813dc3cdd188fd3d01dcf3268c16be2fdd2dd21d0665418816e460626000883485604051610aff9493929190612814565b60405180910390a2505050505050565b610b1761197d565b6064811115610b5b576040517f08c379a0000000000000000000000000000000000000000000000000000000008152600401610b52906128a5565b60405180910390fd5b80600a819055507f6717373928cccf59cc9912055cfa8db86e7085b95c94c15862b121114aa333be81604051610b919190612257565b60405180910390a150565b600760009054906101000a900473ffffffffffffffffffffffffffffffffffffffff1681565b60008060008373ffffffffffffffffffffffffffffffffffffffff1673ffffffffffffffffffffffffffffffffffffffff168152602001908152602001600020549050919050565b610c1261197d565b610c1c6000611a04565b565b600b6020528060005260406000206000915054906101000a900460ff1681565b6000600560009054906101000a900473ffffffffffffffffffffffffffffffffffffffff16905090565b606060048054610c77906124c4565b80601f0160208091040260200160405190810160405280929190818152602001828054610ca3906124c4565b8015610cf05780601f10610cc557610100808354040283529160200191610cf0565b820191906000526020600020905b815481529060010190602001808311610cd357829003601f168201915b5050505050905090565b600a5481565b600b60003373ffffffffffffffffffffffffffffffffffffffff1673ffffffffffffffffffffffffffffffffffffffff16815260200190815260200160002060009054906101000a900460ff16610d8c576040517f08c379a0000000000000000000000000000000000000000000000000000000008152600401610d8390612911565b60405180910390fd5b6000610d9661067b565b60085483610da49190612630565b610dae91906126a1565b90506000610dba61067b565b60095484610dc89190612630565b610dd291906126a1565b9050610dde3384611aca565b8160086000828254610df091906125fc565b925050819055508060096000828254610e0991906125fc565b92505081905550600660009054906101000a900473ffffffffffffffffffffffffffffffffffffffff1673ffffffffffffffffffffffffffffffffffffffff1663a9059cbb33846040518363ffffffff1660e01b8152600401610e6d929190612772565b6020604051808303816000875af1158015610e8c573d6000803e3d6000fd5b505050506040513d601f19601f82011682018060405250810190610eb091906127b0565b50600760009054906101000a900473ffffffffffffffffffffffffffffffffffffffff1673ffffffffffffffffffffffffffffffffffffffff1663a9059cbb33836040518363ffffffff1660e01b8152600401610f0e929190612772565b6020604051808303816000875af1158015610f2d573d6000803e3d6000fd5b505050506040513d601f19601f82011682018060405250810190610f5191906127b0565b503373ffffffffffffffffffffffffffffffffffffffff167f59c3a0b60c6ab7deb62e1440c9e72441db6db7dfe514dba8cb18e60c0d896efa838386604051610f9c93929190612931565b60405180910390a2505050565b600b60003373ffffffffffffffffffffffffffffffffffffffff1673ffffffffffffffffffffffffffffffffffffffff16815260200190815260200160002060009054906101000a900460ff16611035576040517f08c379a000000000000000000000000000000000000000000000000000000000815260040161102c90612911565b60405180910390fd5b600660009054906101000a900473ffffffffffffffffffffffffffffffffffffffff1673ffffffffffffffffffffffffffffffffffffffff166323b872dd3330856040518463ffffffff1660e01b815260040161109493929190612968565b6020604051808303816000875af11580156110b3573d6000803e3d6000fd5b505050506040513d601f19601f820116820180604052508101906110d791906127b0565b50600760009054906101000a900473ffffffffffffffffffffffffffffffffffffffff1673ffffffffffffffffffffffffffffffffffffffff166323b872dd3330846040518463ffffffff1660e01b815260040161113793929190612968565b6020604051808303816000875af1158015611156573d6000803e3d6000fd5b505050506040513d601f19601f8201168201806040525081019061117a91906127b0565b5060008061118661067b565b036111a65761119f828461119a9190612630565b611b4c565b90506111f1565b6111ee6008546111b461067b565b856111bf9190612630565b6111c991906126a1565b6009546111d461067b565b856111df9190612630565b6111e991906126a1565b611bc6565b90505b6111fb3382611bdf565b826008600082825461120d91906126d2565b92505081905550816009600082825461122691906126d2565b925050819055503373ffffffffffffffffffffffffffffffffffffffff167fbeb3885786d637a474cbc287c0a44587231633a077f0bd30354d5a4b18996fce84848460405161127793929190612931565b60405180910390a2505050565b600660009054906101000a900473ffffffffffffffffffffffffffffffffffffffff1673ffffffffffffffffffffffffffffffffffffffff168373ffffffffffffffffffffffffffffffffffffffff16148061132d5750600760009054906101000a900473ffffffffffffffffffffffffffffffffffffffff1673ffffffffffffffffffffffffffffffffffffffff168373ffffffffffffffffffffffffffffffffffffffff16145b61136c576040517f08c379a000000000000000000000000000000000000000000000000000000000815260040161136390612541565b60405180910390fd5b6000600660009054906101000a900473ffffffffffffffffffffffffffffffffffffffff1673ffffffffffffffffffffffffffffffffffffffff168473ffffffffffffffffffffffffffffffffffffffff161490506000816113f057600660009054906101000a900473ffffffffffffffffffffffffffffffffffffffff16611414565b600760009054906101000a900473ffffffffffffffffffffffffffffffffffffffff165b905060008261142557600954611429565b6008545b905060008361143a5760085461143e565b6009545b90508673ffffffffffffffffffffffffffffffffffffffff166323b872dd3330896040518463ffffffff1660e01b815260040161147d93929190612968565b6020604051808303816000875af115801561149c573d6000803e3d6000fd5b505050506040513d601f19601f820116820180604052508101906114c091906127b0565b5060006103e8600a546103e86114d691906125fc565b886114e19190612630565b6114eb91906126a1565b9050600081846114fb91906126d2565b83836115079190612630565b61151191906126a1565b905086811015611556576040517f08c379a000000000000000000000000000000000000000000000000000000000815260040161154d906129eb565b60405180910390fd5b8473ffffffffffffffffffffffffffffffffffffffff1663a9059cbb33836040518363ffffffff1660e01b8152600401611591929190612772565b6020604051808303816000875af11580156115b0573d6000803e3d6000fd5b505050506040513d601f19601f820116820180604052508101906115d491906127b0565b5085156116125787600860008282546115ed91906126d2565b92505081905550806009600082825461160691906125fc565b92505081905550611645565b876009600082825461162491906126d2565b92505081905550806008600082825461163d91906125fc565b925050819055505b3373ffffffffffffffffffffffffffffffffffffffff167fcd3829a3813dc3cdd188fd3d01dcf3268c16be2fdd2dd21d0665418816e460628a878b856040516116919493929190612814565b60405180910390a2505050505050505050565b6000806116af6117da565b90506116bc818585611889565b600191505092915050565b60085481565b6000600160008473ffffffffffffffffffffffffffffffffffffffff1673ffffffffffffffffffffffffffffffffffffffff16815260200190815260200160002060008373ffffffffffffffffffffffffffffffffffffffff1673ffffffffffffffffffffffffffffffffffffffff16815260200190815260200160002054905092915050565b61175c61197d565b600073ffffffffffffffffffffffffffffffffffffffff168173ffffffffffffffffffffffffffffffffffffffff16036117ce5760006040517f1e4fbdf70000000000000000000000000000000000000000000000000000000081526004016117c5919061222d565b60405180910390fd5b6117d781611a04565b50565b600033905090565b6117ef8383836001611c61565b505050565b600061180084846116cd565b90507fffffffffffffffffffffffffffffffffffffffffffffffffffffffffffffffff8110156118835781811015611873578281836040517ffb8f41b200000000000000000000000000000000000000000000000000000000815260040161186a939291906127dd565b60405180910390fd5b61188284848484036000611c61565b5b50505050565b600073ffffffffffffffffffffffffffffffffffffffff168373ffffffffffffffffffffffffffffffffffffffff16036118fb5760006040517f96c6fd1e0000000000000000000000000000000000000000000000000000000081526004016118f2919061222d565b60405180910390fd5b600073ffffffffffffffffffffffffffffffffffffffff168273ffffffffffffffffffffffffffffffffffffffff160361196d5760006040517fec442f05000000000000000000000000000000000000000000000000000000008152600401611964919061222d565b60405180910390fd5b611978838383611e38565b505050565b6119856117da565b73ffffffffffffffffffffffffffffffffffffffff166119a3610c3e565b73ffffffffffffffffffffffffffffffffffffffff1614611a02576119c66117da565b6040517f118cdaa70000000000000000000000000000000000000000000000000000000081526004016119f9919061222d565b60405180910390fd5b565b6000600560009054906101000a900473ffffffffffffffffffffffffffffffffffffffff16905081600560006101000a81548173ffffffffffffffffffffffffffffffffffffffff021916908373ffffffffffffffffffffffffffffffffffffffff1602179055508173ffffffffffffffffffffffffffffffffffffffff168173ffffffffffffffffffffffffffffffffffffffff167f8be0079c531659141344cd1fd0a4f28419497f9722a3daafe3b4186f6b6457e060405160405180910390a35050565b600073ffffffffffffffffffffffffffffffffffffffff168273ffffffffffffffffffffffffffffffffffffffff1603611b3c5760006040517f96c6fd1e000000000000000000000000000000000000000000000000000000008152600401611b33919061222d565b60405180910390fd5b611b4882600083611e38565b5050565b60006003821115611bb35781905060006001600284611b6b91906126a1565b611b7591906126d2565b90505b81811015611bad578091506002818285611b9291906126a1565b611b9c91906126d2565b611ba691906126a1565b9050611b78565b50611bc1565b60008214611bc057600190505b5b919050565b6000818310611bd55781611bd7565b825b905092915050565b600073ffffffffffffffffffffffffffffffffffffffff168273ffffffffffffffffffffffffffffffffffffffff1603611c515760006040517fec442f05000000000000000000000000000000000000000000000000000000008152600401611c48919061222d565b60405180910390fd5b611c5d60008383611e38565b5050565b600073ffffffffffffffffffffffffffffffffffffffff168473ffffffffffffffffffffffffffffffffffffffff1603611cd35760006040517fe602df05000000000000000000000000000000000000000000000000000000008152600401611cca919061222d565b60405180910390fd5b600073ffffffffffffffffffffffffffffffffffffffff168373ffffffffffffffffffffffffffffffffffffffff1603611d455760006040517f94280d62000000000000000000000000000000000000000000000000000000008152600401611d3c919061222d565b60405180910390fd5b81600160008673ffffffffffffffffffffffffffffffffffffffff1673ffffffffffffffffffffffffffffffffffffffff16815260200190815260200160002060008573ffffffffffffffffffffffffffffffffffffffff1673ffffffffffffffffffffffffffffffffffffffff168152602001908152602001600020819055508015611e32578273ffffffffffffffffffffffffffffffffffffffff168473ffffffffffffffffffffffffffffffffffffffff167f8c5be1e5ebec7d5bd14f71427d1e84f3dd0314c0f7b2291e5b200ac8c7c3b92584604051611e299190612257565b60405180910390a35b50505050565b600073ffffffffffffffffffffffffffffffffffffffff168373ffffffffffffffffffffffffffffffffffffffff1603611e8a578060026000828254611e7e91906126d2565b92505081905550611f5d565b60008060008573ffffffffffffffffffffffffffffffffffffffff1673ffffffffffffffffffffffffffffffffffffffff16815260200190815260200160002054905081811015611f16578381836040517fe450d38c000000000000000000000000000000000000000000000000000000008152600401611f0d939291906127dd565b60405180910390fd5b8181036000808673ffffffffffffffffffffffffffffffffffffffff1673ffffffffffffffffffffffffffffffffffffffff16815260200190815260200160002081905550505b600073ffffffffffffffffffffffffffffffffffffffff168273ffffffffffffffffffffffffffffffffffffffff1603611fa65780600260008282540392505081905550611ff3565b806000808473ffffffffffffffffffffffffffffffffffffffff1673ffffffffffffffffffffffffffffffffffffffff168152602001908152602001600020600082825401925050819055505b8173ffffffffffffffffffffffffffffffffffffffff168373ffffffffffffffffffffffffffffffffffffffff167fddf252ad1be2c89b69c2b068fc378daa952ba7f163c4a11628f55a4df523b3ef836040516120509190612257565b60405180910390a3505050565b600081519050919050565b600082825260208201905092915050565b60005b8381101561209757808201518184015260208101905061207c565b60008484015250505050565b6000601f19601f8301169050919050565b60006120bf8261205d565b6120c98185612068565b93506120d9818560208601612079565b6120e2816120a3565b840191505092915050565b6000602082019050818103600083015261210781846120b4565b905092915050565b600080fd5b600073ffffffffffffffffffffffffffffffffffffffff82169050919050565b600061213f82612114565b9050919050565b61214f81612134565b811461215a57600080fd5b50565b60008135905061216c81612146565b92915050565b6000819050919050565b61218581612172565b811461219057600080fd5b50565b6000813590506121a28161217c565b92915050565b600080604083850312156121bf576121be61210f565b5b60006121cd8582860161215d565b92505060206121de85828601612193565b9150509250929050565b60008115159050919050565b6121fd816121e8565b82525050565b600060208201905061221860008301846121f4565b92915050565b61222781612134565b82525050565b6000602082019050612242600083018461221e565b92915050565b61225181612172565b82525050565b600060208201905061226c6000830184612248565b92915050565b60008060006060848603121561228b5761228a61210f565b5b60006122998682870161215d565b93505060206122aa8682870161215d565b92505060406122bb86828701612193565b9150509250925092565b6122ce816121e8565b81146122d957600080fd5b50565b6000813590506122eb816122c5565b92915050565b600080604083850312156123085761230761210f565b5b60006123168582860161215d565b9250506020612327858286016122dc565b9150509250929050565b600060ff82169050919050565b61234781612331565b82525050565b6000602082019050612362600083018461233e565b92915050565b60006020828403121561237e5761237d61210f565b5b600061238c8482850161215d565b91505092915050565b6000602082840312156123ab576123aa61210f565b5b60006123b984828501612193565b91505092915050565b600080604083850312156123d9576123d861210f565b5b60006123e785828601612193565b92505060206123f885828601612193565b9150509250929050565b60008060006060848603121561241b5761241a61210f565b5b60006124298682870161215d565b935050602061243a86828701612193565b925050604061244b86828701612193565b9150509250925092565b6000806040838503121561246c5761246b61210f565b5b600061247a8582860161215d565b925050602061248b8582860161215d565b9150509250929050565b7f4e487b7100000000000000000000000000000000000000000000000000000000600052602260045260246000fd5b600060028204905060018216806124dc57607f821691505b6020821081036124ef576124ee612495565b5b50919050565b7f496e76616c696420746f6b656e00000000000000000000000000000000000000600082015250565b600061252b600d83612068565b9150612536826124f5565b602082019050919050565b6000602082019050818103600083015261255a8161251e565b9050919050565b7f456d70747920706f6f6c00000000000000000000000000000000000000000000600082015250565b6000612597600a83612068565b91506125a282612561565b602082019050919050565b600060208201905081810360008301526125c68161258a565b9050919050565b7f4e487b7100000000000000000000000000000000000000000000000000000000600052601160045260246000fd5b600061260782612172565b915061261283612172565b925082820390508181111561262a576126296125cd565b5b92915050565b600061263b82612172565b915061264683612172565b925082820261265481612172565b9150828204841483151761266b5761266a6125cd565b5b5092915050565b7f4e487b7100000000000000000000000000000000000000000000000000000000600052601260045260246000fd5b60006126ac82612172565b91506126b783612172565b9250826126c7576126c6612672565b5b828204905092915050565b60006126dd82612172565b91506126e883612172565b9250828201905080821115612700576126ff6125cd565b5b92915050565b7f496e73756666696369656e74206f757470757400000000000000000000000000600082015250565b600061273c601383612068565b915061274782612706565b602082019050919050565b6000602082019050818103600083015261276b8161272f565b9050919050565b6000604082019050612787600083018561221e565b6127946020830184612248565b9392505050565b6000815190506127aa816122c5565b92915050565b6000602082840312156127c6576127c561210f565b5b60006127d48482850161279b565b91505092915050565b60006060820190506127f2600083018661221e565b6127ff6020830185612248565b61280c6040830184612248565b949350505050565b6000608082019050612829600083018761221e565b612836602083018661221e565b6128436040830185612248565b6128506060830184612248565b95945050505050565b7f546f6f2068696768000000000000000000000000000000000000000000000000600082015250565b600061288f600883612068565b915061289a82612859565b602082019050919050565b600060208201905081810360008301526128be81612882565b9050919050565b7f4e6f7420616c6c6f7765643a204e6f74204c5000000000000000000000000000600082015250565b60006128fb601383612068565b9150612906826128c5565b602082019050919050565b6000602082019050818103600083015261292a816128ee565b9050919050565b60006060820190506129466000830186612248565b6129536020830185612248565b6129606040830184612248565b949350505050565b600060608201905061297d600083018661221e565b61298a602083018561221e565b6129976040830184612248565b949350505050565b7f536c69707061676520746f6f2068696768000000000000000000000000000000600082015250565b60006129d5601183612068565b91506129e08261299f565b602082019050919050565b60006020820190508181036000830152612a04816129c8565b905091905056fea26469706673582212205bbc70d9144c673a8e6413f16ceed95f6e4e0b1a7d344476b808f239daa1229264736f6c634300081c0033","opcodes":"PUSH1 0x80 PUSH1 0x40 MSTORE PUSH1 0x3 PUSH1 0xA SSTORE CALLVALUE DUP1 ISZERO PUSH2 0x15 JUMPI PUSH1 0x0 DUP1 REVERT JUMPDEST POP PUSH1 0x40 MLOAD PUSH2 0x30D6 CODESIZE SUB DUP1 PUSH2 0x30D6 DUP4 CODECOPY DUP2 DUP2 ADD PUSH1 0x40 MSTORE DUP2 ADD SWAP1 PUSH2 0x37 SWAP2 SWAP1 PUSH2 0x2FA JUMP JUMPDEST CALLER PUSH1 0x40 MLOAD DUP1 PUSH1 0x40 ADD PUSH1 0x40 MSTORE DUP1 PUSH1 0x8 DUP2 MSTORE PUSH1 0x20 ADD PUSH32 0x4C5020546F6B656E000000000000000000000000000000000000000000000000 DUP2 MSTORE POP PUSH1 0x40 MLOAD DUP1 PUSH1 0x40 ADD PUSH1 0x40 MSTORE DUP1 PUSH1 0x3 DUP2 MSTORE PUSH1 0x20 ADD PUSH32 0x4C50540000000000000000000000000000000000000000000000000000000000 DUP2 MSTORE POP DUP2 PUSH1 0x3 SWAP1 DUP2 PUSH2 0xB3 SWAP2 SWAP1 PUSH2 0x58A JUMP JUMPDEST POP DUP1 PUSH1 0x4 SWAP1 DUP2 PUSH2 0xC3 SWAP2 SWAP1 PUSH2 0x58A JUMP JUMPDEST POP POP POP PUSH1 0x0 PUSH20 0xFFFFFFFFFFFFFFFFFFFFFFFFFFFFFFFFFFFFFFFF AND DUP2 PUSH20 0xFFFFFFFFFFFFFFFFFFFFFFFFFFFFFFFFFFFFFFFF AND SUB PUSH2 0x138 JUMPI PUSH1 0x0 PUSH1 0x40 MLOAD PUSH32 0x1E4FBDF700000000000000000000000000000000000000000000000000000000 DUP2 MSTORE PUSH1 0x4 ADD PUSH2 0x12F SWAP2 SWAP1 PUSH2 0x66B JUMP JUMPDEST PUSH1 0x40 MLOAD DUP1 SWAP2 SUB SWAP1 REVERT JUMPDEST PUSH2 0x147 DUP2 PUSH2 0x1D1 PUSH1 0x20 SHL PUSH1 0x20 SHR JUMP JUMPDEST POP DUP2 PUSH1 0x6 PUSH1 0x0 PUSH2 0x100 EXP DUP2 SLOAD DUP2 PUSH20 0xFFFFFFFFFFFFFFFFFFFFFFFFFFFFFFFFFFFFFFFF MUL NOT AND SWAP1 DUP4 PUSH20 0xFFFFFFFFFFFFFFFFFFFFFFFFFFFFFFFFFFFFFFFF AND MUL OR SWAP1 SSTORE POP DUP1 PUSH1 0x7 PUSH1 0x0 PUSH2 0x100 EXP DUP2 SLOAD DUP2 PUSH20 0xFFFFFFFFFFFFFFFFFFFFFFFFFFFFFFFFFFFFFFFF MUL NOT AND SWAP1 DUP4 PUSH20 0xFFFFFFFFFFFFFFFFFFFFFFFFFFFFFFFFFFFFFFFF AND MUL OR SWAP1 SSTORE POP POP POP PUSH2 0x686 JUMP JUMPDEST PUSH1 0x0 PUSH1 0x5 PUSH1 0x0 SWAP1 SLOAD SWAP1 PUSH2 0x100 EXP SWAP1 DIV PUSH20 0xFFFFFFFFFFFFFFFFFFFFFFFFFFFFFFFFFFFFFFFF AND SWAP1 POP DUP2 PUSH1 0x5 PUSH1 0x0 PUSH2 0x100 EXP DUP2 SLOAD DUP2 PUSH20 0xFFFFFFFFFFFFFFFFFFFFFFFFFFFFFFFFFFFFFFFF MUL NOT AND SWAP1 DUP4 PUSH20 0xFFFFFFFFFFFFFFFFFFFFFFFFFFFFFFFFFFFFFFFF AND MUL OR SWAP1 SSTORE POP DUP2 PUSH20 0xFFFFFFFFFFFFFFFFFFFFFFFFFFFFFFFFFFFFFFFF AND DUP2 PUSH20 0xFFFFFFFFFFFFFFFFFFFFFFFFFFFFFFFFFFFFFFFF AND PUSH32 0x8BE0079C531659141344CD1FD0A4F28419497F9722A3DAAFE3B4186F6B6457E0 PUSH1 0x40 MLOAD PUSH1 0x40 MLOAD DUP1 SWAP2 SUB SWAP1 LOG3 POP POP JUMP JUMPDEST PUSH1 0x0 DUP1 REVERT JUMPDEST PUSH1 0x0 PUSH20 0xFFFFFFFFFFFFFFFFFFFFFFFFFFFFFFFFFFFFFFFF DUP3 AND SWAP1 POP SWAP2 SWAP1 POP JUMP JUMPDEST PUSH1 0x0 PUSH2 0x2C7 DUP3 PUSH2 0x29C JUMP JUMPDEST SWAP1 POP SWAP2 SWAP1 POP JUMP JUMPDEST PUSH2 0x2D7 DUP2 PUSH2 0x2BC JUMP JUMPDEST DUP2 EQ PUSH2 0x2E2 JUMPI PUSH1 0x0 DUP1 REVERT JUMPDEST POP JUMP JUMPDEST PUSH1 0x0 DUP2 MLOAD SWAP1 POP PUSH2 0x2F4 DUP2 PUSH2 0x2CE JUMP JUMPDEST SWAP3 SWAP2 POP POP JUMP JUMPDEST PUSH1 0x0 DUP1 PUSH1 0x40 DUP4 DUP6 SUB SLT ISZERO PUSH2 0x311 JUMPI PUSH2 0x310 PUSH2 0x297 JUMP JUMPDEST JUMPDEST PUSH1 0x0 PUSH2 0x31F DUP6 DUP3 DUP7 ADD PUSH2 0x2E5 JUMP JUMPDEST SWAP3 POP POP PUSH1 0x20 PUSH2 0x330 DUP6 DUP3 DUP7 ADD PUSH2 0x2E5 JUMP JUMPDEST SWAP2 POP POP SWAP3 POP SWAP3 SWAP1 POP JUMP JUMPDEST PUSH1 0x0 DUP2 MLOAD SWAP1 POP SWAP2 SWAP1 POP JUMP JUMPDEST PUSH32 0x4E487B7100000000000000000000000000000000000000000000000000000000 PUSH1 0x0 MSTORE PUSH1 0x41 PUSH1 0x4 MSTORE PUSH1 0x24 PUSH1 0x0 REVERT JUMPDEST PUSH32 0x4E487B7100000000000000000000000000000000000000000000000000000000 PUSH1 0x0 MSTORE PUSH1 0x22 PUSH1 0x4 MSTORE PUSH1 0x24 PUSH1 0x0 REVERT JUMPDEST PUSH1 0x0 PUSH1 0x2 DUP3 DIV SWAP1 POP PUSH1 0x1 DUP3 AND DUP1 PUSH2 0x3BB JUMPI PUSH1 0x7F DUP3 AND SWAP2 POP JUMPDEST PUSH1 0x20 DUP3 LT DUP2 SUB PUSH2 0x3CE JUMPI PUSH2 0x3CD PUSH2 0x374 JUMP JUMPDEST JUMPDEST POP SWAP2 SWAP1 POP JUMP JUMPDEST PUSH1 0x0 DUP2 SWAP1 POP DUP2 PUSH1 0x0 MSTORE PUSH1 0x20 PUSH1 0x0 KECCAK256 SWAP1 POP SWAP2 SWAP1 POP JUMP JUMPDEST PUSH1 0x0 PUSH1 0x20 PUSH1 0x1F DUP4 ADD DIV SWAP1 POP SWAP2 SWAP1 POP JUMP JUMPDEST PUSH1 0x0 DUP3 DUP3 SHL SWAP1 POP SWAP3 SWAP2 POP POP JUMP JUMPDEST PUSH1 0x0 PUSH1 0x8 DUP4 MUL PUSH2 0x436 PUSH32 0xFFFFFFFFFFFFFFFFFFFFFFFFFFFFFFFFFFFFFFFFFFFFFFFFFFFFFFFFFFFFFFFF DUP3 PUSH2 0x3F9 JUMP JUMPDEST PUSH2 0x440 DUP7 DUP4 PUSH2 0x3F9 JUMP JUMPDEST SWAP6 POP DUP1 NOT DUP5 AND SWAP4 POP DUP1 DUP7 AND DUP5 OR SWAP3 POP POP POP SWAP4 SWAP3 POP POP POP JUMP JUMPDEST PUSH1 0x0 DUP2 SWAP1 POP SWAP2 SWAP1 POP JUMP JUMPDEST PUSH1 0x0 DUP2 SWAP1 POP SWAP2 SWAP1 POP JUMP JUMPDEST PUSH1 0x0 PUSH2 0x487 PUSH2 0x482 PUSH2 0x47D DUP5 PUSH2 0x458 JUMP JUMPDEST PUSH2 0x462 JUMP JUMPDEST PUSH2 0x458 JUMP JUMPDEST SWAP1 POP SWAP2 SWAP1 POP JUMP JUMPDEST PUSH1 0x0 DUP2 SWAP1 POP SWAP2 SWAP1 POP JUMP JUMPDEST PUSH2 0x4A1 DUP4 PUSH2 0x46C JUMP JUMPDEST PUSH2 0x4B5 PUSH2 0x4AD DUP3 PUSH2 0x48E JUMP JUMPDEST DUP5 DUP5 SLOAD PUSH2 0x406 JUMP JUMPDEST DUP3 SSTORE POP POP POP POP JUMP JUMPDEST PUSH1 0x0 SWAP1 JUMP JUMPDEST PUSH2 0x4CA PUSH2 0x4BD JUMP JUMPDEST PUSH2 0x4D5 DUP2 DUP5 DUP5 PUSH2 0x498 JUMP JUMPDEST POP POP POP JUMP JUMPDEST JUMPDEST DUP2 DUP2 LT ISZERO PUSH2 0x4F9 JUMPI PUSH2 0x4EE PUSH1 0x0 DUP3 PUSH2 0x4C2 JUMP JUMPDEST PUSH1 0x1 DUP2 ADD SWAP1 POP PUSH2 0x4DB JUMP JUMPDEST POP POP JUMP JUMPDEST PUSH1 0x1F DUP3 GT ISZERO PUSH2 0x53E JUMPI PUSH2 0x50F DUP2 PUSH2 0x3D4 JUMP JUMPDEST PUSH2 0x518 DUP5 PUSH2 0x3E9 JUMP JUMPDEST DUP2 ADD PUSH1 0x20 DUP6 LT ISZERO PUSH2 0x527 JUMPI DUP2 SWAP1 POP JUMPDEST PUSH2 0x53B PUSH2 0x533 DUP6 PUSH2 0x3E9 JUMP JUMPDEST DUP4 ADD DUP3 PUSH2 0x4DA JUMP JUMPDEST POP POP JUMPDEST POP POP POP JUMP JUMPDEST PUSH1 0x0 DUP3 DUP3 SHR SWAP1 POP SWAP3 SWAP2 POP POP JUMP JUMPDEST PUSH1 0x0 PUSH2 0x561 PUSH1 0x0 NOT DUP5 PUSH1 0x8 MUL PUSH2 0x543 JUMP JUMPDEST NOT DUP1 DUP4 AND SWAP2 POP POP SWAP3 SWAP2 POP POP JUMP JUMPDEST PUSH1 0x0 PUSH2 0x57A DUP4 DUP4 PUSH2 0x550 JUMP JUMPDEST SWAP2 POP DUP3 PUSH1 0x2 MUL DUP3 OR SWAP1 POP SWAP3 SWAP2 POP POP JUMP JUMPDEST PUSH2 0x593 DUP3 PUSH2 0x33A JUMP JUMPDEST PUSH8 0xFFFFFFFFFFFFFFFF DUP2 GT ISZERO PUSH2 0x5AC JUMPI PUSH2 0x5AB PUSH2 0x345 JUMP JUMPDEST JUMPDEST PUSH2 0x5B6 DUP3 SLOAD PUSH2 0x3A3 JUMP JUMPDEST PUSH2 0x5C1 DUP3 DUP3 DUP6 PUSH2 0x4FD JUMP JUMPDEST PUSH1 0x0 PUSH1 0x20 SWAP1 POP PUSH1 0x1F DUP4 GT PUSH1 0x1 DUP2 EQ PUSH2 0x5F4 JUMPI PUSH1 0x0 DUP5 ISZERO PUSH2 0x5E2 JUMPI DUP3 DUP8 ADD MLOAD SWAP1 POP JUMPDEST PUSH2 0x5EC DUP6 DUP3 PUSH2 0x56E JUMP JUMPDEST DUP7 SSTORE POP PUSH2 0x654 JUMP JUMPDEST PUSH1 0x1F NOT DUP5 AND PUSH2 0x602 DUP7 PUSH2 0x3D4 JUMP JUMPDEST PUSH1 0x0 JUMPDEST DUP3 DUP2 LT ISZERO PUSH2 0x62A JUMPI DUP5 DUP10 ADD MLOAD DUP3 SSTORE PUSH1 0x1 DUP3 ADD SWAP2 POP PUSH1 0x20 DUP6 ADD SWAP5 POP PUSH1 0x20 DUP2 ADD SWAP1 POP PUSH2 0x605 JUMP JUMPDEST DUP7 DUP4 LT ISZERO PUSH2 0x647 JUMPI DUP5 DUP10 ADD MLOAD PUSH2 0x643 PUSH1 0x1F DUP10 AND DUP3 PUSH2 0x550 JUMP JUMPDEST DUP4 SSTORE POP JUMPDEST PUSH1 0x1 PUSH1 0x2 DUP9 MUL ADD DUP9 SSTORE POP POP POP JUMPDEST POP POP POP POP POP POP JUMP JUMPDEST PUSH2 0x665 DUP2 PUSH2 0x2BC JUMP JUMPDEST DUP3 MSTORE POP POP JUMP JUMPDEST PUSH1 0x0 PUSH1 0x20 DUP3 ADD SWAP1 POP PUSH2 0x680 PUSH1 0x0 DUP4 ADD DUP5 PUSH2 0x65C JUMP JUMPDEST SWAP3 SWAP2 POP POP JUMP JUMPDEST PUSH2 0x2A41 DUP1 PUSH2 0x695 PUSH1 0x0 CODECOPY PUSH1 0x0 RETURN INVALID PUSH1 0x80 PUSH1 0x40 MSTORE PUSH1 0x4 CALLDATASIZE LT PUSH2 0x14F JUMPI PUSH1 0x0 CALLDATALOAD PUSH1 0xE0 SHR DUP1 PUSH4 0x715018A6 GT PUSH2 0xB6 JUMPI DUP1 PUSH4 0x9CD441DA GT PUSH2 0x6F JUMPI DUP1 PUSH4 0x9CD441DA EQ PUSH2 0x480 JUMPI DUP1 PUSH4 0x9F1D0F59 EQ PUSH2 0x4A9 JUMPI DUP1 PUSH4 0xA9059CBB EQ PUSH2 0x4D2 JUMPI DUP1 PUSH4 0xDC5FA6C5 EQ PUSH2 0x50F JUMPI DUP1 PUSH4 0xDD62ED3E EQ PUSH2 0x53A JUMPI DUP1 PUSH4 0xF2FDE38B EQ PUSH2 0x577 JUMPI PUSH2 0x156 JUMP JUMPDEST DUP1 PUSH4 0x715018A6 EQ PUSH2 0x382 JUMPI DUP1 PUSH4 0x7DF0F767 EQ PUSH2 0x399 JUMPI DUP1 PUSH4 0x8DA5CB5B EQ PUSH2 0x3D6 JUMPI DUP1 PUSH4 0x95D89B41 EQ PUSH2 0x401 JUMPI DUP1 PUSH4 0x978BBDB9 EQ PUSH2 0x42C JUMPI DUP1 PUSH4 0x9C8F9F23 EQ PUSH2 0x457 JUMPI PUSH2 0x156 JUMP JUMPDEST DUP1 PUSH4 0x28D67938 GT PUSH2 0x108 JUMPI DUP1 PUSH4 0x28D67938 EQ PUSH2 0x281 JUMPI DUP1 PUSH4 0x313CE567 EQ PUSH2 0x2AA JUMPI DUP1 PUSH4 0x444AA92F EQ PUSH2 0x2D5 JUMPI DUP1 PUSH4 0x45596E2E EQ PUSH2 0x2F1 JUMPI DUP1 PUSH4 0x5F64B55B EQ PUSH2 0x31A JUMPI DUP1 PUSH4 0x70A08231 EQ PUSH2 0x345 JUMPI PUSH2 0x156 JUMP JUMPDEST DUP1 PUSH4 0x6FDDE03 EQ PUSH2 0x15B JUMPI DUP1 PUSH4 0x95EA7B3 EQ PUSH2 0x186 JUMPI DUP1 PUSH4 0xFC63D10 EQ PUSH2 0x1C3 JUMPI DUP1 PUSH4 0x18160DDD EQ PUSH2 0x1EE JUMPI DUP1 PUSH4 0x19E36F3B EQ PUSH2 0x219 JUMPI DUP1 PUSH4 0x23B872DD EQ PUSH2 0x244 JUMPI PUSH2 0x156 JUMP JUMPDEST CALLDATASIZE PUSH2 0x156 JUMPI STOP JUMPDEST PUSH1 0x0 DUP1 REVERT JUMPDEST CALLVALUE DUP1 ISZERO PUSH2 0x167 JUMPI PUSH1 0x0 DUP1 REVERT JUMPDEST POP PUSH2 0x170 PUSH2 0x5A0 JUMP JUMPDEST PUSH1 0x40 MLOAD PUSH2 0x17D SWAP2 SWAP1 PUSH2 0x20ED JUMP JUMPDEST PUSH1 0x40 MLOAD DUP1 SWAP2 SUB SWAP1 RETURN JUMPDEST CALLVALUE DUP1 ISZERO PUSH2 0x192 JUMPI PUSH1 0x0 DUP1 REVERT JUMPDEST POP PUSH2 0x1AD PUSH1 0x4 DUP1 CALLDATASIZE SUB DUP2 ADD SWAP1 PUSH2 0x1A8 SWAP2 SWAP1 PUSH2 0x21A8 JUMP JUMPDEST PUSH2 0x632 JUMP JUMPDEST PUSH1 0x40 MLOAD PUSH2 0x1BA SWAP2 SWAP1 PUSH2 0x2203 JUMP JUMPDEST PUSH1 0x40 MLOAD DUP1 SWAP2 SUB SWAP1 RETURN JUMPDEST CALLVALUE DUP1 ISZERO PUSH2 0x1CF JUMPI PUSH1 0x0 DUP1 REVERT JUMPDEST POP PUSH2 0x1D8 PUSH2 0x655 JUMP JUMPDEST PUSH1 0x40 MLOAD PUSH2 0x1E5 SWAP2 SWAP1 PUSH2 0x222D JUMP JUMPDEST PUSH1 0x40 MLOAD DUP1 SWAP2 SUB SWAP1 RETURN JUMPDEST CALLVALUE DUP1 ISZERO PUSH2 0x1FA JUMPI PUSH1 0x0 DUP1 REVERT JUMPDEST POP PUSH2 0x203 PUSH2 0x67B JUMP JUMPDEST PUSH1 0x40 MLOAD PUSH2 0x210 SWAP2 SWAP1 PUSH2 0x2257 JUMP JUMPDEST PUSH1 0x40 MLOAD DUP1 SWAP2 SUB SWAP1 RETURN JUMPDEST CALLVALUE DUP1 ISZERO PUSH2 0x225 JUMPI PUSH1 0x0 DUP1 REVERT JUMPDEST POP PUSH2 0x22E PUSH2 0x685 JUMP JUMPDEST PUSH1 0x40 MLOAD PUSH2 0x23B SWAP2 SWAP1 PUSH2 0x2257 JUMP JUMPDEST PUSH1 0x40 MLOAD DUP1 SWAP2 SUB SWAP1 RETURN JUMPDEST CALLVALUE DUP1 ISZERO PUSH2 0x250 JUMPI PUSH1 0x0 DUP1 REVERT JUMPDEST POP PUSH2 0x26B PUSH1 0x4 DUP1 CALLDATASIZE SUB DUP2 ADD SWAP1 PUSH2 0x266 SWAP2 SWAP1 PUSH2 0x2272 JUMP JUMPDEST PUSH2 0x68B JUMP JUMPDEST PUSH1 0x40 MLOAD PUSH2 0x278 SWAP2 SWAP1 PUSH2 0x2203 JUMP JUMPDEST PUSH1 0x40 MLOAD DUP1 SWAP2 SUB SWAP1 RETURN JUMPDEST CALLVALUE DUP1 ISZERO PUSH2 0x28D JUMPI PUSH1 0x0 DUP1 REVERT JUMPDEST POP PUSH2 0x2A8 PUSH1 0x4 DUP1 CALLDATASIZE SUB DUP2 ADD SWAP1 PUSH2 0x2A3 SWAP2 SWAP1 PUSH2 0x22F1 JUMP JUMPDEST PUSH2 0x6BA JUMP JUMPDEST STOP JUMPDEST CALLVALUE DUP1 ISZERO PUSH2 0x2B6 JUMPI PUSH1 0x0 DUP1 REVERT JUMPDEST POP PUSH2 0x2BF PUSH2 0x71D JUMP JUMPDEST PUSH1 0x40 MLOAD PUSH2 0x2CC SWAP2 SWAP1 PUSH2 0x234D JUMP JUMPDEST PUSH1 0x40 MLOAD DUP1 SWAP2 SUB SWAP1 RETURN JUMPDEST PUSH2 0x2EF PUSH1 0x4 DUP1 CALLDATASIZE SUB DUP2 ADD SWAP1 PUSH2 0x2EA SWAP2 SWAP1 PUSH2 0x2368 JUMP JUMPDEST PUSH2 0x726 JUMP JUMPDEST STOP JUMPDEST CALLVALUE DUP1 ISZERO PUSH2 0x2FD JUMPI PUSH1 0x0 DUP1 REVERT JUMPDEST POP PUSH2 0x318 PUSH1 0x4 DUP1 CALLDATASIZE SUB DUP2 ADD SWAP1 PUSH2 0x313 SWAP2 SWAP1 PUSH2 0x2395 JUMP JUMPDEST PUSH2 0xB0F JUMP JUMPDEST STOP JUMPDEST CALLVALUE DUP1 ISZERO PUSH2 0x326 JUMPI PUSH1 0x0 DUP1 REVERT JUMPDEST POP PUSH2 0x32F PUSH2 0xB9C JUMP JUMPDEST PUSH1 0x40 MLOAD PUSH2 0x33C SWAP2 SWAP1 PUSH2 0x222D JUMP JUMPDEST PUSH1 0x40 MLOAD DUP1 SWAP2 SUB SWAP1 RETURN JUMPDEST CALLVALUE DUP1 ISZERO PUSH2 0x351 JUMPI PUSH1 0x0 DUP1 REVERT JUMPDEST POP PUSH2 0x36C PUSH1 0x4 DUP1 CALLDATASIZE SUB DUP2 ADD SWAP1 PUSH2 0x367 SWAP2 SWAP1 PUSH2 0x2368 JUMP JUMPDEST PUSH2 0xBC2 JUMP JUMPDEST PUSH1 0x40 MLOAD PUSH2 0x379 SWAP2 SWAP1 PUSH2 0x2257 JUMP JUMPDEST PUSH1 0x40 MLOAD DUP1 SWAP2 SUB SWAP1 RETURN JUMPDEST CALLVALUE DUP1 ISZERO PUSH2 0x38E JUMPI PUSH1 0x0 DUP1 REVERT JUMPDEST POP PUSH2 0x397 PUSH2 0xC0A JUMP JUMPDEST STOP JUMPDEST CALLVALUE DUP1 ISZERO PUSH2 0x3A5 JUMPI PUSH1 0x0 DUP1 REVERT JUMPDEST POP PUSH2 0x3C0 PUSH1 0x4 DUP1 CALLDATASIZE SUB DUP2 ADD SWAP1 PUSH2 0x3BB SWAP2 SWAP1 PUSH2 0x2368 JUMP JUMPDEST PUSH2 0xC1E JUMP JUMPDEST PUSH1 0x40 MLOAD PUSH2 0x3CD SWAP2 SWAP1 PUSH2 0x2203 JUMP JUMPDEST PUSH1 0x40 MLOAD DUP1 SWAP2 SUB SWAP1 RETURN JUMPDEST CALLVALUE DUP1 ISZERO PUSH2 0x3E2 JUMPI PUSH1 0x0 DUP1 REVERT JUMPDEST POP PUSH2 0x3EB PUSH2 0xC3E JUMP JUMPDEST PUSH1 0x40 MLOAD PUSH2 0x3F8 SWAP2 SWAP1 PUSH2 0x222D JUMP JUMPDEST PUSH1 0x40 MLOAD DUP1 SWAP2 SUB SWAP1 RETURN JUMPDEST CALLVALUE DUP1 ISZERO PUSH2 0x40D JUMPI PUSH1 0x0 DUP1 REVERT JUMPDEST POP PUSH2 0x416 PUSH2 0xC68 JUMP JUMPDEST PUSH1 0x40 MLOAD PUSH2 0x423 SWAP2 SWAP1 PUSH2 0x20ED JUMP JUMPDEST PUSH1 0x40 MLOAD DUP1 SWAP2 SUB SWAP1 RETURN JUMPDEST CALLVALUE DUP1 ISZERO PUSH2 0x438 JUMPI PUSH1 0x0 DUP1 REVERT JUMPDEST POP PUSH2 0x441 PUSH2 0xCFA JUMP JUMPDEST PUSH1 0x40 MLOAD PUSH2 0x44E SWAP2 SWAP1 PUSH2 0x2257 JUMP JUMPDEST PUSH1 0x40 MLOAD DUP1 SWAP2 SUB SWAP1 RETURN JUMPDEST CALLVALUE DUP1 ISZERO PUSH2 0x463 JUMPI PUSH1 0x0 DUP1 REVERT JUMPDEST POP PUSH2 0x47E PUSH1 0x4 DUP1 CALLDATASIZE SUB DUP2 ADD SWAP1 PUSH2 0x479 SWAP2 SWAP1 PUSH2 0x2395 JUMP JUMPDEST PUSH2 0xD00 JUMP JUMPDEST STOP JUMPDEST CALLVALUE DUP1 ISZERO PUSH2 0x48C JUMPI PUSH1 0x0 DUP1 REVERT JUMPDEST POP PUSH2 0x4A7 PUSH1 0x4 DUP1 CALLDATASIZE SUB DUP2 ADD SWAP1 PUSH2 0x4A2 SWAP2 SWAP1 PUSH2 0x23C2 JUMP JUMPDEST PUSH2 0xFA9 JUMP JUMPDEST STOP JUMPDEST CALLVALUE DUP1 ISZERO PUSH2 0x4B5 JUMPI PUSH1 0x0 DUP1 REVERT JUMPDEST POP PUSH2 0x4D0 PUSH1 0x4 DUP1 CALLDATASIZE SUB DUP2 ADD SWAP1 PUSH2 0x4CB SWAP2 SWAP1 PUSH2 0x2402 JUMP JUMPDEST PUSH2 0x1284 JUMP JUMPDEST STOP JUMPDEST CALLVALUE DUP1 ISZERO PUSH2 0x4DE JUMPI PUSH1 0x0 DUP1 REVERT JUMPDEST POP PUSH2 0x4F9 PUSH1 0x4 DUP1 CALLDATASIZE SUB DUP2 ADD SWAP1 PUSH2 0x4F4 SWAP2 SWAP1 PUSH2 0x21A8 JUMP JUMPDEST PUSH2 0x16A4 JUMP JUMPDEST PUSH1 0x40 MLOAD PUSH2 0x506 SWAP2 SWAP1 PUSH2 0x2203 JUMP JUMPDEST PUSH1 0x40 MLOAD DUP1 SWAP2 SUB SWAP1 RETURN JUMPDEST CALLVALUE DUP1 ISZERO PUSH2 0x51B JUMPI PUSH1 0x0 DUP1 REVERT JUMPDEST POP PUSH2 0x524 PUSH2 0x16C7 JUMP JUMPDEST PUSH1 0x40 MLOAD PUSH2 0x531 SWAP2 SWAP1 PUSH2 0x2257 JUMP JUMPDEST PUSH1 0x40 MLOAD DUP1 SWAP2 SUB SWAP1 RETURN JUMPDEST CALLVALUE DUP1 ISZERO PUSH2 0x546 JUMPI PUSH1 0x0 DUP1 REVERT JUMPDEST POP PUSH2 0x561 PUSH1 0x4 DUP1 CALLDATASIZE SUB DUP2 ADD SWAP1 PUSH2 0x55C SWAP2 SWAP1 PUSH2 0x2455 JUMP JUMPDEST PUSH2 0x16CD JUMP JUMPDEST PUSH1 0x40 MLOAD PUSH2 0x56E SWAP2 SWAP1 PUSH2 0x2257 JUMP JUMPDEST PUSH1 0x40 MLOAD DUP1 SWAP2 SUB SWAP1 RETURN JUMPDEST CALLVALUE DUP1 ISZERO PUSH2 0x583 JUMPI PUSH1 0x0 DUP1 REVERT JUMPDEST POP PUSH2 0x59E PUSH1 0x4 DUP1 CALLDATASIZE SUB DUP2 ADD SWAP1 PUSH2 0x599 SWAP2 SWAP1 PUSH2 0x2368 JUMP JUMPDEST PUSH2 0x1754 JUMP JUMPDEST STOP JUMPDEST PUSH1 0x60 PUSH1 0x3 DUP1 SLOAD PUSH2 0x5AF SWAP1 PUSH2 0x24C4 JUMP JUMPDEST DUP1 PUSH1 0x1F ADD PUSH1 0x20 DUP1 SWAP2 DIV MUL PUSH1 0x20 ADD PUSH1 0x40 MLOAD SWAP1 DUP2 ADD PUSH1 0x40 MSTORE DUP1 SWAP3 SWAP2 SWAP1 DUP2 DUP2 MSTORE PUSH1 0x20 ADD DUP3 DUP1 SLOAD PUSH2 0x5DB SWAP1 PUSH2 0x24C4 JUMP JUMPDEST DUP1 ISZERO PUSH2 0x628 JUMPI DUP1 PUSH1 0x1F LT PUSH2 0x5FD JUMPI PUSH2 0x100 DUP1 DUP4 SLOAD DIV MUL DUP4 MSTORE SWAP2 PUSH1 0x20 ADD SWAP2 PUSH2 0x628 JUMP JUMPDEST DUP3 ADD SWAP2 SWAP1 PUSH1 0x0 MSTORE PUSH1 0x20 PUSH1 0x0 KECCAK256 SWAP1 JUMPDEST DUP2 SLOAD DUP2 MSTORE SWAP1 PUSH1 0x1 ADD SWAP1 PUSH1 0x20 ADD DUP1 DUP4 GT PUSH2 0x60B JUMPI DUP3 SWAP1 SUB PUSH1 0x1F AND DUP3 ADD SWAP2 JUMPDEST POP POP POP POP POP SWAP1 POP SWAP1 JUMP JUMPDEST PUSH1 0x0 DUP1 PUSH2 0x63D PUSH2 0x17DA JUMP JUMPDEST SWAP1 POP PUSH2 0x64A DUP2 DUP6 DUP6 PUSH2 0x17E2 JUMP JUMPDEST PUSH1 0x1 SWAP2 POP POP SWAP3 SWAP2 POP POP JUMP JUMPDEST PUSH1 0x6 PUSH1 0x0 SWAP1 SLOAD SWAP1 PUSH2 0x100 EXP SWAP1 DIV PUSH20 0xFFFFFFFFFFFFFFFFFFFFFFFFFFFFFFFFFFFFFFFF AND DUP2 JUMP JUMPDEST PUSH1 0x0 PUSH1 0x2 SLOAD SWAP1 POP SWAP1 JUMP JUMPDEST PUSH1 0x9 SLOAD DUP2 JUMP JUMPDEST PUSH1 0x0 DUP1 PUSH2 0x696 PUSH2 0x17DA JUMP JUMPDEST SWAP1 POP PUSH2 0x6A3 DUP6 DUP3 DUP6 PUSH2 0x17F4 JUMP JUMPDEST PUSH2 0x6AE DUP6 DUP6 DUP6 PUSH2 0x1889 JUMP JUMPDEST PUSH1 0x1 SWAP2 POP POP SWAP4 SWAP3 POP POP POP JUMP JUMPDEST PUSH2 0x6C2 PUSH2 0x197D JUMP JUMPDEST DUP1 PUSH1 0xB PUSH1 0x0 DUP5 PUSH20 0xFFFFFFFFFFFFFFFFFFFFFFFFFFFFFFFFFFFFFFFF AND PUSH20 0xFFFFFFFFFFFFFFFFFFFFFFFFFFFFFFFFFFFFFFFF AND DUP2 MSTORE PUSH1 0x20 ADD SWAP1 DUP2 MSTORE PUSH1 0x20 ADD PUSH1 0x0 KECCAK256 PUSH1 0x0 PUSH2 0x100 EXP DUP2 SLOAD DUP2 PUSH1 0xFF MUL NOT AND SWAP1 DUP4 ISZERO ISZERO MUL OR SWAP1 SSTORE POP POP POP JUMP JUMPDEST PUSH1 0x0 PUSH1 0x12 SWAP1 POP SWAP1 JUMP JUMPDEST PUSH1 0x6 PUSH1 0x0 SWAP1 SLOAD SWAP1 PUSH2 0x100 EXP SWAP1 DIV PUSH20 0xFFFFFFFFFFFFFFFFFFFFFFFFFFFFFFFFFFFFFFFF AND PUSH20 0xFFFFFFFFFFFFFFFFFFFFFFFFFFFFFFFFFFFFFFFF AND DUP2 PUSH20 0xFFFFFFFFFFFFFFFFFFFFFFFFFFFFFFFFFFFFFFFF AND EQ DUP1 PUSH2 0x7CF JUMPI POP PUSH1 0x7 PUSH1 0x0 SWAP1 SLOAD SWAP1 PUSH2 0x100 EXP SWAP1 DIV PUSH20 0xFFFFFFFFFFFFFFFFFFFFFFFFFFFFFFFFFFFFFFFF AND PUSH20 0xFFFFFFFFFFFFFFFFFFFFFFFFFFFFFFFFFFFFFFFF AND DUP2 PUSH20 0xFFFFFFFFFFFFFFFFFFFFFFFFFFFFFFFFFFFFFFFF AND EQ JUMPDEST PUSH2 0x80E JUMPI PUSH1 0x40 MLOAD PUSH32 0x8C379A000000000000000000000000000000000000000000000000000000000 DUP2 MSTORE PUSH1 0x4 ADD PUSH2 0x805 SWAP1 PUSH2 0x2541 JUMP JUMPDEST PUSH1 0x40 MLOAD DUP1 SWAP2 SUB SWAP1 REVERT JUMPDEST PUSH1 0x0 PUSH1 0x6 PUSH1 0x0 SWAP1 SLOAD SWAP1 PUSH2 0x100 EXP SWAP1 DIV PUSH20 0xFFFFFFFFFFFFFFFFFFFFFFFFFFFFFFFFFFFFFFFF AND PUSH20 0xFFFFFFFFFFFFFFFFFFFFFFFFFFFFFFFFFFFFFFFF AND DUP3 PUSH20 0xFFFFFFFFFFFFFFFFFFFFFFFFFFFFFFFFFFFFFFFF AND EQ SWAP1 POP PUSH1 0x0 DUP2 PUSH2 0x872 JUMPI PUSH1 0x8 SLOAD PUSH2 0x876 JUMP JUMPDEST PUSH1 0x9 SLOAD JUMPDEST SWAP1 POP PUSH1 0x0 DUP3 PUSH2 0x887 JUMPI PUSH1 0x9 SLOAD PUSH2 0x88B JUMP JUMPDEST PUSH1 0x8 SLOAD JUMPDEST SWAP1 POP PUSH1 0x0 DUP2 GT DUP1 ISZERO PUSH2 0x89D JUMPI POP PUSH1 0x0 DUP3 GT JUMPDEST PUSH2 0x8DC JUMPI PUSH1 0x40 MLOAD PUSH32 0x8C379A000000000000000000000000000000000000000000000000000000000 DUP2 MSTORE PUSH1 0x4 ADD PUSH2 0x8D3 SWAP1 PUSH2 0x25AD JUMP JUMPDEST PUSH1 0x40 MLOAD DUP1 SWAP2 SUB SWAP1 REVERT JUMPDEST PUSH1 0x0 PUSH2 0x3E8 PUSH1 0xA SLOAD PUSH2 0x3E8 PUSH2 0x8F1 SWAP2 SWAP1 PUSH2 0x25FC JUMP JUMPDEST CALLVALUE PUSH2 0x8FC SWAP2 SWAP1 PUSH2 0x2630 JUMP JUMPDEST PUSH2 0x906 SWAP2 SWAP1 PUSH2 0x26A1 JUMP JUMPDEST SWAP1 POP PUSH1 0x0 DUP2 DUP5 PUSH2 0x916 SWAP2 SWAP1 PUSH2 0x26D2 JUMP JUMPDEST DUP4 DUP4 PUSH2 0x922 SWAP2 SWAP1 PUSH2 0x2630 JUMP JUMPDEST PUSH2 0x92C SWAP2 SWAP1 PUSH2 0x26A1 JUMP JUMPDEST SWAP1 POP PUSH1 0x0 DUP2 GT PUSH2 0x971 JUMPI PUSH1 0x40 MLOAD PUSH32 0x8C379A000000000000000000000000000000000000000000000000000000000 DUP2 MSTORE PUSH1 0x4 ADD PUSH2 0x968 SWAP1 PUSH2 0x2752 JUMP JUMPDEST PUSH1 0x40 MLOAD DUP1 SWAP2 SUB SWAP1 REVERT JUMPDEST DUP5 ISZERO PUSH2 0x9AE JUMPI CALLVALUE PUSH1 0x9 PUSH1 0x0 DUP3 DUP3 SLOAD PUSH2 0x989 SWAP2 SWAP1 PUSH2 0x26D2 JUMP JUMPDEST SWAP3 POP POP DUP2 SWAP1 SSTORE POP DUP1 PUSH1 0x8 PUSH1 0x0 DUP3 DUP3 SLOAD PUSH2 0x9A2 SWAP2 SWAP1 PUSH2 0x25FC JUMP JUMPDEST SWAP3 POP POP DUP2 SWAP1 SSTORE POP PUSH2 0x9E1 JUMP JUMPDEST CALLVALUE PUSH1 0x8 PUSH1 0x0 DUP3 DUP3 SLOAD PUSH2 0x9C0 SWAP2 SWAP1 PUSH2 0x26D2 JUMP JUMPDEST SWAP3 POP POP DUP2 SWAP1 SSTORE POP DUP1 PUSH1 0x9 PUSH1 0x0 DUP3 DUP3 SLOAD PUSH2 0x9D9 SWAP2 SWAP1 PUSH2 0x25FC JUMP JUMPDEST SWAP3 POP POP DUP2 SWAP1 SSTORE POP JUMPDEST DUP6 PUSH20 0xFFFFFFFFFFFFFFFFFFFFFFFFFFFFFFFFFFFFFFFF AND PUSH4 0xA9059CBB CALLER DUP4 PUSH1 0x40 MLOAD DUP4 PUSH4 0xFFFFFFFF AND PUSH1 0xE0 SHL DUP2 MSTORE PUSH1 0x4 ADD PUSH2 0xA1C SWAP3 SWAP2 SWAP1 PUSH2 0x2772 JUMP JUMPDEST PUSH1 0x20 PUSH1 0x40 MLOAD DUP1 DUP4 SUB DUP2 PUSH1 0x0 DUP8 GAS CALL ISZERO DUP1 ISZERO PUSH2 0xA3B JUMPI RETURNDATASIZE PUSH1 0x0 DUP1 RETURNDATACOPY RETURNDATASIZE PUSH1 0x0 REVERT JUMPDEST POP POP POP POP PUSH1 0x40 MLOAD RETURNDATASIZE PUSH1 0x1F NOT PUSH1 0x1F DUP3 ADD AND DUP3 ADD DUP1 PUSH1 0x40 MSTORE POP DUP2 ADD SWAP1 PUSH2 0xA5F SWAP2 SWAP1 PUSH2 0x27B0 JUMP JUMPDEST POP CALLER PUSH20 0xFFFFFFFFFFFFFFFFFFFFFFFFFFFFFFFFFFFFFFFF AND PUSH32 0x1DBD300218E937F543E095E51A5A28974AD528E975D291BEE73C9E7BB69589C2 DUP8 CALLVALUE DUP5 PUSH1 0x40 MLOAD PUSH2 0xAAA SWAP4 SWAP3 SWAP2 SWAP1 PUSH2 0x27DD JUMP JUMPDEST PUSH1 0x40 MLOAD DUP1 SWAP2 SUB SWAP1 LOG2 CALLER PUSH20 0xFFFFFFFFFFFFFFFFFFFFFFFFFFFFFFFFFFFFFFFF AND PUSH32 0xCD3829A3813DC3CDD188FD3D01DCF3268C16BE2FDD2DD21D0665418816E46062 PUSH1 0x0 DUP9 CALLVALUE DUP6 PUSH1 0x40 MLOAD PUSH2 0xAFF SWAP5 SWAP4 SWAP3 SWAP2 SWAP1 PUSH2 0x2814 JUMP JUMPDEST PUSH1 0x40 MLOAD DUP1 SWAP2 SUB SWAP1 LOG2 POP POP POP POP POP POP JUMP JUMPDEST PUSH2 0xB17 PUSH2 0x197D JUMP JUMPDEST PUSH1 0x64 DUP2 GT ISZERO PUSH2 0xB5B JUMPI PUSH1 0x40 MLOAD PUSH32 0x8C379A000000000000000000000000000000000000000000000000000000000 DUP2 MSTORE PUSH1 0x4 ADD PUSH2 0xB52 SWAP1 PUSH2 0x28A5 JUMP JUMPDEST PUSH1 0x40 MLOAD DUP1 SWAP2 SUB SWAP1 REVERT JUMPDEST DUP1 PUSH1 0xA DUP2 SWAP1 SSTORE POP PUSH32 0x6717373928CCCF59CC9912055CFA8DB86E7085B95C94C15862B121114AA333BE DUP2 PUSH1 0x40 MLOAD PUSH2 0xB91 SWAP2 SWAP1 PUSH2 0x2257 JUMP JUMPDEST PUSH1 0x40 MLOAD DUP1 SWAP2 SUB SWAP1 LOG1 POP JUMP JUMPDEST PUSH1 0x7 PUSH1 0x0 SWAP1 SLOAD SWAP1 PUSH2 0x100 EXP SWAP1 DIV PUSH20 0xFFFFFFFFFFFFFFFFFFFFFFFFFFFFFFFFFFFFFFFF AND DUP2 JUMP JUMPDEST PUSH1 0x0 DUP1 PUSH1 0x0 DUP4 PUSH20 0xFFFFFFFFFFFFFFFFFFFFFFFFFFFFFFFFFFFFFFFF AND PUSH20 0xFFFFFFFFFFFFFFFFFFFFFFFFFFFFFFFFFFFFFFFF AND DUP2 MSTORE PUSH1 0x20 ADD SWAP1 DUP2 MSTORE PUSH1 0x20 ADD PUSH1 0x0 KECCAK256 SLOAD SWAP1 POP SWAP2 SWAP1 POP JUMP JUMPDEST PUSH2 0xC12 PUSH2 0x197D JUMP JUMPDEST PUSH2 0xC1C PUSH1 0x0 PUSH2 0x1A04 JUMP JUMPDEST JUMP JUMPDEST PUSH1 0xB PUSH1 0x20 MSTORE DUP1 PUSH1 0x0 MSTORE PUSH1 0x40 PUSH1 0x0 KECCAK256 PUSH1 0x0 SWAP2 POP SLOAD SWAP1 PUSH2 0x100 EXP SWAP1 DIV PUSH1 0xFF AND DUP2 JUMP JUMPDEST PUSH1 0x0 PUSH1 0x5 PUSH1 0x0 SWAP1 SLOAD SWAP1 PUSH2 0x100 EXP SWAP1 DIV PUSH20 0xFFFFFFFFFFFFFFFFFFFFFFFFFFFFFFFFFFFFFFFF AND SWAP1 POP SWAP1 JUMP JUMPDEST PUSH1 0x60 PUSH1 0x4 DUP1 SLOAD PUSH2 0xC77 SWAP1 PUSH2 0x24C4 JUMP JUMPDEST DUP1 PUSH1 0x1F ADD PUSH1 0x20 DUP1 SWAP2 DIV MUL PUSH1 0x20 ADD PUSH1 0x40 MLOAD SWAP1 DUP2 ADD PUSH1 0x40 MSTORE DUP1 SWAP3 SWAP2 SWAP1 DUP2 DUP2 MSTORE PUSH1 0x20 ADD DUP3 DUP1 SLOAD PUSH2 0xCA3 SWAP1 PUSH2 0x24C4 JUMP JUMPDEST DUP1 ISZERO PUSH2 0xCF0 JUMPI DUP1 PUSH1 0x1F LT PUSH2 0xCC5 JUMPI PUSH2 0x100 DUP1 DUP4 SLOAD DIV MUL DUP4 MSTORE SWAP2 PUSH1 0x20 ADD SWAP2 PUSH2 0xCF0 JUMP JUMPDEST DUP3 ADD SWAP2 SWAP1 PUSH1 0x0 MSTORE PUSH1 0x20 PUSH1 0x0 KECCAK256 SWAP1 JUMPDEST DUP2 SLOAD DUP2 MSTORE SWAP1 PUSH1 0x1 ADD SWAP1 PUSH1 0x20 ADD DUP1 DUP4 GT PUSH2 0xCD3 JUMPI DUP3 SWAP1 SUB PUSH1 0x1F AND DUP3 ADD SWAP2 JUMPDEST POP POP POP POP POP SWAP1 POP SWAP1 JUMP JUMPDEST PUSH1 0xA SLOAD DUP2 JUMP JUMPDEST PUSH1 0xB PUSH1 0x0 CALLER PUSH20 0xFFFFFFFFFFFFFFFFFFFFFFFFFFFFFFFFFFFFFFFF AND PUSH20 0xFFFFFFFFFFFFFFFFFFFFFFFFFFFFFFFFFFFFFFFF AND DUP2 MSTORE PUSH1 0x20 ADD SWAP1 DUP2 MSTORE PUSH1 0x20 ADD PUSH1 0x0 KECCAK256 PUSH1 0x0 SWAP1 SLOAD SWAP1 PUSH2 0x100 EXP SWAP1 DIV PUSH1 0xFF AND PUSH2 0xD8C JUMPI PUSH1 0x40 MLOAD PUSH32 0x8C379A000000000000000000000000000000000000000000000000000000000 DUP2 MSTORE PUSH1 0x4 ADD PUSH2 0xD83 SWAP1 PUSH2 0x2911 JUMP JUMPDEST PUSH1 0x40 MLOAD DUP1 SWAP2 SUB SWAP1 REVERT JUMPDEST PUSH1 0x0 PUSH2 0xD96 PUSH2 0x67B JUMP JUMPDEST PUSH1 0x8 SLOAD DUP4 PUSH2 0xDA4 SWAP2 SWAP1 PUSH2 0x2630 JUMP JUMPDEST PUSH2 0xDAE SWAP2 SWAP1 PUSH2 0x26A1 JUMP JUMPDEST SWAP1 POP PUSH1 0x0 PUSH2 0xDBA PUSH2 0x67B JUMP JUMPDEST PUSH1 0x9 SLOAD DUP5 PUSH2 0xDC8 SWAP2 SWAP1 PUSH2 0x2630 JUMP JUMPDEST PUSH2 0xDD2 SWAP2 SWAP1 PUSH2 0x26A1 JUMP JUMPDEST SWAP1 POP PUSH2 0xDDE CALLER DUP5 PUSH2 0x1ACA JUMP JUMPDEST DUP2 PUSH1 0x8 PUSH1 0x0 DUP3 DUP3 SLOAD PUSH2 0xDF0 SWAP2 SWAP1 PUSH2 0x25FC JUMP JUMPDEST SWAP3 POP POP DUP2 SWAP1 SSTORE POP DUP1 PUSH1 0x9 PUSH1 0x0 DUP3 DUP3 SLOAD PUSH2 0xE09 SWAP2 SWAP1 PUSH2 0x25FC JUMP JUMPDEST SWAP3 POP POP DUP2 SWAP1 SSTORE POP PUSH1 0x6 PUSH1 0x0 SWAP1 SLOAD SWAP1 PUSH2 0x100 EXP SWAP1 DIV PUSH20 0xFFFFFFFFFFFFFFFFFFFFFFFFFFFFFFFFFFFFFFFF AND PUSH20 0xFFFFFFFFFFFFFFFFFFFFFFFFFFFFFFFFFFFFFFFF AND PUSH4 0xA9059CBB CALLER DUP5 PUSH1 0x40 MLOAD DUP4 PUSH4 0xFFFFFFFF AND PUSH1 0xE0 SHL DUP2 MSTORE PUSH1 0x4 ADD PUSH2 0xE6D SWAP3 SWAP2 SWAP1 PUSH2 0x2772 JUMP JUMPDEST PUSH1 0x20 PUSH1 0x40 MLOAD DUP1 DUP4 SUB DUP2 PUSH1 0x0 DUP8 GAS CALL ISZERO DUP1 ISZERO PUSH2 0xE8C JUMPI RETURNDATASIZE PUSH1 0x0 DUP1 RETURNDATACOPY RETURNDATASIZE PUSH1 0x0 REVERT JUMPDEST POP POP POP POP PUSH1 0x40 MLOAD RETURNDATASIZE PUSH1 0x1F NOT PUSH1 0x1F DUP3 ADD AND DUP3 ADD DUP1 PUSH1 0x40 MSTORE POP DUP2 ADD SWAP1 PUSH2 0xEB0 SWAP2 SWAP1 PUSH2 0x27B0 JUMP JUMPDEST POP PUSH1 0x7 PUSH1 0x0 SWAP1 SLOAD SWAP1 PUSH2 0x100 EXP SWAP1 DIV PUSH20 0xFFFFFFFFFFFFFFFFFFFFFFFFFFFFFFFFFFFFFFFF AND PUSH20 0xFFFFFFFFFFFFFFFFFFFFFFFFFFFFFFFFFFFFFFFF AND PUSH4 0xA9059CBB CALLER DUP4 PUSH1 0x40 MLOAD DUP4 PUSH4 0xFFFFFFFF AND PUSH1 0xE0 SHL DUP2 MSTORE PUSH1 0x4 ADD PUSH2 0xF0E SWAP3 SWAP2 SWAP1 PUSH2 0x2772 JUMP JUMPDEST PUSH1 0x20 PUSH1 0x40 MLOAD DUP1 DUP4 SUB DUP2 PUSH1 0x0 DUP8 GAS CALL ISZERO DUP1 ISZERO PUSH2 0xF2D JUMPI RETURNDATASIZE PUSH1 0x0 DUP1 RETURNDATACOPY RETURNDATASIZE PUSH1 0x0 REVERT JUMPDEST POP POP POP POP PUSH1 0x40 MLOAD RETURNDATASIZE PUSH1 0x1F NOT PUSH1 0x1F DUP3 ADD AND DUP3 ADD DUP1 PUSH1 0x40 MSTORE POP DUP2 ADD SWAP1 PUSH2 0xF51 SWAP2 SWAP1 PUSH2 0x27B0 JUMP JUMPDEST POP CALLER PUSH20 0xFFFFFFFFFFFFFFFFFFFFFFFFFFFFFFFFFFFFFFFF AND PUSH32 0x59C3A0B60C6AB7DEB62E1440C9E72441DB6DB7DFE514DBA8CB18E60C0D896EFA DUP4 DUP4 DUP7 PUSH1 0x40 MLOAD PUSH2 0xF9C SWAP4 SWAP3 SWAP2 SWAP1 PUSH2 0x2931 JUMP JUMPDEST PUSH1 0x40 MLOAD DUP1 SWAP2 SUB SWAP1 LOG2 POP POP POP JUMP JUMPDEST PUSH1 0xB PUSH1 0x0 CALLER PUSH20 0xFFFFFFFFFFFFFFFFFFFFFFFFFFFFFFFFFFFFFFFF AND PUSH20 0xFFFFFFFFFFFFFFFFFFFFFFFFFFFFFFFFFFFFFFFF AND DUP2 MSTORE PUSH1 0x20 ADD SWAP1 DUP2 MSTORE PUSH1 0x20 ADD PUSH1 0x0 KECCAK256 PUSH1 0x0 SWAP1 SLOAD SWAP1 PUSH2 0x100 EXP SWAP1 DIV PUSH1 0xFF AND PUSH2 0x1035 JUMPI PUSH1 0x40 MLOAD PUSH32 0x8C379A000000000000000000000000000000000000000000000000000000000 DUP2 MSTORE PUSH1 0x4 ADD PUSH2 0x102C SWAP1 PUSH2 0x2911 JUMP JUMPDEST PUSH1 0x40 MLOAD DUP1 SWAP2 SUB SWAP1 REVERT JUMPDEST PUSH1 0x6 PUSH1 0x0 SWAP1 SLOAD SWAP1 PUSH2 0x100 EXP SWAP1 DIV PUSH20 0xFFFFFFFFFFFFFFFFFFFFFFFFFFFFFFFFFFFFFFFF AND PUSH20 0xFFFFFFFFFFFFFFFFFFFFFFFFFFFFFFFFFFFFFFFF AND PUSH4 0x23B872DD CALLER ADDRESS DUP6 PUSH1 0x40 MLOAD DUP5 PUSH4 0xFFFFFFFF AND PUSH1 0xE0 SHL DUP2 MSTORE PUSH1 0x4 ADD PUSH2 0x1094 SWAP4 SWAP3 SWAP2 SWAP1 PUSH2 0x2968 JUMP JUMPDEST PUSH1 0x20 PUSH1 0x40 MLOAD DUP1 DUP4 SUB DUP2 PUSH1 0x0 DUP8 GAS CALL ISZERO DUP1 ISZERO PUSH2 0x10B3 JUMPI RETURNDATASIZE PUSH1 0x0 DUP1 RETURNDATACOPY RETURNDATASIZE PUSH1 0x0 REVERT JUMPDEST POP POP POP POP PUSH1 0x40 MLOAD RETURNDATASIZE PUSH1 0x1F NOT PUSH1 0x1F DUP3 ADD AND DUP3 ADD DUP1 PUSH1 0x40 MSTORE POP DUP2 ADD SWAP1 PUSH2 0x10D7 SWAP2 SWAP1 PUSH2 0x27B0 JUMP JUMPDEST POP PUSH1 0x7 PUSH1 0x0 SWAP1 SLOAD SWAP1 PUSH2 0x100 EXP SWAP1 DIV PUSH20 0xFFFFFFFFFFFFFFFFFFFFFFFFFFFFFFFFFFFFFFFF AND PUSH20 0xFFFFFFFFFFFFFFFFFFFFFFFFFFFFFFFFFFFFFFFF AND PUSH4 0x23B872DD CALLER ADDRESS DUP5 PUSH1 0x40 MLOAD DUP5 PUSH4 0xFFFFFFFF AND PUSH1 0xE0 SHL DUP2 MSTORE PUSH1 0x4 ADD PUSH2 0x1137 SWAP4 SWAP3 SWAP2 SWAP1 PUSH2 0x2968 JUMP JUMPDEST PUSH1 0x20 PUSH1 0x40 MLOAD DUP1 DUP4 SUB DUP2 PUSH1 0x0 DUP8 GAS CALL ISZERO DUP1 ISZERO PUSH2 0x1156 JUMPI RETURNDATASIZE PUSH1 0x0 DUP1 RETURNDATACOPY RETURNDATASIZE PUSH1 0x0 REVERT JUMPDEST POP POP POP POP PUSH1 0x40 MLOAD RETURNDATASIZE PUSH1 0x1F NOT PUSH1 0x1F DUP3 ADD AND DUP3 ADD DUP1 PUSH1 0x40 MSTORE POP DUP2 ADD SWAP1 PUSH2 0x117A SWAP2 SWAP1 PUSH2 0x27B0 JUMP JUMPDEST POP PUSH1 0x0 DUP1 PUSH2 0x1186 PUSH2 0x67B JUMP JUMPDEST SUB PUSH2 0x11A6 JUMPI PUSH2 0x119F DUP3 DUP5 PUSH2 0x119A SWAP2 SWAP1 PUSH2 0x2630 JUMP JUMPDEST PUSH2 0x1B4C JUMP JUMPDEST SWAP1 POP PUSH2 0x11F1 JUMP JUMPDEST PUSH2 0x11EE PUSH1 0x8 SLOAD PUSH2 0x11B4 PUSH2 0x67B JUMP JUMPDEST DUP6 PUSH2 0x11BF SWAP2 SWAP1 PUSH2 0x2630 JUMP JUMPDEST PUSH2 0x11C9 SWAP2 SWAP1 PUSH2 0x26A1 JUMP JUMPDEST PUSH1 0x9 SLOAD PUSH2 0x11D4 PUSH2 0x67B JUMP JUMPDEST DUP6 PUSH2 0x11DF SWAP2 SWAP1 PUSH2 0x2630 JUMP JUMPDEST PUSH2 0x11E9 SWAP2 SWAP1 PUSH2 0x26A1 JUMP JUMPDEST PUSH2 0x1BC6 JUMP JUMPDEST SWAP1 POP JUMPDEST PUSH2 0x11FB CALLER DUP3 PUSH2 0x1BDF JUMP JUMPDEST DUP3 PUSH1 0x8 PUSH1 0x0 DUP3 DUP3 SLOAD PUSH2 0x120D SWAP2 SWAP1 PUSH2 0x26D2 JUMP JUMPDEST SWAP3 POP POP DUP2 SWAP1 SSTORE POP DUP2 PUSH1 0x9 PUSH1 0x0 DUP3 DUP3 SLOAD PUSH2 0x1226 SWAP2 SWAP1 PUSH2 0x26D2 JUMP JUMPDEST SWAP3 POP POP DUP2 SWAP1 SSTORE POP CALLER PUSH20 0xFFFFFFFFFFFFFFFFFFFFFFFFFFFFFFFFFFFFFFFF AND PUSH32 0xBEB3885786D637A474CBC287C0A44587231633A077F0BD30354D5A4B18996FCE DUP5 DUP5 DUP5 PUSH1 0x40 MLOAD PUSH2 0x1277 SWAP4 SWAP3 SWAP2 SWAP1 PUSH2 0x2931 JUMP JUMPDEST PUSH1 0x40 MLOAD DUP1 SWAP2 SUB SWAP1 LOG2 POP POP POP JUMP JUMPDEST PUSH1 0x6 PUSH1 0x0 SWAP1 SLOAD SWAP1 PUSH2 0x100 EXP SWAP1 DIV PUSH20 0xFFFFFFFFFFFFFFFFFFFFFFFFFFFFFFFFFFFFFFFF AND PUSH20 0xFFFFFFFFFFFFFFFFFFFFFFFFFFFFFFFFFFFFFFFF AND DUP4 PUSH20 0xFFFFFFFFFFFFFFFFFFFFFFFFFFFFFFFFFFFFFFFF AND EQ DUP1 PUSH2 0x132D JUMPI POP PUSH1 0x7 PUSH1 0x0 SWAP1 SLOAD SWAP1 PUSH2 0x100 EXP SWAP1 DIV PUSH20 0xFFFFFFFFFFFFFFFFFFFFFFFFFFFFFFFFFFFFFFFF AND PUSH20 0xFFFFFFFFFFFFFFFFFFFFFFFFFFFFFFFFFFFFFFFF AND DUP4 PUSH20 0xFFFFFFFFFFFFFFFFFFFFFFFFFFFFFFFFFFFFFFFF AND EQ JUMPDEST PUSH2 0x136C JUMPI PUSH1 0x40 MLOAD PUSH32 0x8C379A000000000000000000000000000000000000000000000000000000000 DUP2 MSTORE PUSH1 0x4 ADD PUSH2 0x1363 SWAP1 PUSH2 0x2541 JUMP JUMPDEST PUSH1 0x40 MLOAD DUP1 SWAP2 SUB SWAP1 REVERT JUMPDEST PUSH1 0x0 PUSH1 0x6 PUSH1 0x0 SWAP1 SLOAD SWAP1 PUSH2 0x100 EXP SWAP1 DIV PUSH20 0xFFFFFFFFFFFFFFFFFFFFFFFFFFFFFFFFFFFFFFFF AND PUSH20 0xFFFFFFFFFFFFFFFFFFFFFFFFFFFFFFFFFFFFFFFF AND DUP5 PUSH20 0xFFFFFFFFFFFFFFFFFFFFFFFFFFFFFFFFFFFFFFFF AND EQ SWAP1 POP PUSH1 0x0 DUP2 PUSH2 0x13F0 JUMPI PUSH1 0x6 PUSH1 0x0 SWAP1 SLOAD SWAP1 PUSH2 0x100 EXP SWAP1 DIV PUSH20 0xFFFFFFFFFFFFFFFFFFFFFFFFFFFFFFFFFFFFFFFF AND PUSH2 0x1414 JUMP JUMPDEST PUSH1 0x7 PUSH1 0x0 SWAP1 SLOAD SWAP1 PUSH2 0x100 EXP SWAP1 DIV PUSH20 0xFFFFFFFFFFFFFFFFFFFFFFFFFFFFFFFFFFFFFFFF AND JUMPDEST SWAP1 POP PUSH1 0x0 DUP3 PUSH2 0x1425 JUMPI PUSH1 0x9 SLOAD PUSH2 0x1429 JUMP JUMPDEST PUSH1 0x8 SLOAD JUMPDEST SWAP1 POP PUSH1 0x0 DUP4 PUSH2 0x143A JUMPI PUSH1 0x8 SLOAD PUSH2 0x143E JUMP JUMPDEST PUSH1 0x9 SLOAD JUMPDEST SWAP1 POP DUP7 PUSH20 0xFFFFFFFFFFFFFFFFFFFFFFFFFFFFFFFFFFFFFFFF AND PUSH4 0x23B872DD CALLER ADDRESS DUP10 PUSH1 0x40 MLOAD DUP5 PUSH4 0xFFFFFFFF AND PUSH1 0xE0 SHL DUP2 MSTORE PUSH1 0x4 ADD PUSH2 0x147D SWAP4 SWAP3 SWAP2 SWAP1 PUSH2 0x2968 JUMP JUMPDEST PUSH1 0x20 PUSH1 0x40 MLOAD DUP1 DUP4 SUB DUP2 PUSH1 0x0 DUP8 GAS CALL ISZERO DUP1 ISZERO PUSH2 0x149C JUMPI RETURNDATASIZE PUSH1 0x0 DUP1 RETURNDATACOPY RETURNDATASIZE PUSH1 0x0 REVERT JUMPDEST POP POP POP POP PUSH1 0x40 MLOAD RETURNDATASIZE PUSH1 0x1F NOT PUSH1 0x1F DUP3 ADD AND DUP3 ADD DUP1 PUSH1 0x40 MSTORE POP DUP2 ADD SWAP1 PUSH2 0x14C0 SWAP2 SWAP1 PUSH2 0x27B0 JUMP JUMPDEST POP PUSH1 0x0 PUSH2 0x3E8 PUSH1 0xA SLOAD PUSH2 0x3E8 PUSH2 0x14D6 SWAP2 SWAP1 PUSH2 0x25FC JUMP JUMPDEST DUP9 PUSH2 0x14E1 SWAP2 SWAP1 PUSH2 0x2630 JUMP JUMPDEST PUSH2 0x14EB SWAP2 SWAP1 PUSH2 0x26A1 JUMP JUMPDEST SWAP1 POP PUSH1 0x0 DUP2 DUP5 PUSH2 0x14FB SWAP2 SWAP1 PUSH2 0x26D2 JUMP JUMPDEST DUP4 DUP4 PUSH2 0x1507 SWAP2 SWAP1 PUSH2 0x2630 JUMP JUMPDEST PUSH2 0x1511 SWAP2 SWAP1 PUSH2 0x26A1 JUMP JUMPDEST SWAP1 POP DUP7 DUP2 LT ISZERO PUSH2 0x1556 JUMPI PUSH1 0x40 MLOAD PUSH32 0x8C379A000000000000000000000000000000000000000000000000000000000 DUP2 MSTORE PUSH1 0x4 ADD PUSH2 0x154D SWAP1 PUSH2 0x29EB JUMP JUMPDEST PUSH1 0x40 MLOAD DUP1 SWAP2 SUB SWAP1 REVERT JUMPDEST DUP5 PUSH20 0xFFFFFFFFFFFFFFFFFFFFFFFFFFFFFFFFFFFFFFFF AND PUSH4 0xA9059CBB CALLER DUP4 PUSH1 0x40 MLOAD DUP4 PUSH4 0xFFFFFFFF AND PUSH1 0xE0 SHL DUP2 MSTORE PUSH1 0x4 ADD PUSH2 0x1591 SWAP3 SWAP2 SWAP1 PUSH2 0x2772 JUMP JUMPDEST PUSH1 0x20 PUSH1 0x40 MLOAD DUP1 DUP4 SUB DUP2 PUSH1 0x0 DUP8 GAS CALL ISZERO DUP1 ISZERO PUSH2 0x15B0 JUMPI RETURNDATASIZE PUSH1 0x0 DUP1 RETURNDATACOPY RETURNDATASIZE PUSH1 0x0 REVERT JUMPDEST POP POP POP POP PUSH1 0x40 MLOAD RETURNDATASIZE PUSH1 0x1F NOT PUSH1 0x1F DUP3 ADD AND DUP3 ADD DUP1 PUSH1 0x40 MSTORE POP DUP2 ADD SWAP1 PUSH2 0x15D4 SWAP2 SWAP1 PUSH2 0x27B0 JUMP JUMPDEST POP DUP6 ISZERO PUSH2 0x1612 JUMPI DUP8 PUSH1 0x8 PUSH1 0x0 DUP3 DUP3 SLOAD PUSH2 0x15ED SWAP2 SWAP1 PUSH2 0x26D2 JUMP JUMPDEST SWAP3 POP POP DUP2 SWAP1 SSTORE POP DUP1 PUSH1 0x9 PUSH1 0x0 DUP3 DUP3 SLOAD PUSH2 0x1606 SWAP2 SWAP1 PUSH2 0x25FC JUMP JUMPDEST SWAP3 POP POP DUP2 SWAP1 SSTORE POP PUSH2 0x1645 JUMP JUMPDEST DUP8 PUSH1 0x9 PUSH1 0x0 DUP3 DUP3 SLOAD PUSH2 0x1624 SWAP2 SWAP1 PUSH2 0x26D2 JUMP JUMPDEST SWAP3 POP POP DUP2 SWAP1 SSTORE POP DUP1 PUSH1 0x8 PUSH1 0x0 DUP3 DUP3 SLOAD PUSH2 0x163D SWAP2 SWAP1 PUSH2 0x25FC JUMP JUMPDEST SWAP3 POP POP DUP2 SWAP1 SSTORE POP JUMPDEST CALLER PUSH20 0xFFFFFFFFFFFFFFFFFFFFFFFFFFFFFFFFFFFFFFFF AND PUSH32 0xCD3829A3813DC3CDD188FD3D01DCF3268C16BE2FDD2DD21D0665418816E46062 DUP11 DUP8 DUP12 DUP6 PUSH1 0x40 MLOAD PUSH2 0x1691 SWAP5 SWAP4 SWAP3 SWAP2 SWAP1 PUSH2 0x2814 JUMP JUMPDEST PUSH1 0x40 MLOAD DUP1 SWAP2 SUB SWAP1 LOG2 POP POP POP POP POP POP POP POP POP JUMP JUMPDEST PUSH1 0x0 DUP1 PUSH2 0x16AF PUSH2 0x17DA JUMP JUMPDEST SWAP1 POP PUSH2 0x16BC DUP2 DUP6 DUP6 PUSH2 0x1889 JUMP JUMPDEST PUSH1 0x1 SWAP2 POP POP SWAP3 SWAP2 POP POP JUMP JUMPDEST PUSH1 0x8 SLOAD DUP2 JUMP JUMPDEST PUSH1 0x0 PUSH1 0x1 PUSH1 0x0 DUP5 PUSH20 0xFFFFFFFFFFFFFFFFFFFFFFFFFFFFFFFFFFFFFFFF AND PUSH20 0xFFFFFFFFFFFFFFFFFFFFFFFFFFFFFFFFFFFFFFFF AND DUP2 MSTORE PUSH1 0x20 ADD SWAP1 DUP2 MSTORE PUSH1 0x20 ADD PUSH1 0x0 KECCAK256 PUSH1 0x0 DUP4 PUSH20 0xFFFFFFFFFFFFFFFFFFFFFFFFFFFFFFFFFFFFFFFF AND PUSH20 0xFFFFFFFFFFFFFFFFFFFFFFFFFFFFFFFFFFFFFFFF AND DUP2 MSTORE PUSH1 0x20 ADD SWAP1 DUP2 MSTORE PUSH1 0x20 ADD PUSH1 0x0 KECCAK256 SLOAD SWAP1 POP SWAP3 SWAP2 POP POP JUMP JUMPDEST PUSH2 0x175C PUSH2 0x197D JUMP JUMPDEST PUSH1 0x0 PUSH20 0xFFFFFFFFFFFFFFFFFFFFFFFFFFFFFFFFFFFFFFFF AND DUP2 PUSH20 0xFFFFFFFFFFFFFFFFFFFFFFFFFFFFFFFFFFFFFFFF AND SUB PUSH2 0x17CE JUMPI PUSH1 0x0 PUSH1 0x40 MLOAD PUSH32 0x1E4FBDF700000000000000000000000000000000000000000000000000000000 DUP2 MSTORE PUSH1 0x4 ADD PUSH2 0x17C5 SWAP2 SWAP1 PUSH2 0x222D JUMP JUMPDEST PUSH1 0x40 MLOAD DUP1 SWAP2 SUB SWAP1 REVERT JUMPDEST PUSH2 0x17D7 DUP2 PUSH2 0x1A04 JUMP JUMPDEST POP JUMP JUMPDEST PUSH1 0x0 CALLER SWAP1 POP SWAP1 JUMP JUMPDEST PUSH2 0x17EF DUP4 DUP4 DUP4 PUSH1 0x1 PUSH2 0x1C61 JUMP JUMPDEST POP POP POP JUMP JUMPDEST PUSH1 0x0 PUSH2 0x1800 DUP5 DUP5 PUSH2 0x16CD JUMP JUMPDEST SWAP1 POP PUSH32 0xFFFFFFFFFFFFFFFFFFFFFFFFFFFFFFFFFFFFFFFFFFFFFFFFFFFFFFFFFFFFFFFF DUP2 LT ISZERO PUSH2 0x1883 JUMPI DUP2 DUP2 LT ISZERO PUSH2 0x1873 JUMPI DUP3 DUP2 DUP4 PUSH1 0x40 MLOAD PUSH32 0xFB8F41B200000000000000000000000000000000000000000000000000000000 DUP2 MSTORE PUSH1 0x4 ADD PUSH2 0x186A SWAP4 SWAP3 SWAP2 SWAP1 PUSH2 0x27DD JUMP JUMPDEST PUSH1 0x40 MLOAD DUP1 SWAP2 SUB SWAP1 REVERT JUMPDEST PUSH2 0x1882 DUP5 DUP5 DUP5 DUP5 SUB PUSH1 0x0 PUSH2 0x1C61 JUMP JUMPDEST JUMPDEST POP POP POP POP JUMP JUMPDEST PUSH1 0x0 PUSH20 0xFFFFFFFFFFFFFFFFFFFFFFFFFFFFFFFFFFFFFFFF AND DUP4 PUSH20 0xFFFFFFFFFFFFFFFFFFFFFFFFFFFFFFFFFFFFFFFF AND SUB PUSH2 0x18FB JUMPI PUSH1 0x0 PUSH1 0x40 MLOAD PUSH32 0x96C6FD1E00000000000000000000000000000000000000000000000000000000 DUP2 MSTORE PUSH1 0x4 ADD PUSH2 0x18F2 SWAP2 SWAP1 PUSH2 0x222D JUMP JUMPDEST PUSH1 0x40 MLOAD DUP1 SWAP2 SUB SWAP1 REVERT JUMPDEST PUSH1 0x0 PUSH20 0xFFFFFFFFFFFFFFFFFFFFFFFFFFFFFFFFFFFFFFFF AND DUP3 PUSH20 0xFFFFFFFFFFFFFFFFFFFFFFFFFFFFFFFFFFFFFFFF AND SUB PUSH2 0x196D JUMPI PUSH1 0x0 PUSH1 0x40 MLOAD PUSH32 0xEC442F0500000000000000000000000000000000000000000000000000000000 DUP2 MSTORE PUSH1 0x4 ADD PUSH2 0x1964 SWAP2 SWAP1 PUSH2 0x222D JUMP JUMPDEST PUSH1 0x40 MLOAD DUP1 SWAP2 SUB SWAP1 REVERT JUMPDEST PUSH2 0x1978 DUP4 DUP4 DUP4 PUSH2 0x1E38 JUMP JUMPDEST POP POP POP JUMP JUMPDEST PUSH2 0x1985 PUSH2 0x17DA JUMP JUMPDEST PUSH20 0xFFFFFFFFFFFFFFFFFFFFFFFFFFFFFFFFFFFFFFFF AND PUSH2 0x19A3 PUSH2 0xC3E JUMP JUMPDEST PUSH20 0xFFFFFFFFFFFFFFFFFFFFFFFFFFFFFFFFFFFFFFFF AND EQ PUSH2 0x1A02 JUMPI PUSH2 0x19C6 PUSH2 0x17DA JUMP JUMPDEST PUSH1 0x40 MLOAD PUSH32 0x118CDAA700000000000000000000000000000000000000000000000000000000 DUP2 MSTORE PUSH1 0x4 ADD PUSH2 0x19F9 SWAP2 SWAP1 PUSH2 0x222D JUMP JUMPDEST PUSH1 0x40 MLOAD DUP1 SWAP2 SUB SWAP1 REVERT JUMPDEST JUMP JUMPDEST PUSH1 0x0 PUSH1 0x5 PUSH1 0x0 SWAP1 SLOAD SWAP1 PUSH2 0x100 EXP SWAP1 DIV PUSH20 0xFFFFFFFFFFFFFFFFFFFFFFFFFFFFFFFFFFFFFFFF AND SWAP1 POP DUP2 PUSH1 0x5 PUSH1 0x0 PUSH2 0x100 EXP DUP2 SLOAD DUP2 PUSH20 0xFFFFFFFFFFFFFFFFFFFFFFFFFFFFFFFFFFFFFFFF MUL NOT AND SWAP1 DUP4 PUSH20 0xFFFFFFFFFFFFFFFFFFFFFFFFFFFFFFFFFFFFFFFF AND MUL OR SWAP1 SSTORE POP DUP2 PUSH20 0xFFFFFFFFFFFFFFFFFFFFFFFFFFFFFFFFFFFFFFFF AND DUP2 PUSH20 0xFFFFFFFFFFFFFFFFFFFFFFFFFFFFFFFFFFFFFFFF AND PUSH32 0x8BE0079C531659141344CD1FD0A4F28419497F9722A3DAAFE3B4186F6B6457E0 PUSH1 0x40 MLOAD PUSH1 0x40 MLOAD DUP1 SWAP2 SUB SWAP1 LOG3 POP POP JUMP JUMPDEST PUSH1 0x0 PUSH20 0xFFFFFFFFFFFFFFFFFFFFFFFFFFFFFFFFFFFFFFFF AND DUP3 PUSH20 0xFFFFFFFFFFFFFFFFFFFFFFFFFFFFFFFFFFFFFFFF AND SUB PUSH2 0x1B3C JUMPI PUSH1 0x0 PUSH1 0x40 MLOAD PUSH32 0x96C6FD1E00000000000000000000000000000000000000000000000000000000 DUP2 MSTORE PUSH1 0x4 ADD PUSH2 0x1B33 SWAP2 SWAP1 PUSH2 0x222D JUMP JUMPDEST PUSH1 0x40 MLOAD DUP1 SWAP2 SUB SWAP1 REVERT JUMPDEST PUSH2 0x1B48 DUP3 PUSH1 0x0 DUP4 PUSH2 0x1E38 JUMP JUMPDEST POP POP JUMP JUMPDEST PUSH1 0x0 PUSH1 0x3 DUP3 GT ISZERO PUSH2 0x1BB3 JUMPI DUP2 SWAP1 POP PUSH1 0x0 PUSH1 0x1 PUSH1 0x2 DUP5 PUSH2 0x1B6B SWAP2 SWAP1 PUSH2 0x26A1 JUMP JUMPDEST PUSH2 0x1B75 SWAP2 SWAP1 PUSH2 0x26D2 JUMP JUMPDEST SWAP1 POP JUMPDEST DUP2 DUP2 LT ISZERO PUSH2 0x1BAD JUMPI DUP1 SWAP2 POP PUSH1 0x2 DUP2 DUP3 DUP6 PUSH2 0x1B92 SWAP2 SWAP1 PUSH2 0x26A1 JUMP JUMPDEST PUSH2 0x1B9C SWAP2 SWAP1 PUSH2 0x26D2 JUMP JUMPDEST PUSH2 0x1BA6 SWAP2 SWAP1 PUSH2 0x26A1 JUMP JUMPDEST SWAP1 POP PUSH2 0x1B78 JUMP JUMPDEST POP PUSH2 0x1BC1 JUMP JUMPDEST PUSH1 0x0 DUP3 EQ PUSH2 0x1BC0 JUMPI PUSH1 0x1 SWAP1 POP JUMPDEST JUMPDEST SWAP2 SWAP1 POP JUMP JUMPDEST PUSH1 0x0 DUP2 DUP4 LT PUSH2 0x1BD5 JUMPI DUP2 PUSH2 0x1BD7 JUMP JUMPDEST DUP3 JUMPDEST SWAP1 POP SWAP3 SWAP2 POP POP JUMP JUMPDEST PUSH1 0x0 PUSH20 0xFFFFFFFFFFFFFFFFFFFFFFFFFFFFFFFFFFFFFFFF AND DUP3 PUSH20 0xFFFFFFFFFFFFFFFFFFFFFFFFFFFFFFFFFFFFFFFF AND SUB PUSH2 0x1C51 JUMPI PUSH1 0x0 PUSH1 0x40 MLOAD PUSH32 0xEC442F0500000000000000000000000000000000000000000000000000000000 DUP2 MSTORE PUSH1 0x4 ADD PUSH2 0x1C48 SWAP2 SWAP1 PUSH2 0x222D JUMP JUMPDEST PUSH1 0x40 MLOAD DUP1 SWAP2 SUB SWAP1 REVERT JUMPDEST PUSH2 0x1C5D PUSH1 0x0 DUP4 DUP4 PUSH2 0x1E38 JUMP JUMPDEST POP POP JUMP JUMPDEST PUSH1 0x0 PUSH20 0xFFFFFFFFFFFFFFFFFFFFFFFFFFFFFFFFFFFFFFFF AND DUP5 PUSH20 0xFFFFFFFFFFFFFFFFFFFFFFFFFFFFFFFFFFFFFFFF AND SUB PUSH2 0x1CD3 JUMPI PUSH1 0x0 PUSH1 0x40 MLOAD PUSH32 0xE602DF0500000000000000000000000000000000000000000000000000000000 DUP2 MSTORE PUSH1 0x4 ADD PUSH2 0x1CCA SWAP2 SWAP1 PUSH2 0x222D JUMP JUMPDEST PUSH1 0x40 MLOAD DUP1 SWAP2 SUB SWAP1 REVERT JUMPDEST PUSH1 0x0 PUSH20 0xFFFFFFFFFFFFFFFFFFFFFFFFFFFFFFFFFFFFFFFF AND DUP4 PUSH20 0xFFFFFFFFFFFFFFFFFFFFFFFFFFFFFFFFFFFFFFFF AND SUB PUSH2 0x1D45 JUMPI PUSH1 0x0 PUSH1 0x40 MLOAD PUSH32 0x94280D6200000000000000000000000000000000000000000000000000000000 DUP2 MSTORE PUSH1 0x4 ADD PUSH2 0x1D3C SWAP2 SWAP1 PUSH2 0x222D JUMP JUMPDEST PUSH1 0x40 MLOAD DUP1 SWAP2 SUB SWAP1 REVERT JUMPDEST DUP2 PUSH1 0x1 PUSH1 0x0 DUP7 PUSH20 0xFFFFFFFFFFFFFFFFFFFFFFFFFFFFFFFFFFFFFFFF AND PUSH20 0xFFFFFFFFFFFFFFFFFFFFFFFFFFFFFFFFFFFFFFFF AND DUP2 MSTORE PUSH1 0x20 ADD SWAP1 DUP2 MSTORE PUSH1 0x20 ADD PUSH1 0x0 KECCAK256 PUSH1 0x0 DUP6 PUSH20 0xFFFFFFFFFFFFFFFFFFFFFFFFFFFFFFFFFFFFFFFF AND PUSH20 0xFFFFFFFFFFFFFFFFFFFFFFFFFFFFFFFFFFFFFFFF AND DUP2 MSTORE PUSH1 0x20 ADD SWAP1 DUP2 MSTORE PUSH1 0x20 ADD PUSH1 0x0 KECCAK256 DUP2 SWAP1 SSTORE POP DUP1 ISZERO PUSH2 0x1E32 JUMPI DUP3 PUSH20 0xFFFFFFFFFFFFFFFFFFFFFFFFFFFFFFFFFFFFFFFF AND DUP5 PUSH20 0xFFFFFFFFFFFFFFFFFFFFFFFFFFFFFFFFFFFFFFFF AND PUSH32 0x8C5BE1E5EBEC7D5BD14F71427D1E84F3DD0314C0F7B2291E5B200AC8C7C3B925 DUP5 PUSH1 0x40 MLOAD PUSH2 0x1E29 SWAP2 SWAP1 PUSH2 0x2257 JUMP JUMPDEST PUSH1 0x40 MLOAD DUP1 SWAP2 SUB SWAP1 LOG3 JUMPDEST POP POP POP POP JUMP JUMPDEST PUSH1 0x0 PUSH20 0xFFFFFFFFFFFFFFFFFFFFFFFFFFFFFFFFFFFFFFFF AND DUP4 PUSH20 0xFFFFFFFFFFFFFFFFFFFFFFFFFFFFFFFFFFFFFFFF AND SUB PUSH2 0x1E8A JUMPI DUP1 PUSH1 0x2 PUSH1 0x0 DUP3 DUP3 SLOAD PUSH2 0x1E7E SWAP2 SWAP1 PUSH2 0x26D2 JUMP JUMPDEST SWAP3 POP POP DUP2 SWAP1 SSTORE POP PUSH2 0x1F5D JUMP JUMPDEST PUSH1 0x0 DUP1 PUSH1 0x0 DUP6 PUSH20 0xFFFFFFFFFFFFFFFFFFFFFFFFFFFFFFFFFFFFFFFF AND PUSH20 0xFFFFFFFFFFFFFFFFFFFFFFFFFFFFFFFFFFFFFFFF AND DUP2 MSTORE PUSH1 0x20 ADD SWAP1 DUP2 MSTORE PUSH1 0x20 ADD PUSH1 0x0 KECCAK256 SLOAD SWAP1 POP DUP2 DUP2 LT ISZERO PUSH2 0x1F16 JUMPI DUP4 DUP2 DUP4 PUSH1 0x40 MLOAD PUSH32 0xE450D38C00000000000000000000000000000000000000000000000000000000 DUP2 MSTORE PUSH1 0x4 ADD PUSH2 0x1F0D SWAP4 SWAP3 SWAP2 SWAP1 PUSH2 0x27DD JUMP JUMPDEST PUSH1 0x40 MLOAD DUP1 SWAP2 SUB SWAP1 REVERT JUMPDEST DUP2 DUP2 SUB PUSH1 0x0 DUP1 DUP7 PUSH20 0xFFFFFFFFFFFFFFFFFFFFFFFFFFFFFFFFFFFFFFFF AND PUSH20 0xFFFFFFFFFFFFFFFFFFFFFFFFFFFFFFFFFFFFFFFF AND DUP2 MSTORE PUSH1 0x20 ADD SWAP1 DUP2 MSTORE PUSH1 0x20 ADD PUSH1 0x0 KECCAK256 DUP2 SWAP1 SSTORE POP POP JUMPDEST PUSH1 0x0 PUSH20 0xFFFFFFFFFFFFFFFFFFFFFFFFFFFFFFFFFFFFFFFF AND DUP3 PUSH20 0xFFFFFFFFFFFFFFFFFFFFFFFFFFFFFFFFFFFFFFFF AND SUB PUSH2 0x1FA6 JUMPI DUP1 PUSH1 0x2 PUSH1 0x0 DUP3 DUP3 SLOAD SUB SWAP3 POP POP DUP2 SWAP1 SSTORE POP PUSH2 0x1FF3 JUMP JUMPDEST DUP1 PUSH1 0x0 DUP1 DUP5 PUSH20 0xFFFFFFFFFFFFFFFFFFFFFFFFFFFFFFFFFFFFFFFF AND PUSH20 0xFFFFFFFFFFFFFFFFFFFFFFFFFFFFFFFFFFFFFFFF AND DUP2 MSTORE PUSH1 0x20 ADD SWAP1 DUP2 MSTORE PUSH1 0x20 ADD PUSH1 0x0 KECCAK256 PUSH1 0x0 DUP3 DUP3 SLOAD ADD SWAP3 POP POP DUP2 SWAP1 SSTORE POP JUMPDEST DUP2 PUSH20 0xFFFFFFFFFFFFFFFFFFFFFFFFFFFFFFFFFFFFFFFF AND DUP4 PUSH20 0xFFFFFFFFFFFFFFFFFFFFFFFFFFFFFFFFFFFFFFFF AND PUSH32 0xDDF252AD1BE2C89B69C2B068FC378DAA952BA7F163C4A11628F55A4DF523B3EF DUP4 PUSH1 0x40 MLOAD PUSH2 0x2050 SWAP2 SWAP1 PUSH2 0x2257 JUMP JUMPDEST PUSH1 0x40 MLOAD DUP1 SWAP2 SUB SWAP1 LOG3 POP POP POP JUMP JUMPDEST PUSH1 0x0 DUP2 MLOAD SWAP1 POP SWAP2 SWAP1 POP JUMP JUMPDEST PUSH1 0x0 DUP3 DUP3 MSTORE PUSH1 0x20 DUP3 ADD SWAP1 POP SWAP3 SWAP2 POP POP JUMP JUMPDEST PUSH1 0x0 JUMPDEST DUP4 DUP2 LT ISZERO PUSH2 0x2097 JUMPI DUP1 DUP3 ADD MLOAD DUP2 DUP5 ADD MSTORE PUSH1 0x20 DUP2 ADD SWAP1 POP PUSH2 0x207C JUMP JUMPDEST PUSH1 0x0 DUP5 DUP5 ADD MSTORE POP POP POP POP JUMP JUMPDEST PUSH1 0x0 PUSH1 0x1F NOT PUSH1 0x1F DUP4 ADD AND SWAP1 POP SWAP2 SWAP1 POP JUMP JUMPDEST PUSH1 0x0 PUSH2 0x20BF DUP3 PUSH2 0x205D JUMP JUMPDEST PUSH2 0x20C9 DUP2 DUP6 PUSH2 0x2068 JUMP JUMPDEST SWAP4 POP PUSH2 0x20D9 DUP2 DUP6 PUSH1 0x20 DUP7 ADD PUSH2 0x2079 JUMP JUMPDEST PUSH2 0x20E2 DUP2 PUSH2 0x20A3 JUMP JUMPDEST DUP5 ADD SWAP2 POP POP SWAP3 SWAP2 POP POP JUMP JUMPDEST PUSH1 0x0 PUSH1 0x20 DUP3 ADD SWAP1 POP DUP2 DUP2 SUB PUSH1 0x0 DUP4 ADD MSTORE PUSH2 0x2107 DUP2 DUP5 PUSH2 0x20B4 JUMP JUMPDEST SWAP1 POP SWAP3 SWAP2 POP POP JUMP JUMPDEST PUSH1 0x0 DUP1 REVERT JUMPDEST PUSH1 0x0 PUSH20 0xFFFFFFFFFFFFFFFFFFFFFFFFFFFFFFFFFFFFFFFF DUP3 AND SWAP1 POP SWAP2 SWAP1 POP JUMP JUMPDEST PUSH1 0x0 PUSH2 0x213F DUP3 PUSH2 0x2114 JUMP JUMPDEST SWAP1 POP SWAP2 SWAP1 POP JUMP JUMPDEST PUSH2 0x214F DUP2 PUSH2 0x2134 JUMP JUMPDEST DUP2 EQ PUSH2 0x215A JUMPI PUSH1 0x0 DUP1 REVERT JUMPDEST POP JUMP JUMPDEST PUSH1 0x0 DUP2 CALLDATALOAD SWAP1 POP PUSH2 0x216C DUP2 PUSH2 0x2146 JUMP JUMPDEST SWAP3 SWAP2 POP POP JUMP JUMPDEST PUSH1 0x0 DUP2 SWAP1 POP SWAP2 SWAP1 POP JUMP JUMPDEST PUSH2 0x2185 DUP2 PUSH2 0x2172 JUMP JUMPDEST DUP2 EQ PUSH2 0x2190 JUMPI PUSH1 0x0 DUP1 REVERT JUMPDEST POP JUMP JUMPDEST PUSH1 0x0 DUP2 CALLDATALOAD SWAP1 POP PUSH2 0x21A2 DUP2 PUSH2 0x217C JUMP JUMPDEST SWAP3 SWAP2 POP POP JUMP JUMPDEST PUSH1 0x0 DUP1 PUSH1 0x40 DUP4 DUP6 SUB SLT ISZERO PUSH2 0x21BF JUMPI PUSH2 0x21BE PUSH2 0x210F JUMP JUMPDEST JUMPDEST PUSH1 0x0 PUSH2 0x21CD DUP6 DUP3 DUP7 ADD PUSH2 0x215D JUMP JUMPDEST SWAP3 POP POP PUSH1 0x20 PUSH2 0x21DE DUP6 DUP3 DUP7 ADD PUSH2 0x2193 JUMP JUMPDEST SWAP2 POP POP SWAP3 POP SWAP3 SWAP1 POP JUMP JUMPDEST PUSH1 0x0 DUP2 ISZERO ISZERO SWAP1 POP SWAP2 SWAP1 POP JUMP JUMPDEST PUSH2 0x21FD DUP2 PUSH2 0x21E8 JUMP JUMPDEST DUP3 MSTORE POP POP JUMP JUMPDEST PUSH1 0x0 PUSH1 0x20 DUP3 ADD SWAP1 POP PUSH2 0x2218 PUSH1 0x0 DUP4 ADD DUP5 PUSH2 0x21F4 JUMP JUMPDEST SWAP3 SWAP2 POP POP JUMP JUMPDEST PUSH2 0x2227 DUP2 PUSH2 0x2134 JUMP JUMPDEST DUP3 MSTORE POP POP JUMP JUMPDEST PUSH1 0x0 PUSH1 0x20 DUP3 ADD SWAP1 POP PUSH2 0x2242 PUSH1 0x0 DUP4 ADD DUP5 PUSH2 0x221E JUMP JUMPDEST SWAP3 SWAP2 POP POP JUMP JUMPDEST PUSH2 0x2251 DUP2 PUSH2 0x2172 JUMP JUMPDEST DUP3 MSTORE POP POP JUMP JUMPDEST PUSH1 0x0 PUSH1 0x20 DUP3 ADD SWAP1 POP PUSH2 0x226C PUSH1 0x0 DUP4 ADD DUP5 PUSH2 0x2248 JUMP JUMPDEST SWAP3 SWAP2 POP POP JUMP JUMPDEST PUSH1 0x0 DUP1 PUSH1 0x0 PUSH1 0x60 DUP5 DUP7 SUB SLT ISZERO PUSH2 0x228B JUMPI PUSH2 0x228A PUSH2 0x210F JUMP JUMPDEST JUMPDEST PUSH1 0x0 PUSH2 0x2299 DUP7 DUP3 DUP8 ADD PUSH2 0x215D JUMP JUMPDEST SWAP4 POP POP PUSH1 0x20 PUSH2 0x22AA DUP7 DUP3 DUP8 ADD PUSH2 0x215D JUMP JUMPDEST SWAP3 POP POP PUSH1 0x40 PUSH2 0x22BB DUP7 DUP3 DUP8 ADD PUSH2 0x2193 JUMP JUMPDEST SWAP2 POP POP SWAP3 POP SWAP3 POP SWAP3 JUMP JUMPDEST PUSH2 0x22CE DUP2 PUSH2 0x21E8 JUMP JUMPDEST DUP2 EQ PUSH2 0x22D9 JUMPI PUSH1 0x0 DUP1 REVERT JUMPDEST POP JUMP JUMPDEST PUSH1 0x0 DUP2 CALLDATALOAD SWAP1 POP PUSH2 0x22EB DUP2 PUSH2 0x22C5 JUMP JUMPDEST SWAP3 SWAP2 POP POP JUMP JUMPDEST PUSH1 0x0 DUP1 PUSH1 0x40 DUP4 DUP6 SUB SLT ISZERO PUSH2 0x2308 JUMPI PUSH2 0x2307 PUSH2 0x210F JUMP JUMPDEST JUMPDEST PUSH1 0x0 PUSH2 0x2316 DUP6 DUP3 DUP7 ADD PUSH2 0x215D JUMP JUMPDEST SWAP3 POP POP PUSH1 0x20 PUSH2 0x2327 DUP6 DUP3 DUP7 ADD PUSH2 0x22DC JUMP JUMPDEST SWAP2 POP POP SWAP3 POP SWAP3 SWAP1 POP JUMP JUMPDEST PUSH1 0x0 PUSH1 0xFF DUP3 AND SWAP1 POP SWAP2 SWAP1 POP JUMP JUMPDEST PUSH2 0x2347 DUP2 PUSH2 0x2331 JUMP JUMPDEST DUP3 MSTORE POP POP JUMP JUMPDEST PUSH1 0x0 PUSH1 0x20 DUP3 ADD SWAP1 POP PUSH2 0x2362 PUSH1 0x0 DUP4 ADD DUP5 PUSH2 0x233E JUMP JUMPDEST SWAP3 SWAP2 POP POP JUMP JUMPDEST PUSH1 0x0 PUSH1 0x20 DUP3 DUP5 SUB SLT ISZERO PUSH2 0x237E JUMPI PUSH2 0x237D PUSH2 0x210F JUMP JUMPDEST JUMPDEST PUSH1 0x0 PUSH2 0x238C DUP5 DUP3 DUP6 ADD PUSH2 0x215D JUMP JUMPDEST SWAP2 POP POP SWAP3 SWAP2 POP POP JUMP JUMPDEST PUSH1 0x0 PUSH1 0x20 DUP3 DUP5 SUB SLT ISZERO PUSH2 0x23AB JUMPI PUSH2 0x23AA PUSH2 0x210F JUMP JUMPDEST JUMPDEST PUSH1 0x0 PUSH2 0x23B9 DUP5 DUP3 DUP6 ADD PUSH2 0x2193 JUMP JUMPDEST SWAP2 POP POP SWAP3 SWAP2 POP POP JUMP JUMPDEST PUSH1 0x0 DUP1 PUSH1 0x40 DUP4 DUP6 SUB SLT ISZERO PUSH2 0x23D9 JUMPI PUSH2 0x23D8 PUSH2 0x210F JUMP JUMPDEST JUMPDEST PUSH1 0x0 PUSH2 0x23E7 DUP6 DUP3 DUP7 ADD PUSH2 0x2193 JUMP JUMPDEST SWAP3 POP POP PUSH1 0x20 PUSH2 0x23F8 DUP6 DUP3 DUP7 ADD PUSH2 0x2193 JUMP JUMPDEST SWAP2 POP POP SWAP3 POP SWAP3 SWAP1 POP JUMP JUMPDEST PUSH1 0x0 DUP1 PUSH1 0x0 PUSH1 0x60 DUP5 DUP7 SUB SLT ISZERO PUSH2 0x241B JUMPI PUSH2 0x241A PUSH2 0x210F JUMP JUMPDEST JUMPDEST PUSH1 0x0 PUSH2 0x2429 DUP7 DUP3 DUP8 ADD PUSH2 0x215D JUMP JUMPDEST SWAP4 POP POP PUSH1 0x20 PUSH2 0x243A DUP7 DUP3 DUP8 ADD PUSH2 0x2193 JUMP JUMPDEST SWAP3 POP POP PUSH1 0x40 PUSH2 0x244B DUP7 DUP3 DUP8 ADD PUSH2 0x2193 JUMP JUMPDEST SWAP2 POP POP SWAP3 POP SWAP3 POP SWAP3 JUMP JUMPDEST PUSH1 0x0 DUP1 PUSH1 0x40 DUP4 DUP6 SUB SLT ISZERO PUSH2 0x246C JUMPI PUSH2 0x246B PUSH2 0x210F JUMP JUMPDEST JUMPDEST PUSH1 0x0 PUSH2 0x247A DUP6 DUP3 DUP7 ADD PUSH2 0x215D JUMP JUMPDEST SWAP3 POP POP PUSH1 0x20 PUSH2 0x248B DUP6 DUP3 DUP7 ADD PUSH2 0x215D JUMP JUMPDEST SWAP2 POP POP SWAP3 POP SWAP3 SWAP1 POP JUMP JUMPDEST PUSH32 0x4E487B7100000000000000000000000000000000000000000000000000000000 PUSH1 0x0 MSTORE PUSH1 0x22 PUSH1 0x4 MSTORE PUSH1 0x24 PUSH1 0x0 REVERT JUMPDEST PUSH1 0x0 PUSH1 0x2 DUP3 DIV SWAP1 POP PUSH1 0x1 DUP3 AND DUP1 PUSH2 0x24DC JUMPI PUSH1 0x7F DUP3 AND SWAP2 POP JUMPDEST PUSH1 0x20 DUP3 LT DUP2 SUB PUSH2 0x24EF JUMPI PUSH2 0x24EE PUSH2 0x2495 JUMP JUMPDEST JUMPDEST POP SWAP2 SWAP1 POP JUMP JUMPDEST PUSH32 0x496E76616C696420746F6B656E00000000000000000000000000000000000000 PUSH1 0x0 DUP3 ADD MSTORE POP JUMP JUMPDEST PUSH1 0x0 PUSH2 0x252B PUSH1 0xD DUP4 PUSH2 0x2068 JUMP JUMPDEST SWAP2 POP PUSH2 0x2536 DUP3 PUSH2 0x24F5 JUMP JUMPDEST PUSH1 0x20 DUP3 ADD SWAP1 POP SWAP2 SWAP1 POP JUMP JUMPDEST PUSH1 0x0 PUSH1 0x20 DUP3 ADD SWAP1 POP DUP2 DUP2 SUB PUSH1 0x0 DUP4 ADD MSTORE PUSH2 0x255A DUP2 PUSH2 0x251E JUMP JUMPDEST SWAP1 POP SWAP2 SWAP1 POP JUMP JUMPDEST PUSH32 0x456D70747920706F6F6C00000000000000000000000000000000000000000000 PUSH1 0x0 DUP3 ADD MSTORE POP JUMP JUMPDEST PUSH1 0x0 PUSH2 0x2597 PUSH1 0xA DUP4 PUSH2 0x2068 JUMP JUMPDEST SWAP2 POP PUSH2 0x25A2 DUP3 PUSH2 0x2561 JUMP JUMPDEST PUSH1 0x20 DUP3 ADD SWAP1 POP SWAP2 SWAP1 POP JUMP JUMPDEST PUSH1 0x0 PUSH1 0x20 DUP3 ADD SWAP1 POP DUP2 DUP2 SUB PUSH1 0x0 DUP4 ADD MSTORE PUSH2 0x25C6 DUP2 PUSH2 0x258A JUMP JUMPDEST SWAP1 POP SWAP2 SWAP1 POP JUMP JUMPDEST PUSH32 0x4E487B7100000000000000000000000000000000000000000000000000000000 PUSH1 0x0 MSTORE PUSH1 0x11 PUSH1 0x4 MSTORE PUSH1 0x24 PUSH1 0x0 REVERT JUMPDEST PUSH1 0x0 PUSH2 0x2607 DUP3 PUSH2 0x2172 JUMP JUMPDEST SWAP2 POP PUSH2 0x2612 DUP4 PUSH2 0x2172 JUMP JUMPDEST SWAP3 POP DUP3 DUP3 SUB SWAP1 POP DUP2 DUP2 GT ISZERO PUSH2 0x262A JUMPI PUSH2 0x2629 PUSH2 0x25CD JUMP JUMPDEST JUMPDEST SWAP3 SWAP2 POP POP JUMP JUMPDEST PUSH1 0x0 PUSH2 0x263B DUP3 PUSH2 0x2172 JUMP JUMPDEST SWAP2 POP PUSH2 0x2646 DUP4 PUSH2 0x2172 JUMP JUMPDEST SWAP3 POP DUP3 DUP3 MUL PUSH2 0x2654 DUP2 PUSH2 0x2172 JUMP JUMPDEST SWAP2 POP DUP3 DUP3 DIV DUP5 EQ DUP4 ISZERO OR PUSH2 0x266B JUMPI PUSH2 0x266A PUSH2 0x25CD JUMP JUMPDEST JUMPDEST POP SWAP3 SWAP2 POP POP JUMP JUMPDEST PUSH32 0x4E487B7100000000000000000000000000000000000000000000000000000000 PUSH1 0x0 MSTORE PUSH1 0x12 PUSH1 0x4 MSTORE PUSH1 0x24 PUSH1 0x0 REVERT JUMPDEST PUSH1 0x0 PUSH2 0x26AC DUP3 PUSH2 0x2172 JUMP JUMPDEST SWAP2 POP PUSH2 0x26B7 DUP4 PUSH2 0x2172 JUMP JUMPDEST SWAP3 POP DUP3 PUSH2 0x26C7 JUMPI PUSH2 0x26C6 PUSH2 0x2672 JUMP JUMPDEST JUMPDEST DUP3 DUP3 DIV SWAP1 POP SWAP3 SWAP2 POP POP JUMP JUMPDEST PUSH1 0x0 PUSH2 0x26DD DUP3 PUSH2 0x2172 JUMP JUMPDEST SWAP2 POP PUSH2 0x26E8 DUP4 PUSH2 0x2172 JUMP JUMPDEST SWAP3 POP DUP3 DUP3 ADD SWAP1 POP DUP1 DUP3 GT ISZERO PUSH2 0x2700 JUMPI PUSH2 0x26FF PUSH2 0x25CD JUMP JUMPDEST JUMPDEST SWAP3 SWAP2 POP POP JUMP JUMPDEST PUSH32 0x496E73756666696369656E74206F757470757400000000000000000000000000 PUSH1 0x0 DUP3 ADD MSTORE POP JUMP JUMPDEST PUSH1 0x0 PUSH2 0x273C PUSH1 0x13 DUP4 PUSH2 0x2068 JUMP JUMPDEST SWAP2 POP PUSH2 0x2747 DUP3 PUSH2 0x2706 JUMP JUMPDEST PUSH1 0x20 DUP3 ADD SWAP1 POP SWAP2 SWAP1 POP JUMP JUMPDEST PUSH1 0x0 PUSH1 0x20 DUP3 ADD SWAP1 POP DUP2 DUP2 SUB PUSH1 0x0 DUP4 ADD MSTORE PUSH2 0x276B DUP2 PUSH2 0x272F JUMP JUMPDEST SWAP1 POP SWAP2 SWAP1 POP JUMP JUMPDEST PUSH1 0x0 PUSH1 0x40 DUP3 ADD SWAP1 POP PUSH2 0x2787 PUSH1 0x0 DUP4 ADD DUP6 PUSH2 0x221E JUMP JUMPDEST PUSH2 0x2794 PUSH1 0x20 DUP4 ADD DUP5 PUSH2 0x2248 JUMP JUMPDEST SWAP4 SWAP3 POP POP POP JUMP JUMPDEST PUSH1 0x0 DUP2 MLOAD SWAP1 POP PUSH2 0x27AA DUP2 PUSH2 0x22C5 JUMP JUMPDEST SWAP3 SWAP2 POP POP JUMP JUMPDEST PUSH1 0x0 PUSH1 0x20 DUP3 DUP5 SUB SLT ISZERO PUSH2 0x27C6 JUMPI PUSH2 0x27C5 PUSH2 0x210F JUMP JUMPDEST JUMPDEST PUSH1 0x0 PUSH2 0x27D4 DUP5 DUP3 DUP6 ADD PUSH2 0x279B JUMP JUMPDEST SWAP2 POP POP SWAP3 SWAP2 POP POP JUMP JUMPDEST PUSH1 0x0 PUSH1 0x60 DUP3 ADD SWAP1 POP PUSH2 0x27F2 PUSH1 0x0 DUP4 ADD DUP7 PUSH2 0x221E JUMP JUMPDEST PUSH2 0x27FF PUSH1 0x20 DUP4 ADD DUP6 PUSH2 0x2248 JUMP JUMPDEST PUSH2 0x280C PUSH1 0x40 DUP4 ADD DUP5 PUSH2 0x2248 JUMP JUMPDEST SWAP5 SWAP4 POP POP POP POP JUMP JUMPDEST PUSH1 0x0 PUSH1 0x80 DUP3 ADD SWAP1 POP PUSH2 0x2829 PUSH1 0x0 DUP4 ADD DUP8 PUSH2 0x221E JUMP JUMPDEST PUSH2 0x2836 PUSH1 0x20 DUP4 ADD DUP7 PUSH2 0x221E JUMP JUMPDEST PUSH2 0x2843 PUSH1 0x40 DUP4 ADD DUP6 PUSH2 0x2248 JUMP JUMPDEST PUSH2 0x2850 PUSH1 0x60 DUP4 ADD DUP5 PUSH2 0x2248 JUMP JUMPDEST SWAP6 SWAP5 POP POP POP POP POP JUMP JUMPDEST PUSH32 0x546F6F2068696768000000000000000000000000000000000000000000000000 PUSH1 0x0 DUP3 ADD MSTORE POP JUMP JUMPDEST PUSH1 0x0 PUSH2 0x288F PUSH1 0x8 DUP4 PUSH2 0x2068 JUMP JUMPDEST SWAP2 POP PUSH2 0x289A DUP3 PUSH2 0x2859 JUMP JUMPDEST PUSH1 0x20 DUP3 ADD SWAP1 POP SWAP2 SWAP1 POP JUMP JUMPDEST PUSH1 0x0 PUSH1 0x20 DUP3 ADD SWAP1 POP DUP2 DUP2 SUB PUSH1 0x0 DUP4 ADD MSTORE PUSH2 0x28BE DUP2 PUSH2 0x2882 JUMP JUMPDEST SWAP1 POP SWAP2 SWAP1 POP JUMP JUMPDEST PUSH32 0x4E6F7420616C6C6F7765643A204E6F74204C5000000000000000000000000000 PUSH1 0x0 DUP3 ADD MSTORE POP JUMP JUMPDEST PUSH1 0x0 PUSH2 0x28FB PUSH1 0x13 DUP4 PUSH2 0x2068 JUMP JUMPDEST SWAP2 POP PUSH2 0x2906 DUP3 PUSH2 0x28C5 JUMP JUMPDEST PUSH1 0x20 DUP3 ADD SWAP1 POP SWAP2 SWAP1 POP JUMP JUMPDEST PUSH1 0x0 PUSH1 0x20 DUP3 ADD SWAP1 POP DUP2 DUP2 SUB PUSH1 0x0 DUP4 ADD MSTORE PUSH2 0x292A DUP2 PUSH2 0x28EE JUMP JUMPDEST SWAP1 POP SWAP2 SWAP1 POP JUMP JUMPDEST PUSH1 0x0 PUSH1 0x60 DUP3 ADD SWAP1 POP PUSH2 0x2946 PUSH1 0x0 DUP4 ADD DUP7 PUSH2 0x2248 JUMP JUMPDEST PUSH2 0x2953 PUSH1 0x20 DUP4 ADD DUP6 PUSH2 0x2248 JUMP JUMPDEST PUSH2 0x2960 PUSH1 0x40 DUP4 ADD DUP5 PUSH2 0x2248 JUMP JUMPDEST SWAP5 SWAP4 POP POP POP POP JUMP JUMPDEST PUSH1 0x0 PUSH1 0x60 DUP3 ADD SWAP1 POP PUSH2 0x297D PUSH1 0x0 DUP4 ADD DUP7 PUSH2 0x221E JUMP JUMPDEST PUSH2 0x298A PUSH1 0x20 DUP4 ADD DUP6 PUSH2 0x221E JUMP JUMPDEST PUSH2 0x2997 PUSH1 0x40 DUP4 ADD DUP5 PUSH2 0x2248 JUMP JUMPDEST SWAP5 SWAP4 POP POP POP POP JUMP JUMPDEST PUSH32 0x536C69707061676520746F6F2068696768000000000000000000000000000000 PUSH1 0x0 DUP3 ADD MSTORE POP JUMP JUMPDEST PUSH1 0x0 PUSH2 0x29D5 PUSH1 0x11 DUP4 PUSH2 0x2068 JUMP JUMPDEST SWAP2 POP PUSH2 0x29E0 DUP3 PUSH2 0x299F JUMP JUMPDEST PUSH1 0x20 DUP3 ADD SWAP1 POP SWAP2 SWAP1 POP JUMP JUMPDEST PUSH1 0x0 PUSH1 0x20 DUP3 ADD SWAP1 POP DUP2 DUP2 SUB PUSH1 0x0 DUP4 ADD MSTORE PUSH2 0x2A04 DUP2 PUSH2 0x29C8 JUMP JUMPDEST SWAP1 POP SWAP2 SWAP1 POP JUMP INVALID LOG2 PUSH5 0x6970667358 0x22 SLT KECCAK256 JUMPDEST 0xBC PUSH17 0xD9144C673A8E6413F16CEED95F6E4E0B1A PUSH30 0x344476B808F239DAA1229264736F6C634300081C00330000000000000000 "},"methodIdentifiers":{"addLiquidity(uint256,uint256)":"9cd441da","allowance(address,address)":"dd62ed3e","approve(address,uint256)":"095ea7b3","balanceOf(address)":"70a08231","buyWithETH(address)":"444aa92f","decimals()":"313ce567","feeRate()":"978bbdb9","isLP(address)":"7df0f767","name()":"06fdde03","owner()":"8da5cb5b","removeLiquidity(uint256)":"9c8f9f23","renounceOwnership()":"715018a6","reserveA()":"dc5fa6c5","reserveB()":"19e36f3b","setFeeRate(uint256)":"45596e2e","setLP(address,bool)":"28d67938","swap(address,uint256,uint256)":"9f1d0f59","symbol()":"95d89b41","tokenA()":"0fc63d10","tokenB()":"5f64b55b","totalSupply()":"18160ddd","transfer(address,uint256)":"a9059cbb","transferFrom(address,address,uint256)":"23b872dd","transferOwnership(address)":"f2fde38b"}}}}}