{
  "_format": "hh-sol-artifact-1",
  "contractName": "AMM",
  "sourceName": "contracts/AMM.sol",
  "abi": [
    {
      "inputs": [
        {
          "internalType": "address",
          "name": "_tokenA",
          "type": "address"
        },
        {
          "internalType": "address",
          "name": "_tokenB",
          "type": "address"
        }
      ],
      "stateMutability": "nonpayable",
      "type": "constructor"
    },
    {
      "inputs": [
        {
          "internalType": "address",
          "name": "spender",
          "type": "address"
        },
        {
          "internalType": "uint256",
          "name": "allowance",
          "type": "uint256"
        },
        {
          "internalType": "uint256",
          "name": "needed",
          "type": "uint256"
        }
      ],
      "name": "ERC20InsufficientAllowance",
      "type": "error"
    },
    {
      "inputs": [
        {
          "internalType": "address",
          "name": "sender",
          "type": "address"
        },
        {
          "internalType": "uint256",
          "name": "balance",
          "type": "uint256"
        },
        {
          "internalType": "uint256",
          "name": "needed",
          "type": "uint256"
        }
      ],
      "name": "ERC20InsufficientBalance",
      "type": "error"
    },
    {
      "inputs": [
        {
          "internalType": "address",
          "name": "approver",
          "type": "address"
        }
      ],
      "name": "ERC20InvalidApprover",
      "type": "error"
    },
    {
      "inputs": [
        {
          "internalType": "address",
          "name": "receiver",
          "type": "address"
        }
      ],
      "name": "ERC20InvalidReceiver",
      "type": "error"
    },
    {
      "inputs": [
        {
          "internalType": "address",
          "name": "sender",
          "type": "address"
        }
      ],
      "name": "ERC20InvalidSender",
      "type": "error"
    },
    {
      "inputs": [
        {
          "internalType": "address",
          "name": "spender",
          "type": "address"
        }
      ],
      "name": "ERC20InvalidSpender",
      "type": "error"
    },
    {
      "inputs": [
        {
          "internalType": "address",
          "name": "owner",
          "type": "address"
        }
      ],
      "name": "OwnableInvalidOwner",
      "type": "error"
    },
    {
      "inputs": [
        {
          "internalType": "address",
          "name": "account",
          "type": "address"
        }
      ],
      "name": "OwnableUnauthorizedAccount",
      "type": "error"
    },
    {
      "anonymous": false,
      "inputs": [
        {
          "indexed": true,
          "internalType": "address",
          "name": "provider",
          "type": "address"
        },
        {
          "indexed": false,
          "internalType": "uint256",
          "name": "amountA",
          "type": "uint256"
        },
        {
          "indexed": false,
          "internalType": "uint256",
          "name": "amountB",
          "type": "uint256"
        },
        {
          "indexed": false,
          "internalType": "uint256",
          "name": "liquidity",
          "type": "uint256"
        }
      ],
      "name": "AddLiquidity",
      "type": "event"
    },
    {
      "anonymous": false,
      "inputs": [
        {
          "indexed": true,
          "internalType": "address",
          "name": "owner",
          "type": "address"
        },
        {
          "indexed": true,
          "internalType": "address",
          "name": "spender",
          "type": "address"
        },
        {
          "indexed": false,
          "internalType": "uint256",
          "name": "value",
          "type": "uint256"
        }
      ],
      "name": "Approval",
      "type": "event"
    },
    {
      "anonymous": false,
      "inputs": [
        {
          "indexed": true,
          "internalType": "address",
          "name": "buyer",
          "type": "address"
        },
        {
          "indexed": false,
          "internalType": "address",
          "name": "tokenOut",
          "type": "address"
        },
        {
          "indexed": false,
          "internalType": "uint256",
          "name": "ethIn",
          "type": "uint256"
        },
        {
          "indexed": false,
          "internalType": "uint256",
          "name": "tokenAmount",
          "type": "uint256"
        }
      ],
      "name": "BuyWithETH",
      "type": "event"
    },
    {
      "anonymous": false,
      "inputs": [
        {
          "indexed": true,
          "internalType": "address",
          "name": "to",
          "type": "address"
        },
        {
          "indexed": false,
          "internalType": "uint256",
          "name": "amountA",
          "type": "uint256"
        },
        {
          "indexed": false,
          "internalType": "uint256",
          "name": "amountB",
          "type": "uint256"
        }
      ],
      "name": "FeesWithdrawn",
      "type": "event"
    },
    {
      "anonymous": false,
      "inputs": [
        {
          "indexed": true,
          "internalType": "address",
          "name": "previousOwner",
          "type": "address"
        },
        {
          "indexed": true,
          "internalType": "address",
          "name": "newOwner",
          "type": "address"
        }
      ],
      "name": "OwnershipTransferred",
      "type": "event"
    },
    {
      "anonymous": false,
      "inputs": [
        {
          "indexed": true,
          "internalType": "address",
          "name": "provider",
          "type": "address"
        },
        {
          "indexed": false,
          "internalType": "uint256",
          "name": "amountA",
          "type": "uint256"
        },
        {
          "indexed": false,
          "internalType": "uint256",
          "name": "amountB",
          "type": "uint256"
        },
        {
          "indexed": false,
          "internalType": "uint256",
          "name": "liquidity",
          "type": "uint256"
        }
      ],
      "name": "RemoveLiquidity",
      "type": "event"
    },
    {
      "anonymous": false,
      "inputs": [
        {
          "indexed": false,
          "internalType": "uint256",
          "name": "newFeeRate",
          "type": "uint256"
        }
      ],
      "name": "SetFeeRate",
      "type": "event"
    },
    {
      "anonymous": false,
      "inputs": [
        {
          "indexed": true,
          "internalType": "address",
          "name": "sender",
          "type": "address"
        },
        {
          "indexed": false,
          "internalType": "address",
          "name": "tokenIn",
          "type": "address"
        },
        {
          "indexed": false,
          "internalType": "address",
          "name": "tokenOut",
          "type": "address"
        },
        {
          "indexed": false,
          "internalType": "uint256",
          "name": "amountIn",
          "type": "uint256"
        },
        {
          "indexed": false,
          "internalType": "uint256",
          "name": "amountOut",
          "type": "uint256"
        }
      ],
      "name": "Swap",
      "type": "event"
    },
    {
      "anonymous": false,
      "inputs": [
        {
          "indexed": true,
          "internalType": "address",
          "name": "from",
          "type": "address"
        },
        {
          "indexed": true,
          "internalType": "address",
          "name": "to",
          "type": "address"
        },
        {
          "indexed": false,
          "internalType": "uint256",
          "name": "value",
          "type": "uint256"
        }
      ],
      "name": "Transfer",
      "type": "event"
    },
    {
      "inputs": [
        {
          "internalType": "uint256",
          "name": "amountA",
          "type": "uint256"
        },
        {
          "internalType": "uint256",
          "name": "amountB",
          "type": "uint256"
        }
      ],
      "name": "addLiquidity",
      "outputs": [],
      "stateMutability": "nonpayable",
      "type": "function"
    },
    {
      "inputs": [
        {
          "internalType": "address",
          "name": "owner",
          "type": "address"
        },
        {
          "internalType": "address",
          "name": "spender",
          "type": "address"
        }
      ],
      "name": "allowance",
      "outputs": [
        {
          "internalType": "uint256",
          "name": "",
          "type": "uint256"
        }
      ],
      "stateMutability": "view",
      "type": "function"
    },
    {
      "inputs": [
        {
          "internalType": "address",
          "name": "spender",
          "type": "address"
        },
        {
          "internalType": "uint256",
          "name": "value",
          "type": "uint256"
        }
      ],
      "name": "approve",
      "outputs": [
        {
          "internalType": "bool",
          "name": "",
          "type": "bool"
        }
      ],
      "stateMutability": "nonpayable",
      "type": "function"
    },
    {
      "inputs": [
        {
          "internalType": "address",
          "name": "account",
          "type": "address"
        }
      ],
      "name": "balanceOf",
      "outputs": [
        {
          "internalType": "uint256",
          "name": "",
          "type": "uint256"
        }
      ],
      "stateMutability": "view",
      "type": "function"
    },
    {
      "inputs": [
        {
          "internalType": "address",
          "name": "tokenOut",
          "type": "address"
        }
      ],
      "name": "buyWithETH",
      "outputs": [],
      "stateMutability": "payable",
      "type": "function"
    },
    {
      "inputs": [],
      "name": "collectedFeesA",
      "outputs": [
        {
          "internalType": "uint256",
          "name": "",
          "type": "uint256"
        }
      ],
      "stateMutability": "view",
      "type": "function"
    },
    {
      "inputs": [],
      "name": "collectedFeesB",
      "outputs": [
        {
          "internalType": "uint256",
          "name": "",
          "type": "uint256"
        }
      ],
      "stateMutability": "view",
      "type": "function"
    },
    {
      "inputs": [],
      "name": "decimals",
      "outputs": [
        {
          "internalType": "uint8",
          "name": "",
          "type": "uint8"
        }
      ],
      "stateMutability": "view",
      "type": "function"
    },
    {
      "inputs": [],
      "name": "feeRate",
      "outputs": [
        {
          "internalType": "uint256",
          "name": "",
          "type": "uint256"
        }
      ],
      "stateMutability": "view",
      "type": "function"
    },
    {
      "inputs": [
        {
          "internalType": "address",
          "name": "",
          "type": "address"
        }
      ],
      "name": "isLP",
      "outputs": [
        {
          "internalType": "bool",
          "name": "",
          "type": "bool"
        }
      ],
      "stateMutability": "view",
      "type": "function"
    },
    {
      "inputs": [],
      "name": "name",
      "outputs": [
        {
          "internalType": "string",
          "name": "",
          "type": "string"
        }
      ],
      "stateMutability": "view",
      "type": "function"
    },
    {
      "inputs": [],
      "name": "owner",
      "outputs": [
        {
          "internalType": "address",
          "name": "",
          "type": "address"
        }
      ],
      "stateMutability": "view",
      "type": "function"
    },
    {
      "inputs": [
        {
          "internalType": "uint256",
          "name": "amount",
          "type": "uint256"
        }
      ],
      "name": "removeLiquidity",
      "outputs": [],
      "stateMutability": "nonpayable",
      "type": "function"
    },
    {
      "inputs": [],
      "name": "renounceOwnership",
      "outputs": [],
      "stateMutability": "nonpayable",
      "type": "function"
    },
    {
      "inputs": [],
      "name": "reserveA",
      "outputs": [
        {
          "internalType": "uint256",
          "name": "",
          "type": "uint256"
        }
      ],
      "stateMutability": "view",
      "type": "function"
    },
    {
      "inputs": [],
      "name": "reserveB",
      "outputs": [
        {
          "internalType": "uint256",
          "name": "",
          "type": "uint256"
        }
      ],
      "stateMutability": "view",
      "type": "function"
    },
    {
      "inputs": [
        {
          "internalType": "uint256",
          "name": "_feeRate",
          "type": "uint256"
        }
      ],
      "name": "setFeeRate",
      "outputs": [],
      "stateMutability": "nonpayable",
      "type": "function"
    },
    {
      "inputs": [
        {
          "internalType": "address",
          "name": "user",
          "type": "address"
        },
        {
          "internalType": "bool",
          "name": "status",
          "type": "bool"
        }
      ],
      "name": "setLP",
      "outputs": [],
      "stateMutability": "nonpayable",
      "type": "function"
    },
    {
      "inputs": [
        {
          "internalType": "address",
          "name": "tokenIn",
          "type": "address"
        },
        {
          "internalType": "uint256",
          "name": "amountIn",
          "type": "uint256"
        },
        {
          "internalType": "uint256",
          "name": "minAmountOut",
          "type": "uint256"
        }
      ],
      "name": "swap",
      "outputs": [],
      "stateMutability": "nonpayable",
      "type": "function"
    },
    {
      "inputs": [],
      "name": "symbol",
      "outputs": [
        {
          "internalType": "string",
          "name": "",
          "type": "string"
        }
      ],
      "stateMutability": "view",
      "type": "function"
    },
    {
      "inputs": [],
      "name": "tokenA",
      "outputs": [
        {
          "internalType": "address",
          "name": "",
          "type": "address"
        }
      ],
      "stateMutability": "view",
      "type": "function"
    },
    {
      "inputs": [],
      "name": "tokenB",
      "outputs": [
        {
          "internalType": "address",
          "name": "",
          "type": "address"
        }
      ],
      "stateMutability": "view",
      "type": "function"
    },
    {
      "inputs": [],
      "name": "totalSupply",
      "outputs": [
        {
          "internalType": "uint256",
          "name": "",
          "type": "uint256"
        }
      ],
      "stateMutability": "view",
      "type": "function"
    },
    {
      "inputs": [
        {
          "internalType": "address",
          "name": "to",
          "type": "address"
        },
        {
          "internalType": "uint256",
          "name": "value",
          "type": "uint256"
        }
      ],
      "name": "transfer",
      "outputs": [
        {
          "internalType": "bool",
          "name": "",
          "type": "bool"
        }
      ],
      "stateMutability": "nonpayable",
      "type": "function"
    },
    {
      "inputs": [
        {
          "internalType": "address",
          "name": "from",
          "type": "address"
        },
        {
          "internalType": "address",
          "name": "to",
          "type": "address"
        },
        {
          "internalType": "uint256",
          "name": "value",
          "type": "uint256"
        }
      ],
      "name": "transferFrom",
      "outputs": [
        {
          "internalType": "bool",
          "name": "",
          "type": "bool"
        }
      ],
      "stateMutability": "nonpayable",
      "type": "function"
    },
    {
      "inputs": [
        {
          "internalType": "address",
          "name": "newOwner",
          "type": "address"
        }
      ],
      "name": "transferOwnership",
      "outputs": [],
      "stateMutability": "nonpayable",
      "type": "function"
    },
    {
      "inputs": [],
      "name": "withdrawFees",
      "outputs": [],
      "stateMutability": "nonpayable",
      "type": "function"
    },
    {
      "stateMutability": "payable",
      "type": "receive"
    }
  ],
  "bytecode": "0x60806040526003600a5534801561001557600080fd5b5060405161341a38038061341a833981810160405281019061003791906102fa565b336040518060400160405280600881526020017f4c5020546f6b656e0000000000000000000000000000000000000000000000008152506040518060400160405280600381526020017f4c5054000000000000000000000000000000000000000000000000000000000081525081600390816100b3919061058a565b5080600490816100c3919061058a565b505050600073ffffffffffffffffffffffffffffffffffffffff168173ffffffffffffffffffffffffffffffffffffffff16036101385760006040517f1e4fbdf700000000000000000000000000000000000000000000000000000000815260040161012f919061066b565b60405180910390fd5b610147816101d160201b60201c565b5081600660006101000a81548173ffffffffffffffffffffffffffffffffffffffff021916908373ffffffffffffffffffffffffffffffffffffffff16021790555080600760006101000a81548173ffffffffffffffffffffffffffffffffffffffff021916908373ffffffffffffffffffffffffffffffffffffffff1602179055505050610686565b6000600560009054906101000a900473ffffffffffffffffffffffffffffffffffffffff16905081600560006101000a81548173ffffffffffffffffffffffffffffffffffffffff021916908373ffffffffffffffffffffffffffffffffffffffff1602179055508173ffffffffffffffffffffffffffffffffffffffff168173ffffffffffffffffffffffffffffffffffffffff167f8be0079c531659141344cd1fd0a4f28419497f9722a3daafe3b4186f6b6457e060405160405180910390a35050565b600080fd5b600073ffffffffffffffffffffffffffffffffffffffff82169050919050565b60006102c78261029c565b9050919050565b6102d7816102bc565b81146102e257600080fd5b50565b6000815190506102f4816102ce565b92915050565b6000806040838503121561031157610310610297565b5b600061031f858286016102e5565b9250506020610330858286016102e5565b9150509250929050565b600081519050919050565b7f4e487b7100000000000000000000000000000000000000000000000000000000600052604160045260246000fd5b7f4e487b7100000000000000000000000000000000000000000000000000000000600052602260045260246000fd5b600060028204905060018216806103bb57607f821691505b6020821081036103ce576103cd610374565b5b50919050565b60008190508160005260206000209050919050565b60006020601f8301049050919050565b600082821b905092915050565b6000600883026104367fffffffffffffffffffffffffffffffffffffffffffffffffffffffffffffffff826103f9565b61044086836103f9565b95508019841693508086168417925050509392505050565b6000819050919050565b6000819050919050565b600061048761048261047d84610458565b610462565b610458565b9050919050565b6000819050919050565b6104a18361046c565b6104b56104ad8261048e565b848454610406565b825550505050565b600090565b6104ca6104bd565b6104d5818484610498565b505050565b5b818110156104f9576104ee6000826104c2565b6001810190506104db565b5050565b601f82111561053e5761050f816103d4565b610518846103e9565b81016020851015610527578190505b61053b610533856103e9565b8301826104da565b50505b505050565b600082821c905092915050565b600061056160001984600802610543565b1980831691505092915050565b600061057a8383610550565b9150826002028217905092915050565b6105938261033a565b67ffffffffffffffff8111156105ac576105ab610345565b5b6105b682546103a3565b6105c18282856104fd565b600060209050601f8311600181146105f457600084156105e2578287015190505b6105ec858261056e565b865550610654565b601f198416610602866103d4565b60005b8281101561062a57848901518255600182019150602085019450602081019050610605565b868310156106475784890151610643601f891682610550565b8355505b6001600288020188555050505b505050505050565b610665816102bc565b82525050565b6000602082019050610680600083018461065c565b92915050565b612d85806106956000396000f3fe6080604052600436106101a05760003560e01c80635f64b55b116100ec5780639c8f9f231161008a578063a9059cbb11610064578063a9059cbb14610590578063dc5fa6c5146105cd578063dd62ed3e146105f8578063f2fde38b14610635576101a7565b80639c8f9f23146105155780639cd441da1461053e5780639f1d0f5914610567576101a7565b80637df0f767116100c65780637df0f767146104575780638da5cb5b1461049457806395d89b41146104bf578063978bbdb9146104ea576101a7565b80635f64b55b146103d857806370a0823114610403578063715018a614610440576101a7565b806323b872dd11610159578063313ce56711610133578063313ce56714610351578063444aa92f1461037c57806345596e2e14610398578063476343ee146103c1576101a7565b806323b872dd146102c057806325781cf4146102fd57806328d6793814610328576101a7565b806306fdde03146101ac578063095ea7b3146101d75780630db8b192146102145780630fc63d101461023f57806318160ddd1461026a57806319e36f3b14610295576101a7565b366101a757005b600080fd5b3480156101b857600080fd5b506101c161065e565b6040516101ce9190612408565b60405180910390f35b3480156101e357600080fd5b506101fe60048036038101906101f991906124c3565b6106f0565b60405161020b919061251e565b60405180910390f35b34801561022057600080fd5b50610229610713565b6040516102369190612548565b60405180910390f35b34801561024b57600080fd5b50610254610719565b6040516102619190612572565b60405180910390f35b34801561027657600080fd5b5061027f61073f565b60405161028c9190612548565b60405180910390f35b3480156102a157600080fd5b506102aa610749565b6040516102b79190612548565b60405180910390f35b3480156102cc57600080fd5b506102e760048036038101906102e2919061258d565b61074f565b6040516102f4919061251e565b60405180910390f35b34801561030957600080fd5b5061031261077e565b60405161031f9190612548565b60405180910390f35b34801561033457600080fd5b5061034f600480360381019061034a919061260c565b610784565b005b34801561035d57600080fd5b506103666107e7565b6040516103739190612668565b60405180910390f35b61039660048036038101906103919190612683565b6107f0565b005b3480156103a457600080fd5b506103bf60048036038101906103ba91906126b0565b610c0f565b005b3480156103cd57600080fd5b506103d6610c9c565b005b3480156103e457600080fd5b506103ed610e81565b6040516103fa9190612572565b60405180910390f35b34801561040f57600080fd5b5061042a60048036038101906104259190612683565b610ea7565b6040516104379190612548565b60405180910390f35b34801561044c57600080fd5b50610455610eef565b005b34801561046357600080fd5b5061047e60048036038101906104799190612683565b610f03565b60405161048b919061251e565b60405180910390f35b3480156104a057600080fd5b506104a9610f23565b6040516104b69190612572565b60405180910390f35b3480156104cb57600080fd5b506104d4610f4d565b6040516104e19190612408565b60405180910390f35b3480156104f657600080fd5b506104ff610fdf565b60405161050c9190612548565b60405180910390f35b34801561052157600080fd5b5061053c600480360381019061053791906126b0565b610fe5565b005b34801561054a57600080fd5b50610565600480360381019061056091906126dd565b61128e565b005b34801561057357600080fd5b5061058e6004803603810190610589919061271d565b611569565b005b34801561059c57600080fd5b506105b760048036038101906105b291906124c3565b6119bf565b6040516105c4919061251e565b60405180910390f35b3480156105d957600080fd5b506105e26119e2565b6040516105ef9190612548565b60405180910390f35b34801561060457600080fd5b5061061f600480360381019061061a9190612770565b6119e8565b60405161062c9190612548565b60405180910390f35b34801561064157600080fd5b5061065c60048036038101906106579190612683565b611a6f565b005b60606003805461066d906127df565b80601f0160208091040260200160405190810160405280929190818152602001828054610699906127df565b80156106e65780601f106106bb576101008083540402835291602001916106e6565b820191906000526020600020905b8154815290600101906020018083116106c957829003601f168201915b5050505050905090565b6000806106fb611af5565b9050610708818585611afd565b600191505092915050565b600d5481565b600660009054906101000a900473ffffffffffffffffffffffffffffffffffffffff1681565b6000600254905090565b60095481565b60008061075a611af5565b9050610767858285611b0f565b610772858585611ba4565b60019150509392505050565b600c5481565b61078c611c98565b80600b60008473ffffffffffffffffffffffffffffffffffffffff1673ffffffffffffffffffffffffffffffffffffffff16815260200190815260200160002060006101000a81548160ff0219169083151502179055505050565b60006012905090565b600660009054906101000a900473ffffffffffffffffffffffffffffffffffffffff1673ffffffffffffffffffffffffffffffffffffffff168173ffffffffffffffffffffffffffffffffffffffff1614806108995750600760009054906101000a900473ffffffffffffffffffffffffffffffffffffffff1673ffffffffffffffffffffffffffffffffffffffff168173ffffffffffffffffffffffffffffffffffffffff16145b6108d8576040517f08c379a00000000000000000000000000000000000000000000000000000000081526004016108cf9061285c565b60405180910390fd5b6000600660009054906101000a900473ffffffffffffffffffffffffffffffffffffffff1673ffffffffffffffffffffffffffffffffffffffff168273ffffffffffffffffffffffffffffffffffffffff1614905060008161093c57600854610940565b6009545b905060008261095157600954610955565b6008545b90506000821180156109675750600081115b6109a6576040517f08c379a000000000000000000000000000000000000000000000000000000000815260040161099d906128c8565b60405180910390fd5b60006103e8600a54346109b99190612917565b6109c39190612988565b9050600081346109d391906129b9565b9050600081856109e391906129ed565b84836109ef9190612917565b6109f99190612988565b905060008111610a3e576040517f08c379a0000000000000000000000000000000000000000000000000000000008152600401610a3590612a6d565b60405180910390fd5b8515610a94578160096000828254610a5691906129ed565b925050819055508060086000828254610a6f91906129b9565b9250508190555082600d6000828254610a8891906129ed565b92505081905550610ae0565b8160086000828254610aa691906129ed565b925050819055508060096000828254610abf91906129b9565b9250508190555082600c6000828254610ad891906129ed565b925050819055505b8673ffffffffffffffffffffffffffffffffffffffff1663a9059cbb33836040518363ffffffff1660e01b8152600401610b1b929190612a8d565b6020604051808303816000875af1158015610b3a573d6000803e3d6000fd5b505050506040513d601f19601f82011682018060405250810190610b5e9190612acb565b503373ffffffffffffffffffffffffffffffffffffffff167f1dbd300218e937f543e095e51a5a28974ad528e975d291bee73c9e7bb69589c2883484604051610ba993929190612af8565b60405180910390a23373ffffffffffffffffffffffffffffffffffffffff167fcd3829a3813dc3cdd188fd3d01dcf3268c16be2fdd2dd21d0665418816e460626000893485604051610bfe9493929190612b2f565b60405180910390a250505050505050565b610c17611c98565b6064811115610c5b576040517f08c379a0000000000000000000000000000000000000000000000000000000008152600401610c5290612bc0565b60405180910390fd5b80600a819055507f6717373928cccf59cc9912055cfa8db86e7085b95c94c15862b121114aa333be81604051610c919190612548565b60405180910390a150565b610ca4611c98565b6000600c5490506000600d5490506000821115610d6c576000600c81905550600660009054906101000a900473ffffffffffffffffffffffffffffffffffffffff1673ffffffffffffffffffffffffffffffffffffffff1663a9059cbb610d09610f23565b846040518363ffffffff1660e01b8152600401610d27929190612a8d565b6020604051808303816000875af1158015610d46573d6000803e3d6000fd5b505050506040513d601f19601f82011682018060405250810190610d6a9190612acb565b505b6000811115610e26576000600d81905550600760009054906101000a900473ffffffffffffffffffffffffffffffffffffffff1673ffffffffffffffffffffffffffffffffffffffff1663a9059cbb610dc3610f23565b836040518363ffffffff1660e01b8152600401610de1929190612a8d565b6020604051808303816000875af1158015610e00573d6000803e3d6000fd5b505050506040513d601f19601f82011682018060405250810190610e249190612acb565b505b610e2e610f23565b73ffffffffffffffffffffffffffffffffffffffff167fdeb5099d7943aa2b4c1142e5d53d2f7636aa8f7bd130ec79816f151572bcdf458383604051610e75929190612be0565b60405180910390a25050565b600760009054906101000a900473ffffffffffffffffffffffffffffffffffffffff1681565b60008060008373ffffffffffffffffffffffffffffffffffffffff1673ffffffffffffffffffffffffffffffffffffffff168152602001908152602001600020549050919050565b610ef7611c98565b610f016000611d1f565b565b600b6020528060005260406000206000915054906101000a900460ff1681565b6000600560009054906101000a900473ffffffffffffffffffffffffffffffffffffffff16905090565b606060048054610f5c906127df565b80601f0160208091040260200160405190810160405280929190818152602001828054610f88906127df565b8015610fd55780601f10610faa57610100808354040283529160200191610fd5565b820191906000526020600020905b815481529060010190602001808311610fb857829003601f168201915b5050505050905090565b600a5481565b600b60003373ffffffffffffffffffffffffffffffffffffffff1673ffffffffffffffffffffffffffffffffffffffff16815260200190815260200160002060009054906101000a900460ff16611071576040517f08c379a000000000000000000000000000000000000000000000000000000000815260040161106890612c55565b60405180910390fd5b600061107b61073f565b600854836110899190612917565b6110939190612988565b9050600061109f61073f565b600954846110ad9190612917565b6110b79190612988565b90506110c33384611de5565b81600860008282546110d591906129b9565b9250508190555080600960008282546110ee91906129b9565b92505081905550600660009054906101000a900473ffffffffffffffffffffffffffffffffffffffff1673ffffffffffffffffffffffffffffffffffffffff1663a9059cbb33846040518363ffffffff1660e01b8152600401611152929190612a8d565b6020604051808303816000875af1158015611171573d6000803e3d6000fd5b505050506040513d601f19601f820116820180604052508101906111959190612acb565b50600760009054906101000a900473ffffffffffffffffffffffffffffffffffffffff1673ffffffffffffffffffffffffffffffffffffffff1663a9059cbb33836040518363ffffffff1660e01b81526004016111f3929190612a8d565b6020604051808303816000875af1158015611212573d6000803e3d6000fd5b505050506040513d601f19601f820116820180604052508101906112369190612acb565b503373ffffffffffffffffffffffffffffffffffffffff167f59c3a0b60c6ab7deb62e1440c9e72441db6db7dfe514dba8cb18e60c0d896efa83838660405161128193929190612c75565b60405180910390a2505050565b600b60003373ffffffffffffffffffffffffffffffffffffffff1673ffffffffffffffffffffffffffffffffffffffff16815260200190815260200160002060009054906101000a900460ff1661131a576040517f08c379a000000000000000000000000000000000000000000000000000000000815260040161131190612c55565b60405180910390fd5b600660009054906101000a900473ffffffffffffffffffffffffffffffffffffffff1673ffffffffffffffffffffffffffffffffffffffff166323b872dd3330856040518463ffffffff1660e01b815260040161137993929190612cac565b6020604051808303816000875af1158015611398573d6000803e3d6000fd5b505050506040513d601f19601f820116820180604052508101906113bc9190612acb565b50600760009054906101000a900473ffffffffffffffffffffffffffffffffffffffff1673ffffffffffffffffffffffffffffffffffffffff166323b872dd3330846040518463ffffffff1660e01b815260040161141c93929190612cac565b6020604051808303816000875af115801561143b573d6000803e3d6000fd5b505050506040513d601f19601f8201168201806040525081019061145f9190612acb565b5060008061146b61073f565b0361148b57611484828461147f9190612917565b611e67565b90506114d6565b6114d360085461149961073f565b856114a49190612917565b6114ae9190612988565b6009546114b961073f565b856114c49190612917565b6114ce9190612988565b611ee1565b90505b6114e03382611efa565b82600860008282546114f291906129ed565b92505081905550816009600082825461150b91906129ed565b925050819055503373ffffffffffffffffffffffffffffffffffffffff167fbeb3885786d637a474cbc287c0a44587231633a077f0bd30354d5a4b18996fce84848460405161155c93929190612c75565b60405180910390a2505050565b600660009054906101000a900473ffffffffffffffffffffffffffffffffffffffff1673ffffffffffffffffffffffffffffffffffffffff168373ffffffffffffffffffffffffffffffffffffffff1614806116125750600760009054906101000a900473ffffffffffffffffffffffffffffffffffffffff1673ffffffffffffffffffffffffffffffffffffffff168373ffffffffffffffffffffffffffffffffffffffff16145b611651576040517f08c379a00000000000000000000000000000000000000000000000000000000081526004016116489061285c565b60405180910390fd5b6000600660009054906101000a900473ffffffffffffffffffffffffffffffffffffffff1673ffffffffffffffffffffffffffffffffffffffff168473ffffffffffffffffffffffffffffffffffffffff161490506000816116d557600660009054906101000a900473ffffffffffffffffffffffffffffffffffffffff166116f9565b600760009054906101000a900473ffffffffffffffffffffffffffffffffffffffff165b905060008261170a5760095461170e565b6008545b905060008361171f57600854611723565b6009545b90508673ffffffffffffffffffffffffffffffffffffffff166323b872dd3330896040518463ffffffff1660e01b815260040161176293929190612cac565b6020604051808303816000875af1158015611781573d6000803e3d6000fd5b505050506040513d601f19601f820116820180604052508101906117a59190612acb565b5060006103e8600a54886117b99190612917565b6117c39190612988565b9050600081886117d391906129b9565b9050600081856117e391906129ed565b84836117ef9190612917565b6117f99190612988565b90508781101561183e576040517f08c379a000000000000000000000000000000000000000000000000000000000815260040161183590612d2f565b60405180910390fd5b861561189457816008600082825461185691906129ed565b92505081905550806009600082825461186f91906129b9565b9250508190555082600c600082825461188891906129ed565b925050819055506118e0565b81600960008282546118a691906129ed565b9250508190555080600860008282546118bf91906129b9565b9250508190555082600d60008282546118d891906129ed565b925050819055505b8573ffffffffffffffffffffffffffffffffffffffff1663a9059cbb33836040518363ffffffff1660e01b815260040161191b929190612a8d565b6020604051808303816000875af115801561193a573d6000803e3d6000fd5b505050506040513d601f19601f8201168201806040525081019061195e9190612acb565b503373ffffffffffffffffffffffffffffffffffffffff167fcd3829a3813dc3cdd188fd3d01dcf3268c16be2fdd2dd21d0665418816e460628b888c856040516119ab9493929190612b2f565b60405180910390a250505050505050505050565b6000806119ca611af5565b90506119d7818585611ba4565b600191505092915050565b60085481565b6000600160008473ffffffffffffffffffffffffffffffffffffffff1673ffffffffffffffffffffffffffffffffffffffff16815260200190815260200160002060008373ffffffffffffffffffffffffffffffffffffffff1673ffffffffffffffffffffffffffffffffffffffff16815260200190815260200160002054905092915050565b611a77611c98565b600073ffffffffffffffffffffffffffffffffffffffff168173ffffffffffffffffffffffffffffffffffffffff1603611ae95760006040517f1e4fbdf7000000000000000000000000000000000000000000000000000000008152600401611ae09190612572565b60405180910390fd5b611af281611d1f565b50565b600033905090565b611b0a8383836001611f7c565b505050565b6000611b1b84846119e8565b90507fffffffffffffffffffffffffffffffffffffffffffffffffffffffffffffffff811015611b9e5781811015611b8e578281836040517ffb8f41b2000000000000000000000000000000000000000000000000000000008152600401611b8593929190612af8565b60405180910390fd5b611b9d84848484036000611f7c565b5b50505050565b600073ffffffffffffffffffffffffffffffffffffffff168373ffffffffffffffffffffffffffffffffffffffff1603611c165760006040517f96c6fd1e000000000000000000000000000000000000000000000000000000008152600401611c0d9190612572565b60405180910390fd5b600073ffffffffffffffffffffffffffffffffffffffff168273ffffffffffffffffffffffffffffffffffffffff1603611c885760006040517fec442f05000000000000000000000000000000000000000000000000000000008152600401611c7f9190612572565b60405180910390fd5b611c93838383612153565b505050565b611ca0611af5565b73ffffffffffffffffffffffffffffffffffffffff16611cbe610f23565b73ffffffffffffffffffffffffffffffffffffffff1614611d1d57611ce1611af5565b6040517f118cdaa7000000000000000000000000000000000000000000000000000000008152600401611d149190612572565b60405180910390fd5b565b6000600560009054906101000a900473ffffffffffffffffffffffffffffffffffffffff16905081600560006101000a81548173ffffffffffffffffffffffffffffffffffffffff021916908373ffffffffffffffffffffffffffffffffffffffff1602179055508173ffffffffffffffffffffffffffffffffffffffff168173ffffffffffffffffffffffffffffffffffffffff167f8be0079c531659141344cd1fd0a4f28419497f9722a3daafe3b4186f6b6457e060405160405180910390a35050565b600073ffffffffffffffffffffffffffffffffffffffff168273ffffffffffffffffffffffffffffffffffffffff1603611e575760006040517f96c6fd1e000000000000000000000000000000000000000000000000000000008152600401611e4e9190612572565b60405180910390fd5b611e6382600083612153565b5050565b60006003821115611ece5781905060006001600284611e869190612988565b611e9091906129ed565b90505b81811015611ec8578091506002818285611ead9190612988565b611eb791906129ed565b611ec19190612988565b9050611e93565b50611edc565b60008214611edb57600190505b5b919050565b6000818310611ef05781611ef2565b825b905092915050565b600073ffffffffffffffffffffffffffffffffffffffff168273ffffffffffffffffffffffffffffffffffffffff1603611f6c5760006040517fec442f05000000000000000000000000000000000000000000000000000000008152600401611f639190612572565b60405180910390fd5b611f7860008383612153565b5050565b600073ffffffffffffffffffffffffffffffffffffffff168473ffffffffffffffffffffffffffffffffffffffff1603611fee5760006040517fe602df05000000000000000000000000000000000000000000000000000000008152600401611fe59190612572565b60405180910390fd5b600073ffffffffffffffffffffffffffffffffffffffff168373ffffffffffffffffffffffffffffffffffffffff16036120605760006040517f94280d620000000000000000000000000000000000000000000000000000000081526004016120579190612572565b60405180910390fd5b81600160008673ffffffffffffffffffffffffffffffffffffffff1673ffffffffffffffffffffffffffffffffffffffff16815260200190815260200160002060008573ffffffffffffffffffffffffffffffffffffffff1673ffffffffffffffffffffffffffffffffffffffff16815260200190815260200160002081905550801561214d578273ffffffffffffffffffffffffffffffffffffffff168473ffffffffffffffffffffffffffffffffffffffff167f8c5be1e5ebec7d5bd14f71427d1e84f3dd0314c0f7b2291e5b200ac8c7c3b925846040516121449190612548565b60405180910390a35b50505050565b600073ffffffffffffffffffffffffffffffffffffffff168373ffffffffffffffffffffffffffffffffffffffff16036121a557806002600082825461219991906129ed565b92505081905550612278565b60008060008573ffffffffffffffffffffffffffffffffffffffff1673ffffffffffffffffffffffffffffffffffffffff16815260200190815260200160002054905081811015612231578381836040517fe450d38c00000000000000000000000000000000000000000000000000000000815260040161222893929190612af8565b60405180910390fd5b8181036000808673ffffffffffffffffffffffffffffffffffffffff1673ffffffffffffffffffffffffffffffffffffffff16815260200190815260200160002081905550505b600073ffffffffffffffffffffffffffffffffffffffff168273ffffffffffffffffffffffffffffffffffffffff16036122c1578060026000828254039250508190555061230e565b806000808473ffffffffffffffffffffffffffffffffffffffff1673ffffffffffffffffffffffffffffffffffffffff168152602001908152602001600020600082825401925050819055505b8173ffffffffffffffffffffffffffffffffffffffff168373ffffffffffffffffffffffffffffffffffffffff167fddf252ad1be2c89b69c2b068fc378daa952ba7f163c4a11628f55a4df523b3ef8360405161236b9190612548565b60405180910390a3505050565b600081519050919050565b600082825260208201905092915050565b60005b838110156123b2578082015181840152602081019050612397565b60008484015250505050565b6000601f19601f8301169050919050565b60006123da82612378565b6123e48185612383565b93506123f4818560208601612394565b6123fd816123be565b840191505092915050565b6000602082019050818103600083015261242281846123cf565b905092915050565b600080fd5b600073ffffffffffffffffffffffffffffffffffffffff82169050919050565b600061245a8261242f565b9050919050565b61246a8161244f565b811461247557600080fd5b50565b60008135905061248781612461565b92915050565b6000819050919050565b6124a08161248d565b81146124ab57600080fd5b50565b6000813590506124bd81612497565b92915050565b600080604083850312156124da576124d961242a565b5b60006124e885828601612478565b92505060206124f9858286016124ae565b9150509250929050565b60008115159050919050565b61251881612503565b82525050565b6000602082019050612533600083018461250f565b92915050565b6125428161248d565b82525050565b600060208201905061255d6000830184612539565b92915050565b61256c8161244f565b82525050565b60006020820190506125876000830184612563565b92915050565b6000806000606084860312156125a6576125a561242a565b5b60006125b486828701612478565b93505060206125c586828701612478565b92505060406125d6868287016124ae565b9150509250925092565b6125e981612503565b81146125f457600080fd5b50565b600081359050612606816125e0565b92915050565b600080604083850312156126235761262261242a565b5b600061263185828601612478565b9250506020612642858286016125f7565b9150509250929050565b600060ff82169050919050565b6126628161264c565b82525050565b600060208201905061267d6000830184612659565b92915050565b6000602082840312156126995761269861242a565b5b60006126a784828501612478565b91505092915050565b6000602082840312156126c6576126c561242a565b5b60006126d4848285016124ae565b91505092915050565b600080604083850312156126f4576126f361242a565b5b6000612702858286016124ae565b9250506020612713858286016124ae565b9150509250929050565b6000806000606084860312156127365761273561242a565b5b600061274486828701612478565b9350506020612755868287016124ae565b9250506040612766868287016124ae565b9150509250925092565b600080604083850312156127875761278661242a565b5b600061279585828601612478565b92505060206127a685828601612478565b9150509250929050565b7f4e487b7100000000000000000000000000000000000000000000000000000000600052602260045260246000fd5b600060028204905060018216806127f757607f821691505b60208210810361280a576128096127b0565b5b50919050565b7f496e76616c696420746f6b656e00000000000000000000000000000000000000600082015250565b6000612846600d83612383565b915061285182612810565b602082019050919050565b6000602082019050818103600083015261287581612839565b9050919050565b7f456d70747920706f6f6c00000000000000000000000000000000000000000000600082015250565b60006128b2600a83612383565b91506128bd8261287c565b602082019050919050565b600060208201905081810360008301526128e1816128a5565b9050919050565b7f4e487b7100000000000000000000000000000000000000000000000000000000600052601160045260246000fd5b60006129228261248d565b915061292d8361248d565b925082820261293b8161248d565b91508282048414831517612952576129516128e8565b5b5092915050565b7f4e487b7100000000000000000000000000000000000000000000000000000000600052601260045260246000fd5b60006129938261248d565b915061299e8361248d565b9250826129ae576129ad612959565b5b828204905092915050565b60006129c48261248d565b91506129cf8361248d565b92508282039050818111156129e7576129e66128e8565b5b92915050565b60006129f88261248d565b9150612a038361248d565b9250828201905080821115612a1b57612a1a6128e8565b5b92915050565b7f496e73756666696369656e74206f757470757400000000000000000000000000600082015250565b6000612a57601383612383565b9150612a6282612a21565b602082019050919050565b60006020820190508181036000830152612a8681612a4a565b9050919050565b6000604082019050612aa26000830185612563565b612aaf6020830184612539565b9392505050565b600081519050612ac5816125e0565b92915050565b600060208284031215612ae157612ae061242a565b5b6000612aef84828501612ab6565b91505092915050565b6000606082019050612b0d6000830186612563565b612b1a6020830185612539565b612b276040830184612539565b949350505050565b6000608082019050612b446000830187612563565b612b516020830186612563565b612b5e6040830185612539565b612b6b6060830184612539565b95945050505050565b7f546f6f2068696768000000000000000000000000000000000000000000000000600082015250565b6000612baa600883612383565b9150612bb582612b74565b602082019050919050565b60006020820190508181036000830152612bd981612b9d565b9050919050565b6000604082019050612bf56000830185612539565b612c026020830184612539565b9392505050565b7f4e6f7420616c6c6f7765643a204e6f74204c5000000000000000000000000000600082015250565b6000612c3f601383612383565b9150612c4a82612c09565b602082019050919050565b60006020820190508181036000830152612c6e81612c32565b9050919050565b6000606082019050612c8a6000830186612539565b612c976020830185612539565b612ca46040830184612539565b949350505050565b6000606082019050612cc16000830186612563565b612cce6020830185612563565b612cdb6040830184612539565b949350505050565b7f536c69707061676520746f6f2068696768000000000000000000000000000000600082015250565b6000612d19601183612383565b9150612d2482612ce3565b602082019050919050565b60006020820190508181036000830152612d4881612d0c565b905091905056fea26469706673582212207acad05821bbe0931b11f8cf5b5fa24210f6723347b009b987c057f5acf3423264736f6c634300081c0033",
  "linkReferences": {},
  "deployedLinkReferences": {}
}