{
  "_format": "hh-sol-artifact-1",
  "contractName": "AMM",
  "sourceName": "contracts/AMM.sol",
  "abi": [
    {
      "inputs": [
        {
          "internalType": "address",
          "name": "_tokenA",
          "type": "address"
        },
        {
          "internalType": "address",
          "name": "_tokenB",
          "type": "address"
        }
      ],
      "stateMutability": "nonpayable",
      "type": "constructor"
    },
    {
      "inputs": [
        {
          "internalType": "address",
          "name": "spender",
          "type": "address"
        },
        {
          "internalType": "uint256",
          "name": "allowance",
          "type": "uint256"
        },
        {
          "internalType": "uint256",
          "name": "needed",
          "type": "uint256"
        }
      ],
      "name": "ERC20InsufficientAllowance",
      "type": "error"
    },
    {
      "inputs": [
        {
          "internalType": "address",
          "name": "sender",
          "type": "address"
        },
        {
          "internalType": "uint256",
          "name": "balance",
          "type": "uint256"
        },
        {
          "internalType": "uint256",
          "name": "needed",
          "type": "uint256"
        }
      ],
      "name": "ERC20InsufficientBalance",
      "type": "error"
    },
    {
      "inputs": [
        {
          "internalType": "address",
          "name": "approver",
          "type": "address"
        }
      ],
      "name": "ERC20InvalidApprover",
      "type": "error"
    },
    {
      "inputs": [
        {
          "internalType": "address",
          "name": "receiver",
          "type": "address"
        }
      ],
      "name": "ERC20InvalidReceiver",
      "type": "error"
    },
    {
      "inputs": [
        {
          "internalType": "address",
          "name": "sender",
          "type": "address"
        }
      ],
      "name": "ERC20InvalidSender",
      "type": "error"
    },
    {
      "inputs": [
        {
          "internalType": "address",
          "name": "spender",
          "type": "address"
        }
      ],
      "name": "ERC20InvalidSpender",
      "type": "error"
    },
    {
      "inputs": [
        {
          "internalType": "address",
          "name": "owner",
          "type": "address"
        }
      ],
      "name": "OwnableInvalidOwner",
      "type": "error"
    },
    {
      "inputs": [
        {
          "internalType": "address",
          "name": "account",
          "type": "address"
        }
      ],
      "name": "OwnableUnauthorizedAccount",
      "type": "error"
    },
    {
      "anonymous": false,
      "inputs": [
        {
          "indexed": true,
          "internalType": "address",
          "name": "provider",
          "type": "address"
        },
        {
          "indexed": false,
          "internalType": "uint256",
          "name": "amountA",
          "type": "uint256"
        },
        {
          "indexed": false,
          "internalType": "uint256",
          "name": "amountB",
          "type": "uint256"
        },
        {
          "indexed": false,
          "internalType": "uint256",
          "name": "liquidity",
          "type": "uint256"
        }
      ],
      "name": "AddLiquidity",
      "type": "event"
    },
    {
      "anonymous": false,
      "inputs": [
        {
          "indexed": true,
          "internalType": "address",
          "name": "owner",
          "type": "address"
        },
        {
          "indexed": true,
          "internalType": "address",
          "name": "spender",
          "type": "address"
        },
        {
          "indexed": false,
          "internalType": "uint256",
          "name": "value",
          "type": "uint256"
        }
      ],
      "name": "Approval",
      "type": "event"
    },
    {
      "anonymous": false,
      "inputs": [
        {
          "indexed": true,
          "internalType": "address",
          "name": "buyer",
          "type": "address"
        },
        {
          "indexed": false,
          "internalType": "address",
          "name": "tokenOut",
          "type": "address"
        },
        {
          "indexed": false,
          "internalType": "uint256",
          "name": "ethIn",
          "type": "uint256"
        },
        {
          "indexed": false,
          "internalType": "uint256",
          "name": "tokenAmount",
          "type": "uint256"
        }
      ],
      "name": "BuyWithETH",
      "type": "event"
    },
    {
      "anonymous": false,
      "inputs": [
        {
          "indexed": true,
          "internalType": "address",
          "name": "previousOwner",
          "type": "address"
        },
        {
          "indexed": true,
          "internalType": "address",
          "name": "newOwner",
          "type": "address"
        }
      ],
      "name": "OwnershipTransferred",
      "type": "event"
    },
    {
      "anonymous": false,
      "inputs": [
        {
          "indexed": true,
          "internalType": "address",
          "name": "provider",
          "type": "address"
        },
        {
          "indexed": false,
          "internalType": "uint256",
          "name": "amountA",
          "type": "uint256"
        },
        {
          "indexed": false,
          "internalType": "uint256",
          "name": "amountB",
          "type": "uint256"
        },
        {
          "indexed": false,
          "internalType": "uint256",
          "name": "liquidity",
          "type": "uint256"
        }
      ],
      "name": "RemoveLiquidity",
      "type": "event"
    },
    {
      "anonymous": false,
      "inputs": [
        {
          "indexed": false,
          "internalType": "uint256",
          "name": "newFeeRate",
          "type": "uint256"
        }
      ],
      "name": "SetFeeRate",
      "type": "event"
    },
    {
      "anonymous": false,
      "inputs": [
        {
          "indexed": true,
          "internalType": "address",
          "name": "sender",
          "type": "address"
        },
        {
          "indexed": false,
          "internalType": "address",
          "name": "tokenIn",
          "type": "address"
        },
        {
          "indexed": false,
          "internalType": "address",
          "name": "tokenOut",
          "type": "address"
        },
        {
          "indexed": false,
          "internalType": "uint256",
          "name": "amountIn",
          "type": "uint256"
        },
        {
          "indexed": false,
          "internalType": "uint256",
          "name": "amountOut",
          "type": "uint256"
        }
      ],
      "name": "Swap",
      "type": "event"
    },
    {
      "anonymous": false,
      "inputs": [
        {
          "indexed": true,
          "internalType": "address",
          "name": "from",
          "type": "address"
        },
        {
          "indexed": true,
          "internalType": "address",
          "name": "to",
          "type": "address"
        },
        {
          "indexed": false,
          "internalType": "uint256",
          "name": "value",
          "type": "uint256"
        }
      ],
      "name": "Transfer",
      "type": "event"
    },
    {
      "inputs": [
        {
          "internalType": "uint256",
          "name": "amountA",
          "type": "uint256"
        },
        {
          "internalType": "uint256",
          "name": "amountB",
          "type": "uint256"
        }
      ],
      "name": "addLiquidity",
      "outputs": [],
      "stateMutability": "nonpayable",
      "type": "function"
    },
    {
      "inputs": [
        {
          "internalType": "address",
          "name": "owner",
          "type": "address"
        },
        {
          "internalType": "address",
          "name": "spender",
          "type": "address"
        }
      ],
      "name": "allowance",
      "outputs": [
        {
          "internalType": "uint256",
          "name": "",
          "type": "uint256"
        }
      ],
      "stateMutability": "view",
      "type": "function"
    },
    {
      "inputs": [
        {
          "internalType": "address",
          "name": "spender",
          "type": "address"
        },
        {
          "internalType": "uint256",
          "name": "value",
          "type": "uint256"
        }
      ],
      "name": "approve",
      "outputs": [
        {
          "internalType": "bool",
          "name": "",
          "type": "bool"
        }
      ],
      "stateMutability": "nonpayable",
      "type": "function"
    },
    {
      "inputs": [
        {
          "internalType": "address",
          "name": "account",
          "type": "address"
        }
      ],
      "name": "balanceOf",
      "outputs": [
        {
          "internalType": "uint256",
          "name": "",
          "type": "uint256"
        }
      ],
      "stateMutability": "view",
      "type": "function"
    },
    {
      "inputs": [
        {
          "internalType": "address",
          "name": "tokenOut",
          "type": "address"
        }
      ],
      "name": "buyWithETH",
      "outputs": [],
      "stateMutability": "payable",
      "type": "function"
    },
    {
      "inputs": [],
      "name": "decimals",
      "outputs": [
        {
          "internalType": "uint8",
          "name": "",
          "type": "uint8"
        }
      ],
      "stateMutability": "view",
      "type": "function"
    },
    {
      "inputs": [],
      "name": "feeRate",
      "outputs": [
        {
          "internalType": "uint256",
          "name": "",
          "type": "uint256"
        }
      ],
      "stateMutability": "view",
      "type": "function"
    },
    {
      "inputs": [
        {
          "internalType": "address",
          "name": "",
          "type": "address"
        }
      ],
      "name": "isLP",
      "outputs": [
        {
          "internalType": "bool",
          "name": "",
          "type": "bool"
        }
      ],
      "stateMutability": "view",
      "type": "function"
    },
    {
      "inputs": [],
      "name": "name",
      "outputs": [
        {
          "internalType": "string",
          "name": "",
          "type": "string"
        }
      ],
      "stateMutability": "view",
      "type": "function"
    },
    {
      "inputs": [],
      "name": "owner",
      "outputs": [
        {
          "internalType": "address",
          "name": "",
          "type": "address"
        }
      ],
      "stateMutability": "view",
      "type": "function"
    },
    {
      "inputs": [
        {
          "internalType": "uint256",
          "name": "amount",
          "type": "uint256"
        }
      ],
      "name": "removeLiquidity",
      "outputs": [],
      "stateMutability": "nonpayable",
      "type": "function"
    },
    {
      "inputs": [],
      "name": "renounceOwnership",
      "outputs": [],
      "stateMutability": "nonpayable",
      "type": "function"
    },
    {
      "inputs": [],
      "name": "reserveA",
      "outputs": [
        {
          "internalType": "uint256",
          "name": "",
          "type": "uint256"
        }
      ],
      "stateMutability": "view",
      "type": "function"
    },
    {
      "inputs": [],
      "name": "reserveB",
      "outputs": [
        {
          "internalType": "uint256",
          "name": "",
          "type": "uint256"
        }
      ],
      "stateMutability": "view",
      "type": "function"
    },
    {
      "inputs": [
        {
          "internalType": "uint256",
          "name": "_feeRate",
          "type": "uint256"
        }
      ],
      "name": "setFeeRate",
      "outputs": [],
      "stateMutability": "nonpayable",
      "type": "function"
    },
    {
      "inputs": [
        {
          "internalType": "address",
          "name": "user",
          "type": "address"
        },
        {
          "internalType": "bool",
          "name": "status",
          "type": "bool"
        }
      ],
      "name": "setLP",
      "outputs": [],
      "stateMutability": "nonpayable",
      "type": "function"
    },
    {
      "inputs": [
        {
          "internalType": "address",
          "name": "tokenIn",
          "type": "address"
        },
        {
          "internalType": "uint256",
          "name": "amountIn",
          "type": "uint256"
        },
        {
          "internalType": "uint256",
          "name": "minAmountOut",
          "type": "uint256"
        }
      ],
      "name": "swap",
      "outputs": [],
      "stateMutability": "nonpayable",
      "type": "function"
    },
    {
      "inputs": [],
      "name": "symbol",
      "outputs": [
        {
          "internalType": "string",
          "name": "",
          "type": "string"
        }
      ],
      "stateMutability": "view",
      "type": "function"
    },
    {
      "inputs": [],
      "name": "tokenA",
      "outputs": [
        {
          "internalType": "address",
          "name": "",
          "type": "address"
        }
      ],
      "stateMutability": "view",
      "type": "function"
    },
    {
      "inputs": [],
      "name": "tokenB",
      "outputs": [
        {
          "internalType": "address",
          "name": "",
          "type": "address"
        }
      ],
      "stateMutability": "view",
      "type": "function"
    },
    {
      "inputs": [],
      "name": "totalSupply",
      "outputs": [
        {
          "internalType": "uint256",
          "name": "",
          "type": "uint256"
        }
      ],
      "stateMutability": "view",
      "type": "function"
    },
    {
      "inputs": [
        {
          "internalType": "address",
          "name": "to",
          "type": "address"
        },
        {
          "internalType": "uint256",
          "name": "value",
          "type": "uint256"
        }
      ],
      "name": "transfer",
      "outputs": [
        {
          "internalType": "bool",
          "name": "",
          "type": "bool"
        }
      ],
      "stateMutability": "nonpayable",
      "type": "function"
    },
    {
      "inputs": [
        {
          "internalType": "address",
          "name": "from",
          "type": "address"
        },
        {
          "internalType": "address",
          "name": "to",
          "type": "address"
        },
        {
          "internalType": "uint256",
          "name": "value",
          "type": "uint256"
        }
      ],
      "name": "transferFrom",
      "outputs": [
        {
          "internalType": "bool",
          "name": "",
          "type": "bool"
        }
      ],
      "stateMutability": "nonpayable",
      "type": "function"
    },
    {
      "inputs": [
        {
          "internalType": "address",
          "name": "newOwner",
          "type": "address"
        }
      ],
      "name": "transferOwnership",
      "outputs": [],
      "stateMutability": "nonpayable",
      "type": "function"
    },
    {
      "stateMutability": "payable",
      "type": "receive"
    }
  ],
  "bytecode": "0x60806040526003600a5534801561001557600080fd5b506040516130d63803806130d6833981810160405281019061003791906102fa565b336040518060400160405280600881526020017f4c5020546f6b656e0000000000000000000000000000000000000000000000008152506040518060400160405280600381526020017f4c5054000000000000000000000000000000000000000000000000000000000081525081600390816100b3919061058a565b5080600490816100c3919061058a565b505050600073ffffffffffffffffffffffffffffffffffffffff168173ffffffffffffffffffffffffffffffffffffffff16036101385760006040517f1e4fbdf700000000000000000000000000000000000000000000000000000000815260040161012f919061066b565b60405180910390fd5b610147816101d160201b60201c565b5081600660006101000a81548173ffffffffffffffffffffffffffffffffffffffff021916908373ffffffffffffffffffffffffffffffffffffffff16021790555080600760006101000a81548173ffffffffffffffffffffffffffffffffffffffff021916908373ffffffffffffffffffffffffffffffffffffffff1602179055505050610686565b6000600560009054906101000a900473ffffffffffffffffffffffffffffffffffffffff16905081600560006101000a81548173ffffffffffffffffffffffffffffffffffffffff021916908373ffffffffffffffffffffffffffffffffffffffff1602179055508173ffffffffffffffffffffffffffffffffffffffff168173ffffffffffffffffffffffffffffffffffffffff167f8be0079c531659141344cd1fd0a4f28419497f9722a3daafe3b4186f6b6457e060405160405180910390a35050565b600080fd5b600073ffffffffffffffffffffffffffffffffffffffff82169050919050565b60006102c78261029c565b9050919050565b6102d7816102bc565b81146102e257600080fd5b50565b6000815190506102f4816102ce565b92915050565b6000806040838503121561031157610310610297565b5b600061031f858286016102e5565b9250506020610330858286016102e5565b9150509250929050565b600081519050919050565b7f4e487b7100000000000000000000000000000000000000000000000000000000600052604160045260246000fd5b7f4e487b7100000000000000000000000000000000000000000000000000000000600052602260045260246000fd5b600060028204905060018216806103bb57607f821691505b6020821081036103ce576103cd610374565b5b50919050565b60008190508160005260206000209050919050565b60006020601f8301049050919050565b600082821b905092915050565b6000600883026104367fffffffffffffffffffffffffffffffffffffffffffffffffffffffffffffffff826103f9565b61044086836103f9565b95508019841693508086168417925050509392505050565b6000819050919050565b6000819050919050565b600061048761048261047d84610458565b610462565b610458565b9050919050565b6000819050919050565b6104a18361046c565b6104b56104ad8261048e565b848454610406565b825550505050565b600090565b6104ca6104bd565b6104d5818484610498565b505050565b5b818110156104f9576104ee6000826104c2565b6001810190506104db565b5050565b601f82111561053e5761050f816103d4565b610518846103e9565b81016020851015610527578190505b61053b610533856103e9565b8301826104da565b50505b505050565b600082821c905092915050565b600061056160001984600802610543565b1980831691505092915050565b600061057a8383610550565b9150826002028217905092915050565b6105938261033a565b67ffffffffffffffff8111156105ac576105ab610345565b5b6105b682546103a3565b6105c18282856104fd565b600060209050601f8311600181146105f457600084156105e2578287015190505b6105ec858261056e565b865550610654565b601f198416610602866103d4565b60005b8281101561062a57848901518255600182019150602085019450602081019050610605565b868310156106475784890151610643601f891682610550565b8355505b6001600288020188555050505b505050505050565b610665816102bc565b82525050565b6000602082019050610680600083018461065c565b92915050565b612a41806106956000396000f3fe60806040526004361061014f5760003560e01c8063715018a6116100b65780639cd441da1161006f5780639cd441da146104805780639f1d0f59146104a9578063a9059cbb146104d2578063dc5fa6c51461050f578063dd62ed3e1461053a578063f2fde38b1461057757610156565b8063715018a6146103825780637df0f767146103995780638da5cb5b146103d657806395d89b4114610401578063978bbdb91461042c5780639c8f9f231461045757610156565b806328d679381161010857806328d6793814610281578063313ce567146102aa578063444aa92f146102d557806345596e2e146102f15780635f64b55b1461031a57806370a082311461034557610156565b806306fdde031461015b578063095ea7b3146101865780630fc63d10146101c357806318160ddd146101ee57806319e36f3b1461021957806323b872dd1461024457610156565b3661015657005b600080fd5b34801561016757600080fd5b506101706105a0565b60405161017d91906120ed565b60405180910390f35b34801561019257600080fd5b506101ad60048036038101906101a891906121a8565b610632565b6040516101ba9190612203565b60405180910390f35b3480156101cf57600080fd5b506101d8610655565b6040516101e5919061222d565b60405180910390f35b3480156101fa57600080fd5b5061020361067b565b6040516102109190612257565b60405180910390f35b34801561022557600080fd5b5061022e610685565b60405161023b9190612257565b60405180910390f35b34801561025057600080fd5b5061026b60048036038101906102669190612272565b61068b565b6040516102789190612203565b60405180910390f35b34801561028d57600080fd5b506102a860048036038101906102a391906122f1565b6106ba565b005b3480156102b657600080fd5b506102bf61071d565b6040516102cc919061234d565b60405180910390f35b6102ef60048036038101906102ea9190612368565b610726565b005b3480156102fd57600080fd5b5061031860048036038101906103139190612395565b610b0f565b005b34801561032657600080fd5b5061032f610b9c565b60405161033c919061222d565b60405180910390f35b34801561035157600080fd5b5061036c60048036038101906103679190612368565b610bc2565b6040516103799190612257565b60405180910390f35b34801561038e57600080fd5b50610397610c0a565b005b3480156103a557600080fd5b506103c060048036038101906103bb9190612368565b610c1e565b6040516103cd9190612203565b60405180910390f35b3480156103e257600080fd5b506103eb610c3e565b6040516103f8919061222d565b60405180910390f35b34801561040d57600080fd5b50610416610c68565b60405161042391906120ed565b60405180910390f35b34801561043857600080fd5b50610441610cfa565b60405161044e9190612257565b60405180910390f35b34801561046357600080fd5b5061047e60048036038101906104799190612395565b610d00565b005b34801561048c57600080fd5b506104a760048036038101906104a291906123c2565b610fa9565b005b3480156104b557600080fd5b506104d060048036038101906104cb9190612402565b611284565b005b3480156104de57600080fd5b506104f960048036038101906104f491906121a8565b6116a4565b6040516105069190612203565b60405180910390f35b34801561051b57600080fd5b506105246116c7565b6040516105319190612257565b60405180910390f35b34801561054657600080fd5b50610561600480360381019061055c9190612455565b6116cd565b60405161056e9190612257565b60405180910390f35b34801561058357600080fd5b5061059e60048036038101906105999190612368565b611754565b005b6060600380546105af906124c4565b80601f01602080910402602001604051908101604052809291908181526020018280546105db906124c4565b80156106285780601f106105fd57610100808354040283529160200191610628565b820191906000526020600020905b81548152906001019060200180831161060b57829003601f168201915b5050505050905090565b60008061063d6117da565b905061064a8185856117e2565b600191505092915050565b600660009054906101000a900473ffffffffffffffffffffffffffffffffffffffff1681565b6000600254905090565b60095481565b6000806106966117da565b90506106a38582856117f4565b6106ae858585611889565b60019150509392505050565b6106c261197d565b80600b60008473ffffffffffffffffffffffffffffffffffffffff1673ffffffffffffffffffffffffffffffffffffffff16815260200190815260200160002060006101000a81548160ff0219169083151502179055505050565b60006012905090565b600660009054906101000a900473ffffffffffffffffffffffffffffffffffffffff1673ffffffffffffffffffffffffffffffffffffffff168173ffffffffffffffffffffffffffffffffffffffff1614806107cf5750600760009054906101000a900473ffffffffffffffffffffffffffffffffffffffff1673ffffffffffffffffffffffffffffffffffffffff168173ffffffffffffffffffffffffffffffffffffffff16145b61080e576040517f08c379a000000000000000000000000000000000000000000000000000000000815260040161080590612541565b60405180910390fd5b6000600660009054906101000a900473ffffffffffffffffffffffffffffffffffffffff1673ffffffffffffffffffffffffffffffffffffffff168273ffffffffffffffffffffffffffffffffffffffff1614905060008161087257600854610876565b6009545b90506000826108875760095461088b565b6008545b905060008111801561089d5750600082115b6108dc576040517f08c379a00000000000000000000000000000000000000000000000000000000081526004016108d3906125ad565b60405180910390fd5b60006103e8600a546103e86108f191906125fc565b346108fc9190612630565b61090691906126a1565b90506000818461091691906126d2565b83836109229190612630565b61092c91906126a1565b905060008111610971576040517f08c379a000000000000000000000000000000000000000000000000000000000815260040161096890612752565b60405180910390fd5b84156109ae57346009600082825461098991906126d2565b9250508190555080600860008282546109a291906125fc565b925050819055506109e1565b34600860008282546109c091906126d2565b9250508190555080600960008282546109d991906125fc565b925050819055505b8573ffffffffffffffffffffffffffffffffffffffff1663a9059cbb33836040518363ffffffff1660e01b8152600401610a1c929190612772565b6020604051808303816000875af1158015610a3b573d6000803e3d6000fd5b505050506040513d601f19601f82011682018060405250810190610a5f91906127b0565b503373ffffffffffffffffffffffffffffffffffffffff167f1dbd300218e937f543e095e51a5a28974ad528e975d291bee73c9e7bb69589c2873484604051610aaa939291906127dd565b60405180910390a23373ffffffffffffffffffffffffffffffffffffffff167fcd3829a3813dc3cdd188fd3d01dcf3268c16be2fdd2dd21d0665418816e460626000883485604051610aff9493929190612814565b60405180910390a2505050505050565b610b1761197d565b6064811115610b5b576040517f08c379a0000000000000000000000000000000000000000000000000000000008152600401610b52906128a5565b60405180910390fd5b80600a819055507f6717373928cccf59cc9912055cfa8db86e7085b95c94c15862b121114aa333be81604051610b919190612257565b60405180910390a150565b600760009054906101000a900473ffffffffffffffffffffffffffffffffffffffff1681565b60008060008373ffffffffffffffffffffffffffffffffffffffff1673ffffffffffffffffffffffffffffffffffffffff168152602001908152602001600020549050919050565b610c1261197d565b610c1c6000611a04565b565b600b6020528060005260406000206000915054906101000a900460ff1681565b6000600560009054906101000a900473ffffffffffffffffffffffffffffffffffffffff16905090565b606060048054610c77906124c4565b80601f0160208091040260200160405190810160405280929190818152602001828054610ca3906124c4565b8015610cf05780601f10610cc557610100808354040283529160200191610cf0565b820191906000526020600020905b815481529060010190602001808311610cd357829003601f168201915b5050505050905090565b600a5481565b600b60003373ffffffffffffffffffffffffffffffffffffffff1673ffffffffffffffffffffffffffffffffffffffff16815260200190815260200160002060009054906101000a900460ff16610d8c576040517f08c379a0000000000000000000000000000000000000000000000000000000008152600401610d8390612911565b60405180910390fd5b6000610d9661067b565b60085483610da49190612630565b610dae91906126a1565b90506000610dba61067b565b60095484610dc89190612630565b610dd291906126a1565b9050610dde3384611aca565b8160086000828254610df091906125fc565b925050819055508060096000828254610e0991906125fc565b92505081905550600660009054906101000a900473ffffffffffffffffffffffffffffffffffffffff1673ffffffffffffffffffffffffffffffffffffffff1663a9059cbb33846040518363ffffffff1660e01b8152600401610e6d929190612772565b6020604051808303816000875af1158015610e8c573d6000803e3d6000fd5b505050506040513d601f19601f82011682018060405250810190610eb091906127b0565b50600760009054906101000a900473ffffffffffffffffffffffffffffffffffffffff1673ffffffffffffffffffffffffffffffffffffffff1663a9059cbb33836040518363ffffffff1660e01b8152600401610f0e929190612772565b6020604051808303816000875af1158015610f2d573d6000803e3d6000fd5b505050506040513d601f19601f82011682018060405250810190610f5191906127b0565b503373ffffffffffffffffffffffffffffffffffffffff167f59c3a0b60c6ab7deb62e1440c9e72441db6db7dfe514dba8cb18e60c0d896efa838386604051610f9c93929190612931565b60405180910390a2505050565b600b60003373ffffffffffffffffffffffffffffffffffffffff1673ffffffffffffffffffffffffffffffffffffffff16815260200190815260200160002060009054906101000a900460ff16611035576040517f08c379a000000000000000000000000000000000000000000000000000000000815260040161102c90612911565b60405180910390fd5b600660009054906101000a900473ffffffffffffffffffffffffffffffffffffffff1673ffffffffffffffffffffffffffffffffffffffff166323b872dd3330856040518463ffffffff1660e01b815260040161109493929190612968565b6020604051808303816000875af11580156110b3573d6000803e3d6000fd5b505050506040513d601f19601f820116820180604052508101906110d791906127b0565b50600760009054906101000a900473ffffffffffffffffffffffffffffffffffffffff1673ffffffffffffffffffffffffffffffffffffffff166323b872dd3330846040518463ffffffff1660e01b815260040161113793929190612968565b6020604051808303816000875af1158015611156573d6000803e3d6000fd5b505050506040513d601f19601f8201168201806040525081019061117a91906127b0565b5060008061118661067b565b036111a65761119f828461119a9190612630565b611b4c565b90506111f1565b6111ee6008546111b461067b565b856111bf9190612630565b6111c991906126a1565b6009546111d461067b565b856111df9190612630565b6111e991906126a1565b611bc6565b90505b6111fb3382611bdf565b826008600082825461120d91906126d2565b92505081905550816009600082825461122691906126d2565b925050819055503373ffffffffffffffffffffffffffffffffffffffff167fbeb3885786d637a474cbc287c0a44587231633a077f0bd30354d5a4b18996fce84848460405161127793929190612931565b60405180910390a2505050565b600660009054906101000a900473ffffffffffffffffffffffffffffffffffffffff1673ffffffffffffffffffffffffffffffffffffffff168373ffffffffffffffffffffffffffffffffffffffff16148061132d5750600760009054906101000a900473ffffffffffffffffffffffffffffffffffffffff1673ffffffffffffffffffffffffffffffffffffffff168373ffffffffffffffffffffffffffffffffffffffff16145b61136c576040517f08c379a000000000000000000000000000000000000000000000000000000000815260040161136390612541565b60405180910390fd5b6000600660009054906101000a900473ffffffffffffffffffffffffffffffffffffffff1673ffffffffffffffffffffffffffffffffffffffff168473ffffffffffffffffffffffffffffffffffffffff161490506000816113f057600660009054906101000a900473ffffffffffffffffffffffffffffffffffffffff16611414565b600760009054906101000a900473ffffffffffffffffffffffffffffffffffffffff165b905060008261142557600954611429565b6008545b905060008361143a5760085461143e565b6009545b90508673ffffffffffffffffffffffffffffffffffffffff166323b872dd3330896040518463ffffffff1660e01b815260040161147d93929190612968565b6020604051808303816000875af115801561149c573d6000803e3d6000fd5b505050506040513d601f19601f820116820180604052508101906114c091906127b0565b5060006103e8600a546103e86114d691906125fc565b886114e19190612630565b6114eb91906126a1565b9050600081846114fb91906126d2565b83836115079190612630565b61151191906126a1565b905086811015611556576040517f08c379a000000000000000000000000000000000000000000000000000000000815260040161154d906129eb565b60405180910390fd5b8473ffffffffffffffffffffffffffffffffffffffff1663a9059cbb33836040518363ffffffff1660e01b8152600401611591929190612772565b6020604051808303816000875af11580156115b0573d6000803e3d6000fd5b505050506040513d601f19601f820116820180604052508101906115d491906127b0565b5085156116125787600860008282546115ed91906126d2565b92505081905550806009600082825461160691906125fc565b92505081905550611645565b876009600082825461162491906126d2565b92505081905550806008600082825461163d91906125fc565b925050819055505b3373ffffffffffffffffffffffffffffffffffffffff167fcd3829a3813dc3cdd188fd3d01dcf3268c16be2fdd2dd21d0665418816e460628a878b856040516116919493929190612814565b60405180910390a2505050505050505050565b6000806116af6117da565b90506116bc818585611889565b600191505092915050565b60085481565b6000600160008473ffffffffffffffffffffffffffffffffffffffff1673ffffffffffffffffffffffffffffffffffffffff16815260200190815260200160002060008373ffffffffffffffffffffffffffffffffffffffff1673ffffffffffffffffffffffffffffffffffffffff16815260200190815260200160002054905092915050565b61175c61197d565b600073ffffffffffffffffffffffffffffffffffffffff168173ffffffffffffffffffffffffffffffffffffffff16036117ce5760006040517f1e4fbdf70000000000000000000000000000000000000000000000000000000081526004016117c5919061222d565b60405180910390fd5b6117d781611a04565b50565b600033905090565b6117ef8383836001611c61565b505050565b600061180084846116cd565b90507fffffffffffffffffffffffffffffffffffffffffffffffffffffffffffffffff8110156118835781811015611873578281836040517ffb8f41b200000000000000000000000000000000000000000000000000000000815260040161186a939291906127dd565b60405180910390fd5b61188284848484036000611c61565b5b50505050565b600073ffffffffffffffffffffffffffffffffffffffff168373ffffffffffffffffffffffffffffffffffffffff16036118fb5760006040517f96c6fd1e0000000000000000000000000000000000000000000000000000000081526004016118f2919061222d565b60405180910390fd5b600073ffffffffffffffffffffffffffffffffffffffff168273ffffffffffffffffffffffffffffffffffffffff160361196d5760006040517fec442f05000000000000000000000000000000000000000000000000000000008152600401611964919061222d565b60405180910390fd5b611978838383611e38565b505050565b6119856117da565b73ffffffffffffffffffffffffffffffffffffffff166119a3610c3e565b73ffffffffffffffffffffffffffffffffffffffff1614611a02576119c66117da565b6040517f118cdaa70000000000000000000000000000000000000000000000000000000081526004016119f9919061222d565b60405180910390fd5b565b6000600560009054906101000a900473ffffffffffffffffffffffffffffffffffffffff16905081600560006101000a81548173ffffffffffffffffffffffffffffffffffffffff021916908373ffffffffffffffffffffffffffffffffffffffff1602179055508173ffffffffffffffffffffffffffffffffffffffff168173ffffffffffffffffffffffffffffffffffffffff167f8be0079c531659141344cd1fd0a4f28419497f9722a3daafe3b4186f6b6457e060405160405180910390a35050565b600073ffffffffffffffffffffffffffffffffffffffff168273ffffffffffffffffffffffffffffffffffffffff1603611b3c5760006040517f96c6fd1e000000000000000000000000000000000000000000000000000000008152600401611b33919061222d565b60405180910390fd5b611b4882600083611e38565b5050565b60006003821115611bb35781905060006001600284611b6b91906126a1565b611b7591906126d2565b90505b81811015611bad578091506002818285611b9291906126a1565b611b9c91906126d2565b611ba691906126a1565b9050611b78565b50611bc1565b60008214611bc057600190505b5b919050565b6000818310611bd55781611bd7565b825b905092915050565b600073ffffffffffffffffffffffffffffffffffffffff168273ffffffffffffffffffffffffffffffffffffffff1603611c515760006040517fec442f05000000000000000000000000000000000000000000000000000000008152600401611c48919061222d565b60405180910390fd5b611c5d60008383611e38565b5050565b600073ffffffffffffffffffffffffffffffffffffffff168473ffffffffffffffffffffffffffffffffffffffff1603611cd35760006040517fe602df05000000000000000000000000000000000000000000000000000000008152600401611cca919061222d565b60405180910390fd5b600073ffffffffffffffffffffffffffffffffffffffff168373ffffffffffffffffffffffffffffffffffffffff1603611d455760006040517f94280d62000000000000000000000000000000000000000000000000000000008152600401611d3c919061222d565b60405180910390fd5b81600160008673ffffffffffffffffffffffffffffffffffffffff1673ffffffffffffffffffffffffffffffffffffffff16815260200190815260200160002060008573ffffffffffffffffffffffffffffffffffffffff1673ffffffffffffffffffffffffffffffffffffffff168152602001908152602001600020819055508015611e32578273ffffffffffffffffffffffffffffffffffffffff168473ffffffffffffffffffffffffffffffffffffffff167f8c5be1e5ebec7d5bd14f71427d1e84f3dd0314c0f7b2291e5b200ac8c7c3b92584604051611e299190612257565b60405180910390a35b50505050565b600073ffffffffffffffffffffffffffffffffffffffff168373ffffffffffffffffffffffffffffffffffffffff1603611e8a578060026000828254611e7e91906126d2565b92505081905550611f5d565b60008060008573ffffffffffffffffffffffffffffffffffffffff1673ffffffffffffffffffffffffffffffffffffffff16815260200190815260200160002054905081811015611f16578381836040517fe450d38c000000000000000000000000000000000000000000000000000000008152600401611f0d939291906127dd565b60405180910390fd5b8181036000808673ffffffffffffffffffffffffffffffffffffffff1673ffffffffffffffffffffffffffffffffffffffff16815260200190815260200160002081905550505b600073ffffffffffffffffffffffffffffffffffffffff168273ffffffffffffffffffffffffffffffffffffffff1603611fa65780600260008282540392505081905550611ff3565b806000808473ffffffffffffffffffffffffffffffffffffffff1673ffffffffffffffffffffffffffffffffffffffff168152602001908152602001600020600082825401925050819055505b8173ffffffffffffffffffffffffffffffffffffffff168373ffffffffffffffffffffffffffffffffffffffff167fddf252ad1be2c89b69c2b068fc378daa952ba7f163c4a11628f55a4df523b3ef836040516120509190612257565b60405180910390a3505050565b600081519050919050565b600082825260208201905092915050565b60005b8381101561209757808201518184015260208101905061207c565b60008484015250505050565b6000601f19601f8301169050919050565b60006120bf8261205d565b6120c98185612068565b93506120d9818560208601612079565b6120e2816120a3565b840191505092915050565b6000602082019050818103600083015261210781846120b4565b905092915050565b600080fd5b600073ffffffffffffffffffffffffffffffffffffffff82169050919050565b600061213f82612114565b9050919050565b61214f81612134565b811461215a57600080fd5b50565b60008135905061216c81612146565b92915050565b6000819050919050565b61218581612172565b811461219057600080fd5b50565b6000813590506121a28161217c565b92915050565b600080604083850312156121bf576121be61210f565b5b60006121cd8582860161215d565b92505060206121de85828601612193565b9150509250929050565b60008115159050919050565b6121fd816121e8565b82525050565b600060208201905061221860008301846121f4565b92915050565b61222781612134565b82525050565b6000602082019050612242600083018461221e565b92915050565b61225181612172565b82525050565b600060208201905061226c6000830184612248565b92915050565b60008060006060848603121561228b5761228a61210f565b5b60006122998682870161215d565b93505060206122aa8682870161215d565b92505060406122bb86828701612193565b9150509250925092565b6122ce816121e8565b81146122d957600080fd5b50565b6000813590506122eb816122c5565b92915050565b600080604083850312156123085761230761210f565b5b60006123168582860161215d565b9250506020612327858286016122dc565b9150509250929050565b600060ff82169050919050565b61234781612331565b82525050565b6000602082019050612362600083018461233e565b92915050565b60006020828403121561237e5761237d61210f565b5b600061238c8482850161215d565b91505092915050565b6000602082840312156123ab576123aa61210f565b5b60006123b984828501612193565b91505092915050565b600080604083850312156123d9576123d861210f565b5b60006123e785828601612193565b92505060206123f885828601612193565b9150509250929050565b60008060006060848603121561241b5761241a61210f565b5b60006124298682870161215d565b935050602061243a86828701612193565b925050604061244b86828701612193565b9150509250925092565b6000806040838503121561246c5761246b61210f565b5b600061247a8582860161215d565b925050602061248b8582860161215d565b9150509250929050565b7f4e487b7100000000000000000000000000000000000000000000000000000000600052602260045260246000fd5b600060028204905060018216806124dc57607f821691505b6020821081036124ef576124ee612495565b5b50919050565b7f496e76616c696420746f6b656e00000000000000000000000000000000000000600082015250565b600061252b600d83612068565b9150612536826124f5565b602082019050919050565b6000602082019050818103600083015261255a8161251e565b9050919050565b7f456d70747920706f6f6c00000000000000000000000000000000000000000000600082015250565b6000612597600a83612068565b91506125a282612561565b602082019050919050565b600060208201905081810360008301526125c68161258a565b9050919050565b7f4e487b7100000000000000000000000000000000000000000000000000000000600052601160045260246000fd5b600061260782612172565b915061261283612172565b925082820390508181111561262a576126296125cd565b5b92915050565b600061263b82612172565b915061264683612172565b925082820261265481612172565b9150828204841483151761266b5761266a6125cd565b5b5092915050565b7f4e487b7100000000000000000000000000000000000000000000000000000000600052601260045260246000fd5b60006126ac82612172565b91506126b783612172565b9250826126c7576126c6612672565b5b828204905092915050565b60006126dd82612172565b91506126e883612172565b9250828201905080821115612700576126ff6125cd565b5b92915050565b7f496e73756666696369656e74206f757470757400000000000000000000000000600082015250565b600061273c601383612068565b915061274782612706565b602082019050919050565b6000602082019050818103600083015261276b8161272f565b9050919050565b6000604082019050612787600083018561221e565b6127946020830184612248565b9392505050565b6000815190506127aa816122c5565b92915050565b6000602082840312156127c6576127c561210f565b5b60006127d48482850161279b565b91505092915050565b60006060820190506127f2600083018661221e565b6127ff6020830185612248565b61280c6040830184612248565b949350505050565b6000608082019050612829600083018761221e565b612836602083018661221e565b6128436040830185612248565b6128506060830184612248565b95945050505050565b7f546f6f2068696768000000000000000000000000000000000000000000000000600082015250565b600061288f600883612068565b915061289a82612859565b602082019050919050565b600060208201905081810360008301526128be81612882565b9050919050565b7f4e6f7420616c6c6f7765643a204e6f74204c5000000000000000000000000000600082015250565b60006128fb601383612068565b9150612906826128c5565b602082019050919050565b6000602082019050818103600083015261292a816128ee565b9050919050565b60006060820190506129466000830186612248565b6129536020830185612248565b6129606040830184612248565b949350505050565b600060608201905061297d600083018661221e565b61298a602083018561221e565b6129976040830184612248565b949350505050565b7f536c69707061676520746f6f2068696768000000000000000000000000000000600082015250565b60006129d5601183612068565b91506129e08261299f565b602082019050919050565b60006020820190508181036000830152612a04816129c8565b905091905056fea26469706673582212205bbc70d9144c673a8e6413f16ceed95f6e4e0b1a7d344476b808f239daa1229264736f6c634300081c0033",
  "linkReferences": {},
  "deployedLinkReferences": {}
}