{
  "_format": "hh-sol-artifact-1",
  "contractName": "MyToken",
  "sourceName": "contracts/MyToken.sol",
  "abi": [
    {
      "inputs": [
        {
          "internalType": "string",
          "name": "name",
          "type": "string"
        },
        {
          "internalType": "string",
          "name": "symbol",
          "type": "string"
        }
      ],
      "stateMutability": "nonpayable",
      "type": "constructor"
    },
    {
      "inputs": [
        {
          "internalType": "address",
          "name": "spender",
          "type": "address"
        },
        {
          "internalType": "uint256",
          "name": "allowance",
          "type": "uint256"
        },
        {
          "internalType": "uint256",
          "name": "needed",
          "type": "uint256"
        }
      ],
      "name": "ERC20InsufficientAllowance",
      "type": "error"
    },
    {
      "inputs": [
        {
          "internalType": "address",
          "name": "sender",
          "type": "address"
        },
        {
          "internalType": "uint256",
          "name": "balance",
          "type": "uint256"
        },
        {
          "internalType": "uint256",
          "name": "needed",
          "type": "uint256"
        }
      ],
      "name": "ERC20InsufficientBalance",
      "type": "error"
    },
    {
      "inputs": [
        {
          "internalType": "address",
          "name": "approver",
          "type": "address"
        }
      ],
      "name": "ERC20InvalidApprover",
      "type": "error"
    },
    {
      "inputs": [
        {
          "internalType": "address",
          "name": "receiver",
          "type": "address"
        }
      ],
      "name": "ERC20InvalidReceiver",
      "type": "error"
    },
    {
      "inputs": [
        {
          "internalType": "address",
          "name": "sender",
          "type": "address"
        }
      ],
      "name": "ERC20InvalidSender",
      "type": "error"
    },
    {
      "inputs": [
        {
          "internalType": "address",
          "name": "spender",
          "type": "address"
        }
      ],
      "name": "ERC20InvalidSpender",
      "type": "error"
    },
    {
      "inputs": [
        {
          "internalType": "address",
          "name": "owner",
          "type": "address"
        }
      ],
      "name": "OwnableInvalidOwner",
      "type": "error"
    },
    {
      "inputs": [
        {
          "internalType": "address",
          "name": "account",
          "type": "address"
        }
      ],
      "name": "OwnableUnauthorizedAccount",
      "type": "error"
    },
    {
      "anonymous": false,
      "inputs": [
        {
          "indexed": true,
          "internalType": "address",
          "name": "owner",
          "type": "address"
        },
        {
          "indexed": true,
          "internalType": "address",
          "name": "spender",
          "type": "address"
        },
        {
          "indexed": false,
          "internalType": "uint256",
          "name": "value",
          "type": "uint256"
        }
      ],
      "name": "Approval",
      "type": "event"
    },
    {
      "anonymous": false,
      "inputs": [
        {
          "indexed": true,
          "internalType": "address",
          "name": "previousOwner",
          "type": "address"
        },
        {
          "indexed": true,
          "internalType": "address",
          "name": "newOwner",
          "type": "address"
        }
      ],
      "name": "OwnershipTransferred",
      "type": "event"
    },
    {
      "anonymous": false,
      "inputs": [
        {
          "indexed": true,
          "internalType": "address",
          "name": "from",
          "type": "address"
        },
        {
          "indexed": true,
          "internalType": "address",
          "name": "to",
          "type": "address"
        },
        {
          "indexed": false,
          "internalType": "uint256",
          "name": "value",
          "type": "uint256"
        }
      ],
      "name": "Transfer",
      "type": "event"
    },
    {
      "stateMutability": "payable",
      "type": "fallback"
    },
    {
      "inputs": [
        {
          "internalType": "address",
          "name": "owner",
          "type": "address"
        },
        {
          "internalType": "address",
          "name": "spender",
          "type": "address"
        }
      ],
      "name": "allowance",
      "outputs": [
        {
          "internalType": "uint256",
          "name": "",
          "type": "uint256"
        }
      ],
      "stateMutability": "view",
      "type": "function"
    },
    {
      "inputs": [
        {
          "internalType": "address",
          "name": "spender",
          "type": "address"
        },
        {
          "internalType": "uint256",
          "name": "value",
          "type": "uint256"
        }
      ],
      "name": "approve",
      "outputs": [
        {
          "internalType": "bool",
          "name": "",
          "type": "bool"
        }
      ],
      "stateMutability": "nonpayable",
      "type": "function"
    },
    {
      "inputs": [
        {
          "internalType": "address",
          "name": "account",
          "type": "address"
        }
      ],
      "name": "balanceOf",
      "outputs": [
        {
          "internalType": "uint256",
          "name": "",
          "type": "uint256"
        }
      ],
      "stateMutability": "view",
      "type": "function"
    },
    {
      "inputs": [],
      "name": "buyToken",
      "outputs": [],
      "stateMutability": "payable",
      "type": "function"
    },
    {
      "inputs": [],
      "name": "decimals",
      "outputs": [
        {
          "internalType": "uint8",
          "name": "",
          "type": "uint8"
        }
      ],
      "stateMutability": "view",
      "type": "function"
    },
    {
      "inputs": [
        {
          "internalType": "address",
          "name": "to",
          "type": "address"
        },
        {
          "internalType": "uint256",
          "name": "amount",
          "type": "uint256"
        }
      ],
      "name": "mint",
      "outputs": [],
      "stateMutability": "nonpayable",
      "type": "function"
    },
    {
      "inputs": [],
      "name": "name",
      "outputs": [
        {
          "internalType": "string",
          "name": "",
          "type": "string"
        }
      ],
      "stateMutability": "view",
      "type": "function"
    },
    {
      "inputs": [],
      "name": "owner",
      "outputs": [
        {
          "internalType": "address",
          "name": "",
          "type": "address"
        }
      ],
      "stateMutability": "view",
      "type": "function"
    },
    {
      "inputs": [],
      "name": "pricePerToken",
      "outputs": [
        {
          "internalType": "uint256",
          "name": "",
          "type": "uint256"
        }
      ],
      "stateMutability": "view",
      "type": "function"
    },
    {
      "inputs": [],
      "name": "renounceOwnership",
      "outputs": [],
      "stateMutability": "nonpayable",
      "type": "function"
    },
    {
      "inputs": [
        {
          "internalType": "uint256",
          "name": "newPriceInWei",
          "type": "uint256"
        }
      ],
      "name": "setPrice",
      "outputs": [],
      "stateMutability": "nonpayable",
      "type": "function"
    },
    {
      "inputs": [],
      "name": "symbol",
      "outputs": [
        {
          "internalType": "string",
          "name": "",
          "type": "string"
        }
      ],
      "stateMutability": "view",
      "type": "function"
    },
    {
      "inputs": [],
      "name": "totalSupply",
      "outputs": [
        {
          "internalType": "uint256",
          "name": "",
          "type": "uint256"
        }
      ],
      "stateMutability": "view",
      "type": "function"
    },
    {
      "inputs": [
        {
          "internalType": "address",
          "name": "to",
          "type": "address"
        },
        {
          "internalType": "uint256",
          "name": "value",
          "type": "uint256"
        }
      ],
      "name": "transfer",
      "outputs": [
        {
          "internalType": "bool",
          "name": "",
          "type": "bool"
        }
      ],
      "stateMutability": "nonpayable",
      "type": "function"
    },
    {
      "inputs": [
        {
          "internalType": "address",
          "name": "from",
          "type": "address"
        },
        {
          "internalType": "address",
          "name": "to",
          "type": "address"
        },
        {
          "internalType": "uint256",
          "name": "value",
          "type": "uint256"
        }
      ],
      "name": "transferFrom",
      "outputs": [
        {
          "internalType": "bool",
          "name": "",
          "type": "bool"
        }
      ],
      "stateMutability": "nonpayable",
      "type": "function"
    },
    {
      "inputs": [
        {
          "internalType": "address",
          "name": "newOwner",
          "type": "address"
        }
      ],
      "name": "transferOwnership",
      "outputs": [],
      "stateMutability": "nonpayable",
      "type": "function"
    },
    {
      "inputs": [],
      "name": "withdraw",
      "outputs": [],
      "stateMutability": "nonpayable",
      "type": "function"
    },
    {
      "stateMutability": "payable",
      "type": "receive"
    }
  ],
  "bytecode": "0x608060405266038d7ea4c6800060065534801561001b57600080fd5b50604051611c1c380380611c1c833981810160405281019061003d9190610326565b338282816003908161004f91906105bf565b50806004908161005f91906105bf565b505050600073ffffffffffffffffffffffffffffffffffffffff168173ffffffffffffffffffffffffffffffffffffffff16036100d45760006040517f1e4fbdf70000000000000000000000000000000000000000000000000000000081526004016100cb91906106d2565b60405180910390fd5b6100e3816100eb60201b60201c565b5050506106ed565b6000600560009054906101000a900473ffffffffffffffffffffffffffffffffffffffff16905081600560006101000a81548173ffffffffffffffffffffffffffffffffffffffff021916908373ffffffffffffffffffffffffffffffffffffffff1602179055508173ffffffffffffffffffffffffffffffffffffffff168173ffffffffffffffffffffffffffffffffffffffff167f8be0079c531659141344cd1fd0a4f28419497f9722a3daafe3b4186f6b6457e060405160405180910390a35050565b6000604051905090565b600080fd5b600080fd5b600080fd5b600080fd5b6000601f19601f8301169050919050565b7f4e487b7100000000000000000000000000000000000000000000000000000000600052604160045260246000fd5b610218826101cf565b810181811067ffffffffffffffff82111715610237576102366101e0565b5b80604052505050565b600061024a6101b1565b9050610256828261020f565b919050565b600067ffffffffffffffff821115610276576102756101e0565b5b61027f826101cf565b9050602081019050919050565b60005b838110156102aa57808201518184015260208101905061028f565b60008484015250505050565b60006102c96102c48461025b565b610240565b9050828152602081018484840111156102e5576102e46101ca565b5b6102f084828561028c565b509392505050565b600082601f83011261030d5761030c6101c5565b5b815161031d8482602086016102b6565b91505092915050565b6000806040838503121561033d5761033c6101bb565b5b600083015167ffffffffffffffff81111561035b5761035a6101c0565b5b610367858286016102f8565b925050602083015167ffffffffffffffff811115610388576103876101c0565b5b610394858286016102f8565b9150509250929050565b600081519050919050565b7f4e487b7100000000000000000000000000000000000000000000000000000000600052602260045260246000fd5b600060028204905060018216806103f057607f821691505b602082108103610403576104026103a9565b5b50919050565b60008190508160005260206000209050919050565b60006020601f8301049050919050565b600082821b905092915050565b60006008830261046b7fffffffffffffffffffffffffffffffffffffffffffffffffffffffffffffffff8261042e565b610475868361042e565b95508019841693508086168417925050509392505050565b6000819050919050565b6000819050919050565b60006104bc6104b76104b28461048d565b610497565b61048d565b9050919050565b6000819050919050565b6104d6836104a1565b6104ea6104e2826104c3565b84845461043b565b825550505050565b600090565b6104ff6104f2565b61050a8184846104cd565b505050565b5b8181101561052e576105236000826104f7565b600181019050610510565b5050565b601f8211156105735761054481610409565b61054d8461041e565b8101602085101561055c578190505b6105706105688561041e565b83018261050f565b50505b505050565b600082821c905092915050565b600061059660001984600802610578565b1980831691505092915050565b60006105af8383610585565b9150826002028217905092915050565b6105c88261039e565b67ffffffffffffffff8111156105e1576105e06101e0565b5b6105eb82546103d8565b6105f6828285610532565b600060209050601f8311600181146106295760008415610617578287015190505b61062185826105a3565b865550610689565b601f19841661063786610409565b60005b8281101561065f5784890151825560018201915060208501945060208101905061063a565b8683101561067c5784890151610678601f891682610585565b8355505b6001600288020188555050505b505050505050565b600073ffffffffffffffffffffffffffffffffffffffff82169050919050565b60006106bc82610691565b9050919050565b6106cc816106b1565b82525050565b60006020820190506106e760008301846106c3565b92915050565b611520806106fc6000396000f3fe6080604052600436106101025760003560e01c8063715018a61161009557806395d89b411161006457806395d89b4114610329578063a482171914610354578063a9059cbb1461035e578063dd62ed3e1461039b578063f2fde38b146103d857610111565b8063715018a6146102935780637b1b1de6146102aa5780638da5cb5b146102d557806391b7f5ed1461030057610111565b8063313ce567116100d1578063313ce567146101eb5780633ccfd60b1461021657806340c10f191461022d57806370a082311461025657610111565b806306fdde031461011b578063095ea7b31461014657806318160ddd1461018357806323b872dd146101ae57610111565b366101115761010f610401565b005b610119610401565b005b34801561012757600080fd5b50610130610476565b60405161013d9190611039565b60405180910390f35b34801561015257600080fd5b5061016d600480360381019061016891906110f4565b610508565b60405161017a919061114f565b60405180910390f35b34801561018f57600080fd5b5061019861052b565b6040516101a59190611179565b60405180910390f35b3480156101ba57600080fd5b506101d560048036038101906101d09190611194565b610535565b6040516101e2919061114f565b60405180910390f35b3480156101f757600080fd5b50610200610564565b60405161020d9190611203565b60405180910390f35b34801561022257600080fd5b5061022b61056d565b005b34801561023957600080fd5b50610254600480360381019061024f91906110f4565b6105c5565b005b34801561026257600080fd5b5061027d6004803603810190610278919061121e565b6105db565b60405161028a9190611179565b60405180910390f35b34801561029f57600080fd5b506102a8610623565b005b3480156102b657600080fd5b506102bf610637565b6040516102cc9190611179565b60405180910390f35b3480156102e157600080fd5b506102ea61063d565b6040516102f7919061125a565b60405180910390f35b34801561030c57600080fd5b5061032760048036038101906103229190611275565b610667565b005b34801561033557600080fd5b5061033e610679565b60405161034b9190611039565b60405180910390f35b61035c610401565b005b34801561036a57600080fd5b50610385600480360381019061038091906110f4565b61070b565b604051610392919061114f565b60405180910390f35b3480156103a757600080fd5b506103c260048036038101906103bd91906112a2565b61072e565b6040516103cf9190611179565b60405180910390f35b3480156103e457600080fd5b506103ff60048036038101906103fa919061121e565b6107b5565b005b60003411610444576040517f08c379a000000000000000000000000000000000000000000000000000000000815260040161043b9061132e565b60405180910390fd5b6000600654670de0b6b3a76400003461045d919061137d565b61046791906113ee565b9050610473338261083b565b50565b6060600380546104859061144e565b80601f01602080910402602001604051908101604052809291908181526020018280546104b19061144e565b80156104fe5780601f106104d3576101008083540402835291602001916104fe565b820191906000526020600020905b8154815290600101906020018083116104e157829003601f168201915b5050505050905090565b6000806105136108bd565b90506105208185856108c5565b600191505092915050565b6000600254905090565b6000806105406108bd565b905061054d8582856108d7565b61055885858561096c565b60019150509392505050565b60006012905090565b610575610a60565b61057d61063d565b73ffffffffffffffffffffffffffffffffffffffff166108fc479081150290604051600060405180830381858888f193505050501580156105c2573d6000803e3d6000fd5b50565b6105cd610a60565b6105d7828261083b565b5050565b60008060008373ffffffffffffffffffffffffffffffffffffffff1673ffffffffffffffffffffffffffffffffffffffff168152602001908152602001600020549050919050565b61062b610a60565b6106356000610ae7565b565b60065481565b6000600560009054906101000a900473ffffffffffffffffffffffffffffffffffffffff16905090565b61066f610a60565b8060068190555050565b6060600480546106889061144e565b80601f01602080910402602001604051908101604052809291908181526020018280546106b49061144e565b80156107015780601f106106d657610100808354040283529160200191610701565b820191906000526020600020905b8154815290600101906020018083116106e457829003601f168201915b5050505050905090565b6000806107166108bd565b905061072381858561096c565b600191505092915050565b6000600160008473ffffffffffffffffffffffffffffffffffffffff1673ffffffffffffffffffffffffffffffffffffffff16815260200190815260200160002060008373ffffffffffffffffffffffffffffffffffffffff1673ffffffffffffffffffffffffffffffffffffffff16815260200190815260200160002054905092915050565b6107bd610a60565b600073ffffffffffffffffffffffffffffffffffffffff168173ffffffffffffffffffffffffffffffffffffffff160361082f5760006040517f1e4fbdf7000000000000000000000000000000000000000000000000000000008152600401610826919061125a565b60405180910390fd5b61083881610ae7565b50565b600073ffffffffffffffffffffffffffffffffffffffff168273ffffffffffffffffffffffffffffffffffffffff16036108ad5760006040517fec442f050000000000000000000000000000000000000000000000000000000081526004016108a4919061125a565b60405180910390fd5b6108b960008383610bad565b5050565b600033905090565b6108d28383836001610dd2565b505050565b60006108e3848461072e565b90507fffffffffffffffffffffffffffffffffffffffffffffffffffffffffffffffff8110156109665781811015610956578281836040517ffb8f41b200000000000000000000000000000000000000000000000000000000815260040161094d9392919061147f565b60405180910390fd5b61096584848484036000610dd2565b5b50505050565b600073ffffffffffffffffffffffffffffffffffffffff168373ffffffffffffffffffffffffffffffffffffffff16036109de5760006040517f96c6fd1e0000000000000000000000000000000000000000000000000000000081526004016109d5919061125a565b60405180910390fd5b600073ffffffffffffffffffffffffffffffffffffffff168273ffffffffffffffffffffffffffffffffffffffff1603610a505760006040517fec442f05000000000000000000000000000000000000000000000000000000008152600401610a47919061125a565b60405180910390fd5b610a5b838383610bad565b505050565b610a686108bd565b73ffffffffffffffffffffffffffffffffffffffff16610a8661063d565b73ffffffffffffffffffffffffffffffffffffffff1614610ae557610aa96108bd565b6040517f118cdaa7000000000000000000000000000000000000000000000000000000008152600401610adc919061125a565b60405180910390fd5b565b6000600560009054906101000a900473ffffffffffffffffffffffffffffffffffffffff16905081600560006101000a81548173ffffffffffffffffffffffffffffffffffffffff021916908373ffffffffffffffffffffffffffffffffffffffff1602179055508173ffffffffffffffffffffffffffffffffffffffff168173ffffffffffffffffffffffffffffffffffffffff167f8be0079c531659141344cd1fd0a4f28419497f9722a3daafe3b4186f6b6457e060405160405180910390a35050565b600073ffffffffffffffffffffffffffffffffffffffff168373ffffffffffffffffffffffffffffffffffffffff1603610bff578060026000828254610bf391906114b6565b92505081905550610cd2565b60008060008573ffffffffffffffffffffffffffffffffffffffff1673ffffffffffffffffffffffffffffffffffffffff16815260200190815260200160002054905081811015610c8b578381836040517fe450d38c000000000000000000000000000000000000000000000000000000008152600401610c829392919061147f565b60405180910390fd5b8181036000808673ffffffffffffffffffffffffffffffffffffffff1673ffffffffffffffffffffffffffffffffffffffff16815260200190815260200160002081905550505b600073ffffffffffffffffffffffffffffffffffffffff168273ffffffffffffffffffffffffffffffffffffffff1603610d1b5780600260008282540392505081905550610d68565b806000808473ffffffffffffffffffffffffffffffffffffffff1673ffffffffffffffffffffffffffffffffffffffff168152602001908152602001600020600082825401925050819055505b8173ffffffffffffffffffffffffffffffffffffffff168373ffffffffffffffffffffffffffffffffffffffff167fddf252ad1be2c89b69c2b068fc378daa952ba7f163c4a11628f55a4df523b3ef83604051610dc59190611179565b60405180910390a3505050565b600073ffffffffffffffffffffffffffffffffffffffff168473ffffffffffffffffffffffffffffffffffffffff1603610e445760006040517fe602df05000000000000000000000000000000000000000000000000000000008152600401610e3b919061125a565b60405180910390fd5b600073ffffffffffffffffffffffffffffffffffffffff168373ffffffffffffffffffffffffffffffffffffffff1603610eb65760006040517f94280d62000000000000000000000000000000000000000000000000000000008152600401610ead919061125a565b60405180910390fd5b81600160008673ffffffffffffffffffffffffffffffffffffffff1673ffffffffffffffffffffffffffffffffffffffff16815260200190815260200160002060008573ffffffffffffffffffffffffffffffffffffffff1673ffffffffffffffffffffffffffffffffffffffff168152602001908152602001600020819055508015610fa3578273ffffffffffffffffffffffffffffffffffffffff168473ffffffffffffffffffffffffffffffffffffffff167f8c5be1e5ebec7d5bd14f71427d1e84f3dd0314c0f7b2291e5b200ac8c7c3b92584604051610f9a9190611179565b60405180910390a35b50505050565b600081519050919050565b600082825260208201905092915050565b60005b83811015610fe3578082015181840152602081019050610fc8565b60008484015250505050565b6000601f19601f8301169050919050565b600061100b82610fa9565b6110158185610fb4565b9350611025818560208601610fc5565b61102e81610fef565b840191505092915050565b600060208201905081810360008301526110538184611000565b905092915050565b600080fd5b600073ffffffffffffffffffffffffffffffffffffffff82169050919050565b600061108b82611060565b9050919050565b61109b81611080565b81146110a657600080fd5b50565b6000813590506110b881611092565b92915050565b6000819050919050565b6110d1816110be565b81146110dc57600080fd5b50565b6000813590506110ee816110c8565b92915050565b6000806040838503121561110b5761110a61105b565b5b6000611119858286016110a9565b925050602061112a858286016110df565b9150509250929050565b60008115159050919050565b61114981611134565b82525050565b60006020820190506111646000830184611140565b92915050565b611173816110be565b82525050565b600060208201905061118e600083018461116a565b92915050565b6000806000606084860312156111ad576111ac61105b565b5b60006111bb868287016110a9565b93505060206111cc868287016110a9565b92505060406111dd868287016110df565b9150509250925092565b600060ff82169050919050565b6111fd816111e7565b82525050565b600060208201905061121860008301846111f4565b92915050565b6000602082840312156112345761123361105b565b5b6000611242848285016110a9565b91505092915050565b61125481611080565b82525050565b600060208201905061126f600083018461124b565b92915050565b60006020828403121561128b5761128a61105b565b5b6000611299848285016110df565b91505092915050565b600080604083850312156112b9576112b861105b565b5b60006112c7858286016110a9565b92505060206112d8858286016110a9565b9150509250929050565b7f4e65656420746f2073656e642045544800000000000000000000000000000000600082015250565b6000611318601083610fb4565b9150611323826112e2565b602082019050919050565b600060208201905081810360008301526113478161130b565b9050919050565b7f4e487b7100000000000000000000000000000000000000000000000000000000600052601160045260246000fd5b6000611388826110be565b9150611393836110be565b92508282026113a1816110be565b915082820484148315176113b8576113b761134e565b5b5092915050565b7f4e487b7100000000000000000000000000000000000000000000000000000000600052601260045260246000fd5b60006113f9826110be565b9150611404836110be565b925082611414576114136113bf565b5b828204905092915050565b7f4e487b7100000000000000000000000000000000000000000000000000000000600052602260045260246000fd5b6000600282049050600182168061146657607f821691505b6020821081036114795761147861141f565b5b50919050565b6000606082019050611494600083018661124b565b6114a1602083018561116a565b6114ae604083018461116a565b949350505050565b60006114c1826110be565b91506114cc836110be565b92508282019050808211156114e4576114e361134e565b5b9291505056fea26469706673582212204b60f5517990e43b7b58655be17d22d33c18de751d43cb64cc77b8e4fc5ee15464736f6c634300081c0033",
  "linkReferences": {},
  "deployedLinkReferences": {}
}